{
  "_format": "hh-sol-artifact-1",
  "contractName": "NFT",
  "sourceName": "src/backend/contracts/NFT.sol",
  "abi": [
    {
      "inputs": [
        {
          "internalType": "address",
          "name": "_ownerAddress",
          "type": "address"
        },
        {
          "internalType": "bytes32",
          "name": "_allowListRoot",
          "type": "bytes32"
        },
        {
          "internalType": "bytes32",
          "name": "_primeListRoot",
          "type": "bytes32"
        }
      ],
      "stateMutability": "nonpayable",
      "type": "constructor"
    },
    {
      "inputs": [],
      "name": "ApprovalCallerNotOwnerNorApproved",
      "type": "error"
    },
    {
      "inputs": [],
      "name": "ApprovalQueryForNonexistentToken",
      "type": "error"
    },
    {
      "inputs": [],
      "name": "BalanceQueryForZeroAddress",
      "type": "error"
    },
    {
      "inputs": [],
      "name": "MintERC2309QuantityExceedsLimit",
      "type": "error"
    },
    {
      "inputs": [],
      "name": "MintToZeroAddress",
      "type": "error"
    },
    {
      "inputs": [],
      "name": "MintZeroQuantity",
      "type": "error"
    },
    {
      "inputs": [
        {
          "internalType": "address",
          "name": "operator",
          "type": "address"
        }
      ],
      "name": "OperatorNotAllowed",
      "type": "error"
    },
    {
      "inputs": [],
      "name": "OwnerQueryForNonexistentToken",
      "type": "error"
    },
    {
      "inputs": [],
      "name": "OwnershipNotInitializedForExtraData",
      "type": "error"
    },
    {
      "inputs": [],
      "name": "TransferCallerNotOwnerNorApproved",
      "type": "error"
    },
    {
      "inputs": [],
      "name": "TransferFromIncorrectOwner",
      "type": "error"
    },
    {
      "inputs": [],
      "name": "TransferToNonERC721ReceiverImplementer",
      "type": "error"
    },
    {
      "inputs": [],
      "name": "TransferToZeroAddress",
      "type": "error"
    },
    {
      "inputs": [],
      "name": "URIQueryForNonexistentToken",
      "type": "error"
    },
    {
      "anonymous": false,
      "inputs": [
        {
          "indexed": true,
          "internalType": "address",
          "name": "owner",
          "type": "address"
        },
        {
          "indexed": true,
          "internalType": "address",
          "name": "approved",
          "type": "address"
        },
        {
          "indexed": true,
          "internalType": "uint256",
          "name": "tokenId",
          "type": "uint256"
        }
      ],
      "name": "Approval",
      "type": "event"
    },
    {
      "anonymous": false,
      "inputs": [
        {
          "indexed": true,
          "internalType": "address",
          "name": "owner",
          "type": "address"
        },
        {
          "indexed": true,
          "internalType": "address",
          "name": "operator",
          "type": "address"
        },
        {
          "indexed": false,
          "internalType": "bool",
          "name": "approved",
          "type": "bool"
        }
      ],
      "name": "ApprovalForAll",
      "type": "event"
    },
    {
      "anonymous": false,
      "inputs": [
        {
          "indexed": true,
          "internalType": "uint256",
          "name": "fromTokenId",
          "type": "uint256"
        },
        {
          "indexed": false,
          "internalType": "uint256",
          "name": "toTokenId",
          "type": "uint256"
        },
        {
          "indexed": true,
          "internalType": "address",
          "name": "from",
          "type": "address"
        },
        {
          "indexed": true,
          "internalType": "address",
          "name": "to",
          "type": "address"
        }
      ],
      "name": "ConsecutiveTransfer",
      "type": "event"
    },
    {
      "anonymous": false,
      "inputs": [
        {
          "indexed": false,
          "internalType": "address",
          "name": "user",
          "type": "address"
        },
        {
          "indexed": false,
          "internalType": "uint256",
          "name": "totalSupplyBeforeMint",
          "type": "uint256"
        },
        {
          "indexed": false,
          "internalType": "uint256",
          "name": "_quantity",
          "type": "uint256"
        }
      ],
      "name": "MintSuccessful",
      "type": "event"
    },
    {
      "anonymous": false,
      "inputs": [
        {
          "indexed": true,
          "internalType": "address",
          "name": "previousOwner",
          "type": "address"
        },
        {
          "indexed": true,
          "internalType": "address",
          "name": "newOwner",
          "type": "address"
        }
      ],
      "name": "OwnershipTransferred",
      "type": "event"
    },
    {
      "anonymous": false,
      "inputs": [
        {
          "indexed": true,
          "internalType": "address",
          "name": "from",
          "type": "address"
        },
        {
          "indexed": true,
          "internalType": "address",
          "name": "to",
          "type": "address"
        },
        {
          "indexed": true,
          "internalType": "uint256",
          "name": "tokenId",
          "type": "uint256"
        }
      ],
      "name": "Transfer",
      "type": "event"
    },
    {
      "inputs": [
        {
          "internalType": "address",
          "name": "_user",
          "type": "address"
        },
        {
          "internalType": "uint256",
          "name": "_quantity",
          "type": "uint256"
        }
      ],
      "name": "airdrop",
      "outputs": [],
      "stateMutability": "nonpayable",
      "type": "function"
    },
    {
      "inputs": [],
      "name": "allowListRoot",
      "outputs": [
        {
          "internalType": "bytes32",
          "name": "",
          "type": "bytes32"
        }
      ],
      "stateMutability": "view",
      "type": "function"
    },
    {
      "inputs": [],
      "name": "amountMintPerAccount",
      "outputs": [
        {
          "internalType": "uint256",
          "name": "",
          "type": "uint256"
        }
      ],
      "stateMutability": "view",
      "type": "function"
    },
    {
      "inputs": [],
      "name": "amountMintPerAccountPrimeList",
      "outputs": [
        {
          "internalType": "uint256",
          "name": "",
          "type": "uint256"
        }
      ],
      "stateMutability": "view",
      "type": "function"
    },
    {
      "inputs": [
        {
          "internalType": "address",
          "name": "to",
          "type": "address"
        },
        {
          "internalType": "uint256",
          "name": "tokenId",
          "type": "uint256"
        }
      ],
      "name": "approve",
      "outputs": [],
      "stateMutability": "payable",
      "type": "function"
    },
    {
      "inputs": [
        {
          "internalType": "address",
          "name": "owner",
          "type": "address"
        }
      ],
      "name": "balanceOf",
      "outputs": [
        {
          "internalType": "uint256",
          "name": "",
          "type": "uint256"
        }
      ],
      "stateMutability": "view",
      "type": "function"
    },
    {
      "inputs": [],
      "name": "baseTokenURI",
      "outputs": [
        {
          "internalType": "string",
          "name": "",
          "type": "string"
        }
      ],
      "stateMutability": "view",
      "type": "function"
    },
    {
      "inputs": [],
      "name": "baseUri",
      "outputs": [
        {
          "internalType": "string",
          "name": "",
          "type": "string"
        }
      ],
      "stateMutability": "view",
      "type": "function"
    },
    {
      "inputs": [
        {
          "internalType": "uint256",
          "name": "tokenId",
          "type": "uint256"
        }
      ],
      "name": "getApproved",
      "outputs": [
        {
          "internalType": "address",
          "name": "",
          "type": "address"
        }
      ],
      "stateMutability": "view",
      "type": "function"
    },
    {
      "inputs": [
        {
          "internalType": "address",
          "name": "owner",
          "type": "address"
        },
        {
          "internalType": "address",
          "name": "operator",
          "type": "address"
        }
      ],
      "name": "isApprovedForAll",
      "outputs": [
        {
          "internalType": "bool",
          "name": "",
          "type": "bool"
        }
      ],
      "stateMutability": "view",
      "type": "function"
    },
    {
      "inputs": [
        {
          "internalType": "bytes32[]",
          "name": "_proof",
          "type": "bytes32[]"
        },
        {
          "internalType": "bytes32",
          "name": "_leaf",
          "type": "bytes32"
        }
      ],
      "name": "isValidAllowList",
      "outputs": [
        {
          "internalType": "bool",
          "name": "",
          "type": "bool"
        }
      ],
      "stateMutability": "view",
      "type": "function"
    },
    {
      "inputs": [
        {
          "internalType": "bytes32[]",
          "name": "_proof",
          "type": "bytes32[]"
        },
        {
          "internalType": "bytes32",
          "name": "_leaf",
          "type": "bytes32"
        }
      ],
      "name": "isValidPrimeList",
      "outputs": [
        {
          "internalType": "bool",
          "name": "",
          "type": "bool"
        }
      ],
      "stateMutability": "view",
      "type": "function"
    },
    {
      "inputs": [],
      "name": "max_supply",
      "outputs": [
        {
          "internalType": "uint256",
          "name": "",
          "type": "uint256"
        }
      ],
      "stateMutability": "view",
      "type": "function"
    },
    {
      "inputs": [
        {
          "internalType": "uint256",
          "name": "_quantity",
          "type": "uint256"
        },
        {
          "internalType": "bytes32[]",
          "name": "_proof",
          "type": "bytes32[]"
        }
      ],
      "name": "mint",
      "outputs": [],
      "stateMutability": "payable",
      "type": "function"
    },
    {
      "inputs": [],
      "name": "mintEnabled",
      "outputs": [
        {
          "internalType": "bool",
          "name": "",
          "type": "bool"
        }
      ],
      "stateMutability": "view",
      "type": "function"
    },
    {
      "inputs": [],
      "name": "name",
      "outputs": [
        {
          "internalType": "string",
          "name": "",
          "type": "string"
        }
      ],
      "stateMutability": "view",
      "type": "function"
    },
    {
      "inputs": [],
      "name": "owner",
      "outputs": [
        {
          "internalType": "address",
          "name": "",
          "type": "address"
        }
      ],
      "stateMutability": "view",
      "type": "function"
    },
    {
      "inputs": [
        {
          "internalType": "uint256",
          "name": "tokenId",
          "type": "uint256"
        }
      ],
      "name": "ownerOf",
      "outputs": [
        {
          "internalType": "address",
          "name": "",
          "type": "address"
        }
      ],
      "stateMutability": "view",
      "type": "function"
    },
    {
      "inputs": [],
      "name": "price",
      "outputs": [
        {
          "internalType": "uint256",
          "name": "",
          "type": "uint256"
        }
      ],
      "stateMutability": "view",
      "type": "function"
    },
    {
      "inputs": [],
      "name": "pricePrimeList",
      "outputs": [
        {
          "internalType": "uint256",
          "name": "",
          "type": "uint256"
        }
      ],
      "stateMutability": "view",
      "type": "function"
    },
    {
      "inputs": [],
      "name": "primeListRoot",
      "outputs": [
        {
          "internalType": "bytes32",
          "name": "",
          "type": "bytes32"
        }
      ],
      "stateMutability": "view",
      "type": "function"
    },
    {
      "inputs": [],
      "name": "publicSaleEnabled",
      "outputs": [
        {
          "internalType": "bool",
          "name": "",
          "type": "bool"
        }
      ],
      "stateMutability": "view",
      "type": "function"
    },
    {
      "inputs": [],
      "name": "renounceOwnership",
      "outputs": [],
      "stateMutability": "nonpayable",
      "type": "function"
    },
    {
      "inputs": [],
      "name": "revealed",
      "outputs": [
        {
          "internalType": "bool",
          "name": "",
          "type": "bool"
        }
      ],
      "stateMutability": "view",
      "type": "function"
    },
    {
      "inputs": [
        {
          "internalType": "address",
          "name": "from",
          "type": "address"
        },
        {
          "internalType": "address",
          "name": "to",
          "type": "address"
        },
        {
          "internalType": "uint256",
          "name": "tokenId",
          "type": "uint256"
        }
      ],
      "name": "safeTransferFrom",
      "outputs": [],
      "stateMutability": "payable",
      "type": "function"
    },
    {
      "inputs": [
        {
          "internalType": "address",
          "name": "from",
          "type": "address"
        },
        {
          "internalType": "address",
          "name": "to",
          "type": "address"
        },
        {
          "internalType": "uint256",
          "name": "tokenId",
          "type": "uint256"
        },
        {
          "internalType": "bytes",
          "name": "data",
          "type": "bytes"
        }
      ],
      "name": "safeTransferFrom",
      "outputs": [],
      "stateMutability": "payable",
      "type": "function"
    },
    {
      "inputs": [
        {
          "internalType": "bytes32",
          "name": "_allowListRoot",
          "type": "bytes32"
        }
      ],
      "name": "setAllowListRoot",
      "outputs": [],
      "stateMutability": "nonpayable",
      "type": "function"
    },
    {
      "inputs": [
        {
          "internalType": "uint256",
          "name": "_amountMintPerAccount",
          "type": "uint256"
        }
      ],
      "name": "setAmountMintPerAccount",
      "outputs": [],
      "stateMutability": "nonpayable",
      "type": "function"
    },
    {
      "inputs": [
        {
          "internalType": "address",
          "name": "operator",
          "type": "address"
        },
        {
          "internalType": "bool",
          "name": "approved",
          "type": "bool"
        }
      ],
      "name": "setApprovalForAll",
      "outputs": [],
      "stateMutability": "nonpayable",
      "type": "function"
    },
    {
      "inputs": [
        {
          "internalType": "string",
          "name": "_uri",
          "type": "string"
        }
      ],
      "name": "setBaseUri",
      "outputs": [],
      "stateMutability": "nonpayable",
      "type": "function"
    },
    {
      "inputs": [
        {
          "internalType": "uint256",
          "name": "_max_supply",
          "type": "uint256"
        }
      ],
      "name": "setMaxSupply",
      "outputs": [],
      "stateMutability": "nonpayable",
      "type": "function"
    },
    {
      "inputs": [
        {
          "internalType": "bool",
          "name": "_state",
          "type": "bool"
        }
      ],
      "name": "setMintEnabled",
      "outputs": [],
      "stateMutability": "nonpayable",
      "type": "function"
    },
    {
      "inputs": [
        {
          "internalType": "uint256",
          "name": "_price",
          "type": "uint256"
        }
      ],
      "name": "setPrice",
      "outputs": [],
      "stateMutability": "nonpayable",
      "type": "function"
    },
    {
      "inputs": [
        {
          "internalType": "uint256",
          "name": "_price",
          "type": "uint256"
        }
      ],
      "name": "setPricePrimeList",
      "outputs": [],
      "stateMutability": "nonpayable",
      "type": "function"
    },
    {
      "inputs": [
        {
          "internalType": "bytes32",
          "name": "_primeListRoot",
          "type": "bytes32"
        }
      ],
      "name": "setPrimeListRoot",
      "outputs": [],
      "stateMutability": "nonpayable",
      "type": "function"
    },
    {
      "inputs": [
        {
          "internalType": "bool",
          "name": "_state",
          "type": "bool"
        }
      ],
      "name": "setPublicSaleEnabled",
      "outputs": [],
      "stateMutability": "nonpayable",
      "type": "function"
    },
    {
      "inputs": [
        {
          "internalType": "bool",
          "name": "_state",
          "type": "bool"
        }
      ],
      "name": "setRevealed",
      "outputs": [],
      "stateMutability": "nonpayable",
      "type": "function"
    },
    {
      "inputs": [
        {
          "internalType": "string",
          "name": "_uri",
          "type": "string"
        }
      ],
      "name": "setUnrevealedUri",
      "outputs": [],
      "stateMutability": "nonpayable",
      "type": "function"
    },
    {
      "inputs": [
        {
          "internalType": "bytes4",
          "name": "interfaceId",
          "type": "bytes4"
        }
      ],
      "name": "supportsInterface",
      "outputs": [
        {
          "internalType": "bool",
          "name": "",
          "type": "bool"
        }
      ],
      "stateMutability": "view",
      "type": "function"
    },
    {
      "inputs": [],
      "name": "symbol",
      "outputs": [
        {
          "internalType": "string",
          "name": "",
          "type": "string"
        }
      ],
      "stateMutability": "view",
      "type": "function"
    },
    {
      "inputs": [
        {
          "internalType": "uint256",
          "name": "_tokenId",
          "type": "uint256"
        }
      ],
      "name": "tokenURI",
      "outputs": [
        {
          "internalType": "string",
          "name": "",
          "type": "string"
        }
      ],
      "stateMutability": "view",
      "type": "function"
    },
    {
      "inputs": [],
      "name": "totalSupply",
      "outputs": [
        {
          "internalType": "uint256",
          "name": "",
          "type": "uint256"
        }
      ],
      "stateMutability": "view",
      "type": "function"
    },
    {
      "inputs": [
        {
          "internalType": "address",
          "name": "from",
          "type": "address"
        },
        {
          "internalType": "address",
          "name": "to",
          "type": "address"
        },
        {
          "internalType": "uint256",
          "name": "tokenId",
          "type": "uint256"
        }
      ],
      "name": "transferFrom",
      "outputs": [],
      "stateMutability": "payable",
      "type": "function"
    },
    {
      "inputs": [
        {
          "internalType": "address",
          "name": "newOwner",
          "type": "address"
        }
      ],
      "name": "transferOwnership",
      "outputs": [],
      "stateMutability": "nonpayable",
      "type": "function"
    },
    {
      "inputs": [],
      "name": "unrevealedUri",
      "outputs": [
        {
          "internalType": "string",
          "name": "",
          "type": "string"
        }
      ],
      "stateMutability": "view",
      "type": "function"
    },
    {
      "inputs": [],
      "name": "uriPrefix",
      "outputs": [
        {
          "internalType": "string",
          "name": "",
          "type": "string"
        }
      ],
      "stateMutability": "view",
      "type": "function"
    },
    {
      "inputs": [],
      "name": "uriSuffix",
      "outputs": [
        {
          "internalType": "string",
          "name": "",
          "type": "string"
        }
      ],
      "stateMutability": "view",
      "type": "function"
    },
    {
      "inputs": [],
      "name": "withdraw",
      "outputs": [],
      "stateMutability": "nonpayable",
      "type": "function"
    }
  ],
  "bytecode": "0x608060405260405180602001604052806000815250600990805190602001906200002b9291906200050f565b506040518060400160405280600581526020017f2e6a736f6e000000000000000000000000000000000000000000000000000000815250600a9080519060200190620000799291906200050f565b5060405180602001604052806000815250600b9080519060200190620000a19291906200050f565b506040518060800160405280604381526020016200478560439139600c9080519060200190620000d39291906200050f565b50610fa0600d556005600e55600a600f556658d15e176280006010556654607fc96a60006011553480156200010757600080fd5b50604051620047c8380380620047c883398181016040528101906200012d919062000664565b733cc6cdda760b79bafa08df41ecfa224f810dceb660016040518060400160405280601581526020017f4d7973746963204d6f746f7273204f6c796d70757300000000000000000000008152506040518060400160405280600681526020017f4d59535449430000000000000000000000000000000000000000000000000000815250620001d0620001c46200043960201b60201c565b6200044160201b60201c565b8160039080519060200190620001e89291906200050f565b508060049080519060200190620002019291906200050f565b50620002126200050560201b60201c565b600181905550505060006daaeb6d7670e522a718067333cd4e73ffffffffffffffffffffffffffffffffffffffff163b11156200040f578015620002d5576daaeb6d7670e522a718067333cd4e73ffffffffffffffffffffffffffffffffffffffff16637d3e3dbe30846040518363ffffffff1660e01b81526004016200029b929190620006d1565b600060405180830381600087803b158015620002b657600080fd5b505af1158015620002cb573d6000803e3d6000fd5b505050506200040e565b600073ffffffffffffffffffffffffffffffffffffffff168273ffffffffffffffffffffffffffffffffffffffff16146200038f576daaeb6d7670e522a718067333cd4e73ffffffffffffffffffffffffffffffffffffffff1663a0af290330846040518363ffffffff1660e01b815260040162000355929190620006d1565b600060405180830381600087803b1580156200037057600080fd5b505af115801562000385573d6000803e3d6000fd5b505050506200040d565b6daaeb6d7670e522a718067333cd4e73ffffffffffffffffffffffffffffffffffffffff16634420e486306040518263ffffffff1660e01b8152600401620003d89190620006fe565b600060405180830381600087803b158015620003f357600080fd5b505af115801562000408573d6000803e3d6000fd5b505050505b5b5b5050816012819055508060138190555062000430836200044160201b60201c565b5050506200077f565b600033905090565b60008060009054906101000a900473ffffffffffffffffffffffffffffffffffffffff169050816000806101000a81548173ffffffffffffffffffffffffffffffffffffffff021916908373ffffffffffffffffffffffffffffffffffffffff1602179055508173ffffffffffffffffffffffffffffffffffffffff168173ffffffffffffffffffffffffffffffffffffffff167f8be0079c531659141344cd1fd0a4f28419497f9722a3daafe3b4186f6b6457e060405160405180910390a35050565b60006101f5905090565b8280546200051d906200074a565b90600052602060002090601f0160209004810192826200054157600085556200058d565b82601f106200055c57805160ff19168380011785556200058d565b828001600101855582156200058d579182015b828111156200058c5782518255916020019190600101906200056f565b5b5090506200059c9190620005a0565b5090565b5b80821115620005bb576000816000905550600101620005a1565b5090565b600080fd5b600073ffffffffffffffffffffffffffffffffffffffff82169050919050565b6000620005f182620005c4565b9050919050565b6200060381620005e4565b81146200060f57600080fd5b50565b6000815190506200062381620005f8565b92915050565b6000819050919050565b6200063e8162000629565b81146200064a57600080fd5b50565b6000815190506200065e8162000633565b92915050565b60008060006060848603121562000680576200067f620005bf565b5b6000620006908682870162000612565b9350506020620006a3868287016200064d565b9250506040620006b6868287016200064d565b9150509250925092565b620006cb81620005e4565b82525050565b6000604082019050620006e86000830185620006c0565b620006f76020830184620006c0565b9392505050565b6000602082019050620007156000830184620006c0565b92915050565b7f4e487b7100000000000000000000000000000000000000000000000000000000600052602260045260246000fd5b600060028204905060018216806200076357607f821691505b6020821081036200077957620007786200071b565b5b50919050565b613ff6806200078f6000396000f3fe6080604052600436106102935760003560e01c80638a333b501161015a578063a827b5ff116100c1578063d12397301161007a578063d12397301461099b578063d547cfb7146109c6578063e0a80853146109f1578063e985e9c514610a1a578063f2fde38b14610a57578063f46a04eb14610a8057610293565b8063a827b5ff146108a7578063b88d4fde146108d2578063ba41b0c6146108ee578063bdeb7a851461090a578063c02c1bcd14610933578063c87b56dd1461095e57610293565b80639abc8320116101135780639abc8320146107975780639d589611146107c2578063a035b1fe146107ed578063a0bcfc7f14610818578063a22cb46514610841578063a2a627bc1461086a57610293565b80638a333b501461069b5780638ba4cc3c146106c65780638da5cb5b146106ef57806390fb5fb91461071a57806391b7f5ed1461074357806395d89b411461076c57610293565b806342842e0e116101fe57806366abb30a116101b757806366abb30a1461058d5780636f8b44b0146105ca57806370a08231146105f3578063715018a61461063057806379ad916d146106475780638720fbef1461067257610293565b806342842e0e146104885780634a4d280e146104a457806351830227146104cf5780635503a0e8146104fa57806362b99ad4146105255780636352211e1461055057610293565b8063112966601161025057806311296660146103ad57806318160ddd146103d657806323b872dd146104015780632ab91bba1461041d5780632f2f771b146104485780633ccfd60b1461047157610293565b806301ffc9a71461029857806306fdde03146102d5578063081812fc14610300578063095ea7b31461033d5780630c9d4c4d146103595780630d2ab6f314610384575b600080fd5b3480156102a457600080fd5b506102bf60048036038101906102ba9190612e59565b610aa9565b6040516102cc9190612ea1565b60405180910390f35b3480156102e157600080fd5b506102ea610b3b565b6040516102f79190612f55565b60405180910390f35b34801561030c57600080fd5b5061032760048036038101906103229190612fad565b610bcd565b604051610334919061301b565b60405180910390f35b61035760048036038101906103529190613062565b610c4c565b005b34801561036557600080fd5b5061036e610d90565b60405161037b91906130b1565b60405180910390f35b34801561039057600080fd5b506103ab60048036038101906103a69190612fad565b610d96565b005b3480156103b957600080fd5b506103d460048036038101906103cf9190612fad565b610da8565b005b3480156103e257600080fd5b506103eb610dba565b6040516103f891906130b1565b60405180910390f35b61041b600480360381019061041691906130cc565b610dd1565b005b34801561042957600080fd5b50610432610fb3565b60405161043f9190612ea1565b60405180910390f35b34801561045457600080fd5b5061046f600480360381019061046a9190613155565b610fc6565b005b34801561047d57600080fd5b50610486610fd8565b005b6104a2600480360381019061049d91906130cc565b611029565b005b3480156104b057600080fd5b506104b961120b565b6040516104c69190613191565b60405180910390f35b3480156104db57600080fd5b506104e4611211565b6040516104f19190612ea1565b60405180910390f35b34801561050657600080fd5b5061050f611224565b60405161051c9190612f55565b60405180910390f35b34801561053157600080fd5b5061053a6112b2565b6040516105479190612f55565b60405180910390f35b34801561055c57600080fd5b5061057760048036038101906105729190612fad565b611340565b604051610584919061301b565b60405180910390f35b34801561059957600080fd5b506105b460048036038101906105af91906132f4565b611352565b6040516105c19190612ea1565b60405180910390f35b3480156105d657600080fd5b506105f160048036038101906105ec9190612fad565b611369565b005b3480156105ff57600080fd5b5061061a60048036038101906106159190613350565b61137b565b60405161062791906130b1565b60405180910390f35b34801561063c57600080fd5b50610645611433565b005b34801561065357600080fd5b5061065c611447565b60405161066991906130b1565b60405180910390f35b34801561067e57600080fd5b50610699600480360381019061069491906133a9565b61144d565b005b3480156106a757600080fd5b506106b0611472565b6040516106bd91906130b1565b60405180910390f35b3480156106d257600080fd5b506106ed60048036038101906106e89190613062565b611478565b005b3480156106fb57600080fd5b506107046114e5565b604051610711919061301b565b60405180910390f35b34801561072657600080fd5b50610741600480360381019061073c919061348b565b61150e565b005b34801561074f57600080fd5b5061076a60048036038101906107659190612fad565b611530565b005b34801561077857600080fd5b50610781611542565b60405161078e9190612f55565b60405180910390f35b3480156107a357600080fd5b506107ac6115d4565b6040516107b99190612f55565b60405180910390f35b3480156107ce57600080fd5b506107d7611662565b6040516107e49190613191565b60405180910390f35b3480156107f957600080fd5b50610802611668565b60405161080f91906130b1565b60405180910390f35b34801561082457600080fd5b5061083f600480360381019061083a919061348b565b61166e565b005b34801561084d57600080fd5b50610868600480360381019061086391906134d4565b611690565b005b34801561087657600080fd5b50610891600480360381019061088c91906132f4565b61179b565b60405161089e9190612ea1565b60405180910390f35b3480156108b357600080fd5b506108bc6117b2565b6040516108c991906130b1565b60405180910390f35b6108ec60048036038101906108e791906135b5565b6117b8565b005b61090860048036038101906109039190613638565b61199d565b005b34801561091657600080fd5b50610931600480360381019061092c9190613155565b611c4e565b005b34801561093f57600080fd5b50610948611c60565b6040516109559190612f55565b60405180910390f35b34801561096a57600080fd5b5061098560048036038101906109809190612fad565b611cee565b6040516109929190612f55565b60405180910390f35b3480156109a757600080fd5b506109b0611e3a565b6040516109bd9190612ea1565b60405180910390f35b3480156109d257600080fd5b506109db611e4d565b6040516109e89190612f55565b60405180910390f35b3480156109fd57600080fd5b50610a186004803603810190610a1391906133a9565b611e5c565b005b348015610a2657600080fd5b50610a416004803603810190610a3c9190613694565b611e81565b604051610a4e9190612ea1565b60405180910390f35b348015610a6357600080fd5b50610a7e6004803603810190610a799190613350565b611f15565b005b348015610a8c57600080fd5b50610aa76004803603810190610aa291906133a9565b611f98565b005b60006301ffc9a760e01b827bffffffffffffffffffffffffffffffffffffffffffffffffffffffff19161480610b0457506380ac58cd60e01b827bffffffffffffffffffffffffffffffffffffffffffffffffffffffff1916145b80610b345750635b5e139f60e01b827bffffffffffffffffffffffffffffffffffffffffffffffffffffffff1916145b9050919050565b606060038054610b4a90613703565b80601f0160208091040260200160405190810160405280929190818152602001828054610b7690613703565b8015610bc35780601f10610b9857610100808354040283529160200191610bc3565b820191906000526020600020905b815481529060010190602001808311610ba657829003601f168201915b5050505050905090565b6000610bd882611fbd565b610c0e576040517fcf4700e400000000000000000000000000000000000000000000000000000000815260040160405180910390fd5b6007600083815260200190815260200160002060000160009054906101000a900473ffffffffffffffffffffffffffffffffffffffff169050919050565b6000610c5782611340565b90508073ffffffffffffffffffffffffffffffffffffffff16610c7861201c565b73ffffffffffffffffffffffffffffffffffffffff1614610cdb57610ca481610c9f61201c565b611e81565b610cda576040517fcfb3b94200000000000000000000000000000000000000000000000000000000815260040160405180910390fd5b5b826007600084815260200190815260200160002060000160006101000a81548173ffffffffffffffffffffffffffffffffffffffff021916908373ffffffffffffffffffffffffffffffffffffffff160217905550818373ffffffffffffffffffffffffffffffffffffffff168273ffffffffffffffffffffffffffffffffffffffff167f8c5be1e5ebec7d5bd14f71427d1e84f3dd0314c0f7b2291e5b200ac8c7c3b92560405160405180910390a4505050565b600f5481565b610d9e612024565b8060118190555050565b610db0612024565b80600e8190555050565b6000610dc46120a2565b6002546001540303905090565b8260006daaeb6d7670e522a718067333cd4e73ffffffffffffffffffffffffffffffffffffffff163b1115610fa1573373ffffffffffffffffffffffffffffffffffffffff168173ffffffffffffffffffffffffffffffffffffffff1603610e4357610e3e8484846120ac565b610fad565b6daaeb6d7670e522a718067333cd4e73ffffffffffffffffffffffffffffffffffffffff1663c617113430336040518363ffffffff1660e01b8152600401610e8c929190613734565b602060405180830381865afa158015610ea9573d6000803e3d6000fd5b505050506040513d601f19601f82011682018060405250810190610ecd9190613772565b8015610f5f57506daaeb6d7670e522a718067333cd4e73ffffffffffffffffffffffffffffffffffffffff1663c617113430836040518363ffffffff1660e01b8152600401610f1d929190613734565b602060405180830381865afa158015610f3a573d6000803e3d6000fd5b505050506040513d601f19601f82011682018060405250810190610f5e9190613772565b5b610fa057336040517fede71dcc000000000000000000000000000000000000000000000000000000008152600401610f97919061301b565b60405180910390fd5b5b610fac8484846120ac565b5b50505050565b601460009054906101000a900460ff1681565b610fce612024565b8060138190555050565b610fe0612024565b3373ffffffffffffffffffffffffffffffffffffffff166108fc479081150290604051600060405180830381858888f19350505050158015611026573d6000803e3d6000fd5b50565b8260006daaeb6d7670e522a718067333cd4e73ffffffffffffffffffffffffffffffffffffffff163b11156111f9573373ffffffffffffffffffffffffffffffffffffffff168173ffffffffffffffffffffffffffffffffffffffff160361109b576110968484846123ce565b611205565b6daaeb6d7670e522a718067333cd4e73ffffffffffffffffffffffffffffffffffffffff1663c617113430336040518363ffffffff1660e01b81526004016110e4929190613734565b602060405180830381865afa158015611101573d6000803e3d6000fd5b505050506040513d601f19601f820116820180604052508101906111259190613772565b80156111b757506daaeb6d7670e522a718067333cd4e73ffffffffffffffffffffffffffffffffffffffff1663c617113430836040518363ffffffff1660e01b8152600401611175929190613734565b602060405180830381865afa158015611192573d6000803e3d6000fd5b505050506040513d601f19601f820116820180604052508101906111b69190613772565b5b6111f857336040517fede71dcc0000000000000000000000000000000000000000000000000000000081526004016111ef919061301b565b60405180910390fd5b5b6112048484846123ce565b5b50505050565b60135481565b601460029054906101000a900460ff1681565b600a805461123190613703565b80601f016020809104026020016040519081016040528092919081815260200182805461125d90613703565b80156112aa5780601f1061127f576101008083540402835291602001916112aa565b820191906000526020600020905b81548152906001019060200180831161128d57829003601f168201915b505050505081565b600980546112bf90613703565b80601f01602080910402602001604051908101604052809291908181526020018280546112eb90613703565b80156113385780601f1061130d57610100808354040283529160200191611338565b820191906000526020600020905b81548152906001019060200180831161131b57829003601f168201915b505050505081565b600061134b826123ee565b9050919050565b600061136183601254846124ba565b905092915050565b611371612024565b80600d8190555050565b60008073ffffffffffffffffffffffffffffffffffffffff168273ffffffffffffffffffffffffffffffffffffffff16036113e2576040517f8f4eb60400000000000000000000000000000000000000000000000000000000815260040160405180910390fd5b67ffffffffffffffff600660008473ffffffffffffffffffffffffffffffffffffffff1673ffffffffffffffffffffffffffffffffffffffff16815260200190815260200160002054169050919050565b61143b612024565b61144560006124d1565b565b60115481565b611455612024565b80601460006101000a81548160ff02191690831515021790555050565b600d5481565b611480612024565b600d548161148c610dba565b61149691906137ce565b11156114d7576040517f08c379a00000000000000000000000000000000000000000000000000000000081526004016114ce90613896565b60405180910390fd5b6114e18282612595565b5050565b60008060009054906101000a900473ffffffffffffffffffffffffffffffffffffffff16905090565b611516612024565b80600c908051906020019061152c929190612d4a565b5050565b611538612024565b8060108190555050565b60606004805461155190613703565b80601f016020809104026020016040519081016040528092919081815260200182805461157d90613703565b80156115ca5780601f1061159f576101008083540402835291602001916115ca565b820191906000526020600020905b8154815290600101906020018083116115ad57829003601f168201915b5050505050905090565b600b80546115e190613703565b80601f016020809104026020016040519081016040528092919081815260200182805461160d90613703565b801561165a5780601f1061162f5761010080835404028352916020019161165a565b820191906000526020600020905b81548152906001019060200180831161163d57829003601f168201915b505050505081565b60125481565b60105481565b611676612024565b80600b908051906020019061168c929190612d4a565b5050565b806008600061169d61201c565b73ffffffffffffffffffffffffffffffffffffffff1673ffffffffffffffffffffffffffffffffffffffff16815260200190815260200160002060008473ffffffffffffffffffffffffffffffffffffffff1673ffffffffffffffffffffffffffffffffffffffff16815260200190815260200160002060006101000a81548160ff0219169083151502179055508173ffffffffffffffffffffffffffffffffffffffff1661174a61201c565b73ffffffffffffffffffffffffffffffffffffffff167f17307eab39ab6107e8899845ad3d59bd9653f200f220920489ca2b5937696c318360405161178f9190612ea1565b60405180910390a35050565b60006117aa83601354846124ba565b905092915050565b600e5481565b8360006daaeb6d7670e522a718067333cd4e73ffffffffffffffffffffffffffffffffffffffff163b1115611989573373ffffffffffffffffffffffffffffffffffffffff168173ffffffffffffffffffffffffffffffffffffffff160361182b5761182685858585612751565b611996565b6daaeb6d7670e522a718067333cd4e73ffffffffffffffffffffffffffffffffffffffff1663c617113430336040518363ffffffff1660e01b8152600401611874929190613734565b602060405180830381865afa158015611891573d6000803e3d6000fd5b505050506040513d601f19601f820116820180604052508101906118b59190613772565b801561194757506daaeb6d7670e522a718067333cd4e73ffffffffffffffffffffffffffffffffffffffff1663c617113430836040518363ffffffff1660e01b8152600401611905929190613734565b602060405180830381865afa158015611922573d6000803e3d6000fd5b505050506040513d601f19601f820116820180604052508101906119469190613772565b5b61198857336040517fede71dcc00000000000000000000000000000000000000000000000000000000815260040161197f919061301b565b60405180910390fd5b5b61199585858585612751565b5b5050505050565b601460019054906101000a900460ff166119ec576040517f08c379a00000000000000000000000000000000000000000000000000000000081526004016119e390613902565b60405180910390fd5b600d54826119f8610dba565b611a0291906137ce565b1115611a43576040517f08c379a0000000000000000000000000000000000000000000000000000000008152600401611a3a90613896565b60405180910390fd5b6000611a758233604051602001611a5a919061396a565b60405160208183030381529060405280519060200120611352565b90506000611aa98333604051602001611a8e919061396a565b6040516020818303038152906040528051906020012061179b565b9050601460009054906101000a900460ff1680611ac35750815b80611acb5750805b611b0a576040517f08c379a0000000000000000000000000000000000000000000000000000000008152600401611b01906139d1565b60405180910390fd5b600e5484611b173361137b565b611b2191906137ce565b111580611b4c5750808015611b4b5750600f5484611b3e3361137b565b611b4891906137ce565b11155b5b611b8b576040517f08c379a0000000000000000000000000000000000000000000000000000000008152600401611b8290613a63565b60405180910390fd5b83601054611b999190613a83565b34101580611bbd5750808015611bbc575083601154611bb89190613a83565b3410155b5b611bfc576040517f08c379a0000000000000000000000000000000000000000000000000000000008152600401611bf390613b4f565b60405180910390fd5b611c063385612595565b7fd487c6ad16ac879a595219f386dd2a72a90cb14c9dec17eec7756e51cfd2172333611c30610dba565b86604051611c4093929190613b6f565b60405180910390a150505050565b611c56612024565b8060128190555050565b600c8054611c6d90613703565b80601f0160208091040260200160405190810160405280929190818152602001828054611c9990613703565b8015611ce65780601f10611cbb57610100808354040283529160200191611ce6565b820191906000526020600020905b815481529060010190602001808311611cc957829003601f168201915b505050505081565b6060611cf982611fbd565b611d38576040517f08c379a0000000000000000000000000000000000000000000000000000000008152600401611d2f90613c18565b60405180910390fd5b6000611d426127c4565b9050601460029054906101000a900460ff16611de657600c8054611d6590613703565b80601f0160208091040260200160405190810160405280929190818152602001828054611d9190613703565b8015611dde5780601f10611db357610100808354040283529160200191611dde565b820191906000526020600020905b815481529060010190602001808311611dc157829003601f168201915b505050505090505b6000815111611e045760405180602001604052806000815250611e32565b80611e0e84612856565b600a604051602001611e2293929190613d08565b6040516020818303038152906040525b915050919050565b601460019054906101000a900460ff1681565b6060611e576127c4565b905090565b611e64612024565b80601460026101000a81548160ff02191690831515021790555050565b6000600860008473ffffffffffffffffffffffffffffffffffffffff1673ffffffffffffffffffffffffffffffffffffffff16815260200190815260200160002060008373ffffffffffffffffffffffffffffffffffffffff1673ffffffffffffffffffffffffffffffffffffffff16815260200190815260200160002060009054906101000a900460ff16905092915050565b611f1d612024565b600073ffffffffffffffffffffffffffffffffffffffff168173ffffffffffffffffffffffffffffffffffffffff1603611f8c576040517f08c379a0000000000000000000000000000000000000000000000000000000008152600401611f8390613dab565b60405180910390fd5b611f95816124d1565b50565b611fa0612024565b80601460016101000a81548160ff02191690831515021790555050565b600081611fc86120a2565b11158015611fd7575060015482105b8015612015575060007c0100000000000000000000000000000000000000000000000000000000600560008581526020019081526020016000205416145b9050919050565b600033905090565b61202c612924565b73ffffffffffffffffffffffffffffffffffffffff1661204a6114e5565b73ffffffffffffffffffffffffffffffffffffffff16146120a0576040517f08c379a000000000000000000000000000000000000000000000000000000000815260040161209790613e17565b60405180910390fd5b565b60006101f5905090565b60006120b7826123ee565b90508373ffffffffffffffffffffffffffffffffffffffff168173ffffffffffffffffffffffffffffffffffffffff161461211e576040517fa114810000000000000000000000000000000000000000000000000000000000815260040160405180910390fd5b60008061212a8461292c565b91509150612140818761213b61201c565b612953565b61218c576121558661215061201c565b611e81565b61218b576040517f59c896be00000000000000000000000000000000000000000000000000000000815260040160405180910390fd5b5b600073ffffffffffffffffffffffffffffffffffffffff168573ffffffffffffffffffffffffffffffffffffffff16036121f2576040517fea553b3400000000000000000000000000000000000000000000000000000000815260040160405180910390fd5b6121ff8686866001612997565b801561220a57600082555b600660008773ffffffffffffffffffffffffffffffffffffffff1673ffffffffffffffffffffffffffffffffffffffff168152602001908152602001600020600081546001900391905081905550600660008673ffffffffffffffffffffffffffffffffffffffff1673ffffffffffffffffffffffffffffffffffffffff16815260200190815260200160002060008154600101919050819055506122d8856122b488888761299d565b7c0200000000000000000000000000000000000000000000000000000000176129c5565b600560008681526020019081526020016000208190555060007c020000000000000000000000000000000000000000000000000000000084160361235e576000600185019050600060056000838152602001908152602001600020540361235c57600154811461235b578360056000838152602001908152602001600020819055505b5b505b838573ffffffffffffffffffffffffffffffffffffffff168773ffffffffffffffffffffffffffffffffffffffff167fddf252ad1be2c89b69c2b068fc378daa952ba7f163c4a11628f55a4df523b3ef60405160405180910390a46123c686868660016129f0565b505050505050565b6123e9838383604051806020016040528060008152506117b8565b505050565b600080829050806123fd6120a2565b11612483576001548110156124825760006005600083815260200190815260200160002054905060007c0100000000000000000000000000000000000000000000000000000000821603612480575b6000810361247657600560008360019003935083815260200190815260200160002054905061244c565b80925050506124b5565b505b5b6040517fdf2d9b4200000000000000000000000000000000000000000000000000000000815260040160405180910390fd5b919050565b6000826124c785846129f6565b1490509392505050565b60008060009054906101000a900473ffffffffffffffffffffffffffffffffffffffff169050816000806101000a81548173ffffffffffffffffffffffffffffffffffffffff021916908373ffffffffffffffffffffffffffffffffffffffff1602179055508173ffffffffffffffffffffffffffffffffffffffff168173ffffffffffffffffffffffffffffffffffffffff167f8be0079c531659141344cd1fd0a4f28419497f9722a3daafe3b4186f6b6457e060405160405180910390a35050565b60006001549050600082036125d6576040517fb562e8dd00000000000000000000000000000000000000000000000000000000815260040160405180910390fd5b6125e36000848385612997565b600160406001901b178202600660008573ffffffffffffffffffffffffffffffffffffffff1673ffffffffffffffffffffffffffffffffffffffff1681526020019081526020016000206000828254019250508190555061265a8361264b600086600061299d565b61265485612a4c565b176129c5565b6005600083815260200190815260200160002081905550600080838301905073ffffffffffffffffffffffffffffffffffffffff85169150828260007fddf252ad1be2c89b69c2b068fc378daa952ba7f163c4a11628f55a4df523b3ef600080a4600183015b8181146126fb57808360007fddf252ad1be2c89b69c2b068fc378daa952ba7f163c4a11628f55a4df523b3ef600080a46001810190506126c0565b5060008203612736576040517f2e07630000000000000000000000000000000000000000000000000000000000815260040160405180910390fd5b80600181905550505061274c60008483856129f0565b505050565b61275c848484610dd1565b60008373ffffffffffffffffffffffffffffffffffffffff163b146127be5761278784848484612a5c565b6127bd576040517fd1a57ed600000000000000000000000000000000000000000000000000000000815260040160405180910390fd5b5b50505050565b6060600b80546127d390613703565b80601f01602080910402602001604051908101604052809291908181526020018280546127ff90613703565b801561284c5780601f106128215761010080835404028352916020019161284c565b820191906000526020600020905b81548152906001019060200180831161282f57829003601f168201915b5050505050905090565b60606000600161286584612bac565b01905060008167ffffffffffffffff811115612884576128836131b1565b5b6040519080825280601f01601f1916602001820160405280156128b65781602001600182028036833780820191505090505b509050600082602001820190505b600115612919578080600190039150507f3031323334353637383961626364656600000000000000000000000000000000600a86061a8153600a858161290d5761290c613e37565b5b049450600085036128c4575b819350505050919050565b600033905090565b60008060006007600085815260200190815260200160002090508092508254915050915091565b600073ffffffffffffffffffffffffffffffffffffffff8316925073ffffffffffffffffffffffffffffffffffffffff821691508382148383141790509392505050565b50505050565b60008060e883901c905060e86129b4868684612cff565b62ffffff16901b9150509392505050565b600073ffffffffffffffffffffffffffffffffffffffff83169250814260a01b178317905092915050565b50505050565b60008082905060005b8451811015612a4157612a2c82868381518110612a1f57612a1e613e66565b5b6020026020010151612d08565b91508080612a3990613e95565b9150506129ff565b508091505092915050565b60006001821460e11b9050919050565b60008373ffffffffffffffffffffffffffffffffffffffff1663150b7a02612a8261201c565b8786866040518563ffffffff1660e01b8152600401612aa49493929190613f32565b6020604051808303816000875af1925050508015612ae057506040513d601f19601f82011682018060405250810190612add9190613f93565b60015b612b59573d8060008114612b10576040519150601f19603f3d011682016040523d82523d6000602084013e612b15565b606091505b506000815103612b51576040517fd1a57ed600000000000000000000000000000000000000000000000000000000815260040160405180910390fd5b805181602001fd5b63150b7a0260e01b7bffffffffffffffffffffffffffffffffffffffffffffffffffffffff1916817bffffffffffffffffffffffffffffffffffffffffffffffffffffffff191614915050949350505050565b600080600090507a184f03e93ff9f4daa797ed6e38ed64bf6a1f0100000000000000008310612c0a577a184f03e93ff9f4daa797ed6e38ed64bf6a1f0100000000000000008381612c0057612bff613e37565b5b0492506040810190505b6d04ee2d6d415b85acef81000000008310612c47576d04ee2d6d415b85acef81000000008381612c3d57612c3c613e37565b5b0492506020810190505b662386f26fc100008310612c7657662386f26fc100008381612c6c57612c6b613e37565b5b0492506010810190505b6305f5e1008310612c9f576305f5e1008381612c9557612c94613e37565b5b0492506008810190505b6127108310612cc4576127108381612cba57612cb9613e37565b5b0492506004810190505b60648310612ce75760648381612cdd57612cdc613e37565b5b0492506002810190505b600a8310612cf6576001810190505b80915050919050565b60009392505050565b6000818310612d2057612d1b8284612d33565b612d2b565b612d2a8383612d33565b5b905092915050565b600082600052816020526040600020905092915050565b828054612d5690613703565b90600052602060002090601f016020900481019282612d785760008555612dbf565b82601f10612d9157805160ff1916838001178555612dbf565b82800160010185558215612dbf579182015b82811115612dbe578251825591602001919060010190612da3565b5b509050612dcc9190612dd0565b5090565b5b80821115612de9576000816000905550600101612dd1565b5090565b6000604051905090565b600080fd5b600080fd5b60007fffffffff0000000000000000000000000000000000000000000000000000000082169050919050565b612e3681612e01565b8114612e4157600080fd5b50565b600081359050612e5381612e2d565b92915050565b600060208284031215612e6f57612e6e612df7565b5b6000612e7d84828501612e44565b91505092915050565b60008115159050919050565b612e9b81612e86565b82525050565b6000602082019050612eb66000830184612e92565b92915050565b600081519050919050565b600082825260208201905092915050565b60005b83811015612ef6578082015181840152602081019050612edb565b83811115612f05576000848401525b50505050565b6000601f19601f8301169050919050565b6000612f2782612ebc565b612f318185612ec7565b9350612f41818560208601612ed8565b612f4a81612f0b565b840191505092915050565b60006020820190508181036000830152612f6f8184612f1c565b905092915050565b6000819050919050565b612f8a81612f77565b8114612f9557600080fd5b50565b600081359050612fa781612f81565b92915050565b600060208284031215612fc357612fc2612df7565b5b6000612fd184828501612f98565b91505092915050565b600073ffffffffffffffffffffffffffffffffffffffff82169050919050565b600061300582612fda565b9050919050565b61301581612ffa565b82525050565b6000602082019050613030600083018461300c565b92915050565b61303f81612ffa565b811461304a57600080fd5b50565b60008135905061305c81613036565b92915050565b6000806040838503121561307957613078612df7565b5b60006130878582860161304d565b925050602061309885828601612f98565b9150509250929050565b6130ab81612f77565b82525050565b60006020820190506130c660008301846130a2565b92915050565b6000806000606084860312156130e5576130e4612df7565b5b60006130f38682870161304d565b93505060206131048682870161304d565b925050604061311586828701612f98565b9150509250925092565b6000819050919050565b6131328161311f565b811461313d57600080fd5b50565b60008135905061314f81613129565b92915050565b60006020828403121561316b5761316a612df7565b5b600061317984828501613140565b91505092915050565b61318b8161311f565b82525050565b60006020820190506131a66000830184613182565b92915050565b600080fd5b7f4e487b7100000000000000000000000000000000000000000000000000000000600052604160045260246000fd5b6131e982612f0b565b810181811067ffffffffffffffff82111715613208576132076131b1565b5b80604052505050565b600061321b612ded565b905061322782826131e0565b919050565b600067ffffffffffffffff821115613247576132466131b1565b5b602082029050602081019050919050565b600080fd5b600061327061326b8461322c565b613211565b9050808382526020820190506020840283018581111561329357613292613258565b5b835b818110156132bc57806132a88882613140565b845260208401935050602081019050613295565b5050509392505050565b600082601f8301126132db576132da6131ac565b5b81356132eb84826020860161325d565b91505092915050565b6000806040838503121561330b5761330a612df7565b5b600083013567ffffffffffffffff81111561332957613328612dfc565b5b613335858286016132c6565b925050602061334685828601613140565b9150509250929050565b60006020828403121561336657613365612df7565b5b60006133748482850161304d565b91505092915050565b61338681612e86565b811461339157600080fd5b50565b6000813590506133a38161337d565b92915050565b6000602082840312156133bf576133be612df7565b5b60006133cd84828501613394565b91505092915050565b600080fd5b600067ffffffffffffffff8211156133f6576133f56131b1565b5b6133ff82612f0b565b9050602081019050919050565b82818337600083830152505050565b600061342e613429846133db565b613211565b90508281526020810184848401111561344a576134496133d6565b5b61345584828561340c565b509392505050565b600082601f830112613472576134716131ac565b5b813561348284826020860161341b565b91505092915050565b6000602082840312156134a1576134a0612df7565b5b600082013567ffffffffffffffff8111156134bf576134be612dfc565b5b6134cb8482850161345d565b91505092915050565b600080604083850312156134eb576134ea612df7565b5b60006134f98582860161304d565b925050602061350a85828601613394565b9150509250929050565b600067ffffffffffffffff82111561352f5761352e6131b1565b5b61353882612f0b565b9050602081019050919050565b600061355861355384613514565b613211565b905082815260208101848484011115613574576135736133d6565b5b61357f84828561340c565b509392505050565b600082601f83011261359c5761359b6131ac565b5b81356135ac848260208601613545565b91505092915050565b600080600080608085870312156135cf576135ce612df7565b5b60006135dd8782880161304d565b94505060206135ee8782880161304d565b93505060406135ff87828801612f98565b925050606085013567ffffffffffffffff8111156136205761361f612dfc565b5b61362c87828801613587565b91505092959194509250565b6000806040838503121561364f5761364e612df7565b5b600061365d85828601612f98565b925050602083013567ffffffffffffffff81111561367e5761367d612dfc565b5b61368a858286016132c6565b9150509250929050565b600080604083850312156136ab576136aa612df7565b5b60006136b98582860161304d565b92505060206136ca8582860161304d565b9150509250929050565b7f4e487b7100000000000000000000000000000000000000000000000000000000600052602260045260246000fd5b6000600282049050600182168061371b57607f821691505b60208210810361372e5761372d6136d4565b5b50919050565b6000604082019050613749600083018561300c565b613756602083018461300c565b9392505050565b60008151905061376c8161337d565b92915050565b60006020828403121561378857613787612df7565b5b60006137968482850161375d565b91505092915050565b7f4e487b7100000000000000000000000000000000000000000000000000000000600052601160045260246000fd5b60006137d982612f77565b91506137e483612f77565b9250827fffffffffffffffffffffffffffffffffffffffffffffffffffffffffffffffff038211156138195761381861379f565b5b828201905092915050565b7f43616e2774206d696e74206d6f7265207468616e20746f74616c20737570706c60008201527f7900000000000000000000000000000000000000000000000000000000000000602082015250565b6000613880602183612ec7565b915061388b82613824565b604082019050919050565b600060208201905081810360008301526138af81613873565b9050919050565b7f4d696e74696e67206973206e6f7420656e61626c656400000000000000000000600082015250565b60006138ec601683612ec7565b91506138f7826138b6565b602082019050919050565b6000602082019050818103600083015261391b816138df565b9050919050565b60008160601b9050919050565b600061393a82613922565b9050919050565b600061394c8261392f565b9050919050565b61396461395f82612ffa565b613941565b82525050565b60006139768284613953565b60148201915081905092915050565b7f596f7520617265206e6f742077686974656c6973746564000000000000000000600082015250565b60006139bb601783612ec7565b91506139c682613985565b602082019050919050565b600060208201905081810360008301526139ea816139ae565b9050919050565b7f456163682061646472657373206d6179206f6e6c79206d696e742078204e465460008201527f7321000000000000000000000000000000000000000000000000000000000000602082015250565b6000613a4d602283612ec7565b9150613a58826139f1565b604082019050919050565b60006020820190508181036000830152613a7c81613a40565b9050919050565b6000613a8e82612f77565b9150613a9983612f77565b9250817fffffffffffffffffffffffffffffffffffffffffffffffffffffffffffffffff0483118215151615613ad257613ad161379f565b5b828202905092915050565b7f4e6f7420656e6f756768204554482073656e743b20636865636b20707269636560008201527f2100000000000000000000000000000000000000000000000000000000000000602082015250565b6000613b39602183612ec7565b9150613b4482613add565b604082019050919050565b60006020820190508181036000830152613b6881613b2c565b9050919050565b6000606082019050613b84600083018661300c565b613b9160208301856130a2565b613b9e60408301846130a2565b949350505050565b7f4552433732314d657461646174613a2055524920717565727920666f72206e6f60008201527f6e6578697374656e7420746f6b656e0000000000000000000000000000000000602082015250565b6000613c02602f83612ec7565b9150613c0d82613ba6565b604082019050919050565b60006020820190508181036000830152613c3181613bf5565b9050919050565b600081905092915050565b6000613c4e82612ebc565b613c588185613c38565b9350613c68818560208601612ed8565b80840191505092915050565b60008190508160005260206000209050919050565b60008154613c9681613703565b613ca08186613c38565b94506001821660008114613cbb5760018114613ccc57613cff565b60ff19831686528186019350613cff565b613cd585613c74565b60005b83811015613cf757815481890152600182019150602081019050613cd8565b838801955050505b50505092915050565b6000613d148286613c43565b9150613d208285613c43565b9150613d2c8284613c89565b9150819050949350505050565b7f4f776e61626c653a206e6577206f776e657220697320746865207a65726f206160008201527f6464726573730000000000000000000000000000000000000000000000000000602082015250565b6000613d95602683612ec7565b9150613da082613d39565b604082019050919050565b60006020820190508181036000830152613dc481613d88565b9050919050565b7f4f776e61626c653a2063616c6c6572206973206e6f7420746865206f776e6572600082015250565b6000613e01602083612ec7565b9150613e0c82613dcb565b602082019050919050565b60006020820190508181036000830152613e3081613df4565b9050919050565b7f4e487b7100000000000000000000000000000000000000000000000000000000600052601260045260246000fd5b7f4e487b7100000000000000000000000000000000000000000000000000000000600052603260045260246000fd5b6000613ea082612f77565b91507fffffffffffffffffffffffffffffffffffffffffffffffffffffffffffffffff8203613ed257613ed161379f565b5b600182019050919050565b600081519050919050565b600082825260208201905092915050565b6000613f0482613edd565b613f0e8185613ee8565b9350613f1e818560208601612ed8565b613f2781612f0b565b840191505092915050565b6000608082019050613f47600083018761300c565b613f54602083018661300c565b613f6160408301856130a2565b8181036060830152613f738184613ef9565b905095945050505050565b600081519050613f8d81612e2d565b92915050565b600060208284031215613fa957613fa8612df7565b5b6000613fb784828501613f7e565b9150509291505056fea2646970667358221220348dbf713d7c567e4c8963d179afe96f167984cf5054228f5587e77bf4421f4c64736f6c634300080d0033697066733a2f2f62616679626569683632377036706679756d36767a72646c7a666c69667869746c6637767a726234746d6a34753765696c67707a786e7437656f692f",
  "linkReferences": {},
  "deployedLinkReferences": {}
}