{
  "_format": "hh-sol-artifact-1",
  "contractName": "NFT",
  "sourceName": "src/backend/contracts/NFT.sol",
  "abi": [
    {
      "inputs": [
        {
          "internalType": "address",
          "name": "_ownerAddress",
          "type": "address"
        },
        {
          "internalType": "bytes32",
          "name": "_allowListRoot",
          "type": "bytes32"
        },
        {
          "internalType": "bytes32",
          "name": "_primeListRoot",
          "type": "bytes32"
        }
      ],
      "stateMutability": "nonpayable",
      "type": "constructor"
    },
    {
      "inputs": [],
      "name": "ApprovalCallerNotOwnerNorApproved",
      "type": "error"
    },
    {
      "inputs": [],
      "name": "ApprovalQueryForNonexistentToken",
      "type": "error"
    },
    {
      "inputs": [],
      "name": "BalanceQueryForZeroAddress",
      "type": "error"
    },
    {
      "inputs": [],
      "name": "MintERC2309QuantityExceedsLimit",
      "type": "error"
    },
    {
      "inputs": [],
      "name": "MintToZeroAddress",
      "type": "error"
    },
    {
      "inputs": [],
      "name": "MintZeroQuantity",
      "type": "error"
    },
    {
      "inputs": [
        {
          "internalType": "address",
          "name": "operator",
          "type": "address"
        }
      ],
      "name": "OperatorNotAllowed",
      "type": "error"
    },
    {
      "inputs": [],
      "name": "OwnerQueryForNonexistentToken",
      "type": "error"
    },
    {
      "inputs": [],
      "name": "OwnershipNotInitializedForExtraData",
      "type": "error"
    },
    {
      "inputs": [],
      "name": "TransferCallerNotOwnerNorApproved",
      "type": "error"
    },
    {
      "inputs": [],
      "name": "TransferFromIncorrectOwner",
      "type": "error"
    },
    {
      "inputs": [],
      "name": "TransferToNonERC721ReceiverImplementer",
      "type": "error"
    },
    {
      "inputs": [],
      "name": "TransferToZeroAddress",
      "type": "error"
    },
    {
      "inputs": [],
      "name": "URIQueryForNonexistentToken",
      "type": "error"
    },
    {
      "anonymous": false,
      "inputs": [
        {
          "indexed": true,
          "internalType": "address",
          "name": "owner",
          "type": "address"
        },
        {
          "indexed": true,
          "internalType": "address",
          "name": "approved",
          "type": "address"
        },
        {
          "indexed": true,
          "internalType": "uint256",
          "name": "tokenId",
          "type": "uint256"
        }
      ],
      "name": "Approval",
      "type": "event"
    },
    {
      "anonymous": false,
      "inputs": [
        {
          "indexed": true,
          "internalType": "address",
          "name": "owner",
          "type": "address"
        },
        {
          "indexed": true,
          "internalType": "address",
          "name": "operator",
          "type": "address"
        },
        {
          "indexed": false,
          "internalType": "bool",
          "name": "approved",
          "type": "bool"
        }
      ],
      "name": "ApprovalForAll",
      "type": "event"
    },
    {
      "anonymous": false,
      "inputs": [
        {
          "indexed": true,
          "internalType": "uint256",
          "name": "fromTokenId",
          "type": "uint256"
        },
        {
          "indexed": false,
          "internalType": "uint256",
          "name": "toTokenId",
          "type": "uint256"
        },
        {
          "indexed": true,
          "internalType": "address",
          "name": "from",
          "type": "address"
        },
        {
          "indexed": true,
          "internalType": "address",
          "name": "to",
          "type": "address"
        }
      ],
      "name": "ConsecutiveTransfer",
      "type": "event"
    },
    {
      "anonymous": false,
      "inputs": [
        {
          "indexed": false,
          "internalType": "address",
          "name": "user",
          "type": "address"
        },
        {
          "indexed": false,
          "internalType": "uint256",
          "name": "totalSupplyBeforeMint",
          "type": "uint256"
        },
        {
          "indexed": false,
          "internalType": "uint256",
          "name": "_quantity",
          "type": "uint256"
        }
      ],
      "name": "MintSuccessful",
      "type": "event"
    },
    {
      "anonymous": false,
      "inputs": [
        {
          "indexed": true,
          "internalType": "address",
          "name": "previousOwner",
          "type": "address"
        },
        {
          "indexed": true,
          "internalType": "address",
          "name": "newOwner",
          "type": "address"
        }
      ],
      "name": "OwnershipTransferred",
      "type": "event"
    },
    {
      "anonymous": false,
      "inputs": [
        {
          "indexed": true,
          "internalType": "address",
          "name": "from",
          "type": "address"
        },
        {
          "indexed": true,
          "internalType": "address",
          "name": "to",
          "type": "address"
        },
        {
          "indexed": true,
          "internalType": "uint256",
          "name": "tokenId",
          "type": "uint256"
        }
      ],
      "name": "Transfer",
      "type": "event"
    },
    {
      "inputs": [
        {
          "internalType": "address",
          "name": "_user",
          "type": "address"
        },
        {
          "internalType": "uint256",
          "name": "_quantity",
          "type": "uint256"
        }
      ],
      "name": "airdrop",
      "outputs": [],
      "stateMutability": "nonpayable",
      "type": "function"
    },
    {
      "inputs": [],
      "name": "allowListRoot",
      "outputs": [
        {
          "internalType": "bytes32",
          "name": "",
          "type": "bytes32"
        }
      ],
      "stateMutability": "view",
      "type": "function"
    },
    {
      "inputs": [],
      "name": "amountMintPerAccount",
      "outputs": [
        {
          "internalType": "uint256",
          "name": "",
          "type": "uint256"
        }
      ],
      "stateMutability": "view",
      "type": "function"
    },
    {
      "inputs": [],
      "name": "amountMintPerAccountPrimeList",
      "outputs": [
        {
          "internalType": "uint256",
          "name": "",
          "type": "uint256"
        }
      ],
      "stateMutability": "view",
      "type": "function"
    },
    {
      "inputs": [
        {
          "internalType": "address",
          "name": "to",
          "type": "address"
        },
        {
          "internalType": "uint256",
          "name": "tokenId",
          "type": "uint256"
        }
      ],
      "name": "approve",
      "outputs": [],
      "stateMutability": "payable",
      "type": "function"
    },
    {
      "inputs": [
        {
          "internalType": "address",
          "name": "owner",
          "type": "address"
        }
      ],
      "name": "balanceOf",
      "outputs": [
        {
          "internalType": "uint256",
          "name": "",
          "type": "uint256"
        }
      ],
      "stateMutability": "view",
      "type": "function"
    },
    {
      "inputs": [],
      "name": "baseTokenURI",
      "outputs": [
        {
          "internalType": "string",
          "name": "",
          "type": "string"
        }
      ],
      "stateMutability": "view",
      "type": "function"
    },
    {
      "inputs": [],
      "name": "baseUri",
      "outputs": [
        {
          "internalType": "string",
          "name": "",
          "type": "string"
        }
      ],
      "stateMutability": "view",
      "type": "function"
    },
    {
      "inputs": [
        {
          "internalType": "uint256",
          "name": "tokenId",
          "type": "uint256"
        }
      ],
      "name": "getApproved",
      "outputs": [
        {
          "internalType": "address",
          "name": "",
          "type": "address"
        }
      ],
      "stateMutability": "view",
      "type": "function"
    },
    {
      "inputs": [
        {
          "internalType": "address",
          "name": "owner",
          "type": "address"
        },
        {
          "internalType": "address",
          "name": "operator",
          "type": "address"
        }
      ],
      "name": "isApprovedForAll",
      "outputs": [
        {
          "internalType": "bool",
          "name": "",
          "type": "bool"
        }
      ],
      "stateMutability": "view",
      "type": "function"
    },
    {
      "inputs": [
        {
          "internalType": "bytes32[]",
          "name": "_proof",
          "type": "bytes32[]"
        },
        {
          "internalType": "bytes32",
          "name": "_leaf",
          "type": "bytes32"
        }
      ],
      "name": "isValidAllowList",
      "outputs": [
        {
          "internalType": "bool",
          "name": "",
          "type": "bool"
        }
      ],
      "stateMutability": "view",
      "type": "function"
    },
    {
      "inputs": [
        {
          "internalType": "bytes32[]",
          "name": "_proof",
          "type": "bytes32[]"
        },
        {
          "internalType": "bytes32",
          "name": "_leaf",
          "type": "bytes32"
        }
      ],
      "name": "isValidPrimeList",
      "outputs": [
        {
          "internalType": "bool",
          "name": "",
          "type": "bool"
        }
      ],
      "stateMutability": "view",
      "type": "function"
    },
    {
      "inputs": [],
      "name": "max_supply",
      "outputs": [
        {
          "internalType": "uint256",
          "name": "",
          "type": "uint256"
        }
      ],
      "stateMutability": "view",
      "type": "function"
    },
    {
      "inputs": [
        {
          "internalType": "uint256",
          "name": "_quantity",
          "type": "uint256"
        },
        {
          "internalType": "bytes32[]",
          "name": "_proof",
          "type": "bytes32[]"
        }
      ],
      "name": "mint",
      "outputs": [],
      "stateMutability": "payable",
      "type": "function"
    },
    {
      "inputs": [],
      "name": "mintEnabled",
      "outputs": [
        {
          "internalType": "bool",
          "name": "",
          "type": "bool"
        }
      ],
      "stateMutability": "view",
      "type": "function"
    },
    {
      "inputs": [],
      "name": "name",
      "outputs": [
        {
          "internalType": "string",
          "name": "",
          "type": "string"
        }
      ],
      "stateMutability": "view",
      "type": "function"
    },
    {
      "inputs": [],
      "name": "owner",
      "outputs": [
        {
          "internalType": "address",
          "name": "",
          "type": "address"
        }
      ],
      "stateMutability": "view",
      "type": "function"
    },
    {
      "inputs": [
        {
          "internalType": "uint256",
          "name": "tokenId",
          "type": "uint256"
        }
      ],
      "name": "ownerOf",
      "outputs": [
        {
          "internalType": "address",
          "name": "",
          "type": "address"
        }
      ],
      "stateMutability": "view",
      "type": "function"
    },
    {
      "inputs": [],
      "name": "price",
      "outputs": [
        {
          "internalType": "uint256",
          "name": "",
          "type": "uint256"
        }
      ],
      "stateMutability": "view",
      "type": "function"
    },
    {
      "inputs": [],
      "name": "pricePrimeList",
      "outputs": [
        {
          "internalType": "uint256",
          "name": "",
          "type": "uint256"
        }
      ],
      "stateMutability": "view",
      "type": "function"
    },
    {
      "inputs": [],
      "name": "primeListRoot",
      "outputs": [
        {
          "internalType": "bytes32",
          "name": "",
          "type": "bytes32"
        }
      ],
      "stateMutability": "view",
      "type": "function"
    },
    {
      "inputs": [],
      "name": "publicSaleEnabled",
      "outputs": [
        {
          "internalType": "bool",
          "name": "",
          "type": "bool"
        }
      ],
      "stateMutability": "view",
      "type": "function"
    },
    {
      "inputs": [],
      "name": "renounceOwnership",
      "outputs": [],
      "stateMutability": "nonpayable",
      "type": "function"
    },
    {
      "inputs": [],
      "name": "revealed",
      "outputs": [
        {
          "internalType": "bool",
          "name": "",
          "type": "bool"
        }
      ],
      "stateMutability": "view",
      "type": "function"
    },
    {
      "inputs": [
        {
          "internalType": "address",
          "name": "from",
          "type": "address"
        },
        {
          "internalType": "address",
          "name": "to",
          "type": "address"
        },
        {
          "internalType": "uint256",
          "name": "tokenId",
          "type": "uint256"
        }
      ],
      "name": "safeTransferFrom",
      "outputs": [],
      "stateMutability": "payable",
      "type": "function"
    },
    {
      "inputs": [
        {
          "internalType": "address",
          "name": "from",
          "type": "address"
        },
        {
          "internalType": "address",
          "name": "to",
          "type": "address"
        },
        {
          "internalType": "uint256",
          "name": "tokenId",
          "type": "uint256"
        },
        {
          "internalType": "bytes",
          "name": "data",
          "type": "bytes"
        }
      ],
      "name": "safeTransferFrom",
      "outputs": [],
      "stateMutability": "payable",
      "type": "function"
    },
    {
      "inputs": [
        {
          "internalType": "bytes32",
          "name": "_allowListRoot",
          "type": "bytes32"
        }
      ],
      "name": "setAllowListRoot",
      "outputs": [],
      "stateMutability": "nonpayable",
      "type": "function"
    },
    {
      "inputs": [
        {
          "internalType": "uint256",
          "name": "_amountMintPerAccount",
          "type": "uint256"
        }
      ],
      "name": "setAmountMintPerAccount",
      "outputs": [],
      "stateMutability": "nonpayable",
      "type": "function"
    },
    {
      "inputs": [
        {
          "internalType": "address",
          "name": "operator",
          "type": "address"
        },
        {
          "internalType": "bool",
          "name": "approved",
          "type": "bool"
        }
      ],
      "name": "setApprovalForAll",
      "outputs": [],
      "stateMutability": "nonpayable",
      "type": "function"
    },
    {
      "inputs": [
        {
          "internalType": "string",
          "name": "_uri",
          "type": "string"
        }
      ],
      "name": "setBaseUri",
      "outputs": [],
      "stateMutability": "nonpayable",
      "type": "function"
    },
    {
      "inputs": [
        {
          "internalType": "uint256",
          "name": "_max_supply",
          "type": "uint256"
        }
      ],
      "name": "setMaxSupply",
      "outputs": [],
      "stateMutability": "nonpayable",
      "type": "function"
    },
    {
      "inputs": [
        {
          "internalType": "bool",
          "name": "_state",
          "type": "bool"
        }
      ],
      "name": "setMintEnabled",
      "outputs": [],
      "stateMutability": "nonpayable",
      "type": "function"
    },
    {
      "inputs": [
        {
          "internalType": "uint256",
          "name": "_price",
          "type": "uint256"
        }
      ],
      "name": "setPrice",
      "outputs": [],
      "stateMutability": "nonpayable",
      "type": "function"
    },
    {
      "inputs": [
        {
          "internalType": "uint256",
          "name": "_price",
          "type": "uint256"
        }
      ],
      "name": "setPricePrimeList",
      "outputs": [],
      "stateMutability": "nonpayable",
      "type": "function"
    },
    {
      "inputs": [
        {
          "internalType": "bytes32",
          "name": "_primeListRoot",
          "type": "bytes32"
        }
      ],
      "name": "setPrimeListRoot",
      "outputs": [],
      "stateMutability": "nonpayable",
      "type": "function"
    },
    {
      "inputs": [
        {
          "internalType": "bool",
          "name": "_state",
          "type": "bool"
        }
      ],
      "name": "setPublicSaleEnabled",
      "outputs": [],
      "stateMutability": "nonpayable",
      "type": "function"
    },
    {
      "inputs": [
        {
          "internalType": "bool",
          "name": "_state",
          "type": "bool"
        }
      ],
      "name": "setRevealed",
      "outputs": [],
      "stateMutability": "nonpayable",
      "type": "function"
    },
    {
      "inputs": [
        {
          "internalType": "string",
          "name": "_uri",
          "type": "string"
        }
      ],
      "name": "setUnrevealedUri",
      "outputs": [],
      "stateMutability": "nonpayable",
      "type": "function"
    },
    {
      "inputs": [
        {
          "internalType": "bytes4",
          "name": "interfaceId",
          "type": "bytes4"
        }
      ],
      "name": "supportsInterface",
      "outputs": [
        {
          "internalType": "bool",
          "name": "",
          "type": "bool"
        }
      ],
      "stateMutability": "view",
      "type": "function"
    },
    {
      "inputs": [],
      "name": "symbol",
      "outputs": [
        {
          "internalType": "string",
          "name": "",
          "type": "string"
        }
      ],
      "stateMutability": "view",
      "type": "function"
    },
    {
      "inputs": [
        {
          "internalType": "uint256",
          "name": "_tokenId",
          "type": "uint256"
        }
      ],
      "name": "tokenURI",
      "outputs": [
        {
          "internalType": "string",
          "name": "",
          "type": "string"
        }
      ],
      "stateMutability": "view",
      "type": "function"
    },
    {
      "inputs": [],
      "name": "totalSupply",
      "outputs": [
        {
          "internalType": "uint256",
          "name": "",
          "type": "uint256"
        }
      ],
      "stateMutability": "view",
      "type": "function"
    },
    {
      "inputs": [
        {
          "internalType": "address",
          "name": "from",
          "type": "address"
        },
        {
          "internalType": "address",
          "name": "to",
          "type": "address"
        },
        {
          "internalType": "uint256",
          "name": "tokenId",
          "type": "uint256"
        }
      ],
      "name": "transferFrom",
      "outputs": [],
      "stateMutability": "payable",
      "type": "function"
    },
    {
      "inputs": [
        {
          "internalType": "address",
          "name": "newOwner",
          "type": "address"
        }
      ],
      "name": "transferOwnership",
      "outputs": [],
      "stateMutability": "nonpayable",
      "type": "function"
    },
    {
      "inputs": [],
      "name": "unrevealedUri",
      "outputs": [
        {
          "internalType": "string",
          "name": "",
          "type": "string"
        }
      ],
      "stateMutability": "view",
      "type": "function"
    },
    {
      "inputs": [],
      "name": "uriPrefix",
      "outputs": [
        {
          "internalType": "string",
          "name": "",
          "type": "string"
        }
      ],
      "stateMutability": "view",
      "type": "function"
    },
    {
      "inputs": [],
      "name": "uriSuffix",
      "outputs": [
        {
          "internalType": "string",
          "name": "",
          "type": "string"
        }
      ],
      "stateMutability": "view",
      "type": "function"
    },
    {
      "inputs": [],
      "name": "withdraw",
      "outputs": [],
      "stateMutability": "nonpayable",
      "type": "function"
    }
  ],
  "bytecode": "0x608060405260405180602001604052806000815250600990805190602001906200002b9291906200050f565b506040518060400160405280600581526020017f2e6a736f6e000000000000000000000000000000000000000000000000000000815250600a9080519060200190620000799291906200050f565b5060405180602001604052806000815250600b9080519060200190620000a19291906200050f565b506040518060800160405280604281526020016200478a60429139600c9080519060200190620000d39291906200050f565b50610fa0600d556005600e55600a600f556658d15e176280006010556654607fc96a60006011553480156200010757600080fd5b50604051620047cc380380620047cc83398181016040528101906200012d919062000664565b733cc6cdda760b79bafa08df41ecfa224f810dceb660016040518060400160405280601581526020017f4d7973746963204d6f746f7273204f6c796d70757300000000000000000000008152506040518060400160405280600681526020017f4d59535449430000000000000000000000000000000000000000000000000000815250620001d0620001c46200043960201b60201c565b6200044160201b60201c565b8160039080519060200190620001e89291906200050f565b508060049080519060200190620002019291906200050f565b50620002126200050560201b60201c565b600181905550505060006daaeb6d7670e522a718067333cd4e73ffffffffffffffffffffffffffffffffffffffff163b11156200040f578015620002d5576daaeb6d7670e522a718067333cd4e73ffffffffffffffffffffffffffffffffffffffff16637d3e3dbe30846040518363ffffffff1660e01b81526004016200029b929190620006d1565b600060405180830381600087803b158015620002b657600080fd5b505af1158015620002cb573d6000803e3d6000fd5b505050506200040e565b600073ffffffffffffffffffffffffffffffffffffffff168273ffffffffffffffffffffffffffffffffffffffff16146200038f576daaeb6d7670e522a718067333cd4e73ffffffffffffffffffffffffffffffffffffffff1663a0af290330846040518363ffffffff1660e01b815260040162000355929190620006d1565b600060405180830381600087803b1580156200037057600080fd5b505af115801562000385573d6000803e3d6000fd5b505050506200040d565b6daaeb6d7670e522a718067333cd4e73ffffffffffffffffffffffffffffffffffffffff16634420e486306040518263ffffffff1660e01b8152600401620003d89190620006fe565b600060405180830381600087803b158015620003f357600080fd5b505af115801562000408573d6000803e3d6000fd5b505050505b5b5b5050816012819055508060138190555062000430836200044160201b60201c565b5050506200077f565b600033905090565b60008060009054906101000a900473ffffffffffffffffffffffffffffffffffffffff169050816000806101000a81548173ffffffffffffffffffffffffffffffffffffffff021916908373ffffffffffffffffffffffffffffffffffffffff1602179055508173ffffffffffffffffffffffffffffffffffffffff168173ffffffffffffffffffffffffffffffffffffffff167f8be0079c531659141344cd1fd0a4f28419497f9722a3daafe3b4186f6b6457e060405160405180910390a35050565b60006101f5905090565b8280546200051d906200074a565b90600052602060002090601f0160209004810192826200054157600085556200058d565b82601f106200055c57805160ff19168380011785556200058d565b828001600101855582156200058d579182015b828111156200058c5782518255916020019190600101906200056f565b5b5090506200059c9190620005a0565b5090565b5b80821115620005bb576000816000905550600101620005a1565b5090565b600080fd5b600073ffffffffffffffffffffffffffffffffffffffff82169050919050565b6000620005f182620005c4565b9050919050565b6200060381620005e4565b81146200060f57600080fd5b50565b6000815190506200062381620005f8565b92915050565b6000819050919050565b6200063e8162000629565b81146200064a57600080fd5b50565b6000815190506200065e8162000633565b92915050565b60008060006060848603121562000680576200067f620005bf565b5b6000620006908682870162000612565b9350506020620006a3868287016200064d565b9250506040620006b6868287016200064d565b9150509250925092565b620006cb81620005e4565b82525050565b6000604082019050620006e86000830185620006c0565b620006f76020830184620006c0565b9392505050565b6000602082019050620007156000830184620006c0565b92915050565b7f4e487b7100000000000000000000000000000000000000000000000000000000600052602260045260246000fd5b600060028204905060018216806200076357607f821691505b6020821081036200077957620007786200071b565b5b50919050565b613ffb806200078f6000396000f3fe6080604052600436106102935760003560e01c80638a333b501161015a578063a827b5ff116100c1578063d12397301161007a578063d12397301461099b578063d547cfb7146109c6578063e0a80853146109f1578063e985e9c514610a1a578063f2fde38b14610a57578063f46a04eb14610a8057610293565b8063a827b5ff146108a7578063b88d4fde146108d2578063ba41b0c6146108ee578063bdeb7a851461090a578063c02c1bcd14610933578063c87b56dd1461095e57610293565b80639abc8320116101135780639abc8320146107975780639d589611146107c2578063a035b1fe146107ed578063a0bcfc7f14610818578063a22cb46514610841578063a2a627bc1461086a57610293565b80638a333b501461069b5780638ba4cc3c146106c65780638da5cb5b146106ef57806390fb5fb91461071a57806391b7f5ed1461074357806395d89b411461076c57610293565b806342842e0e116101fe57806366abb30a116101b757806366abb30a1461058d5780636f8b44b0146105ca57806370a08231146105f3578063715018a61461063057806379ad916d146106475780638720fbef1461067257610293565b806342842e0e146104885780634a4d280e146104a457806351830227146104cf5780635503a0e8146104fa57806362b99ad4146105255780636352211e1461055057610293565b8063112966601161025057806311296660146103ad57806318160ddd146103d657806323b872dd146104015780632ab91bba1461041d5780632f2f771b146104485780633ccfd60b1461047157610293565b806301ffc9a71461029857806306fdde03146102d5578063081812fc14610300578063095ea7b31461033d5780630c9d4c4d146103595780630d2ab6f314610384575b600080fd5b3480156102a457600080fd5b506102bf60048036038101906102ba9190612e5e565b610aa9565b6040516102cc9190612ea6565b60405180910390f35b3480156102e157600080fd5b506102ea610b3b565b6040516102f79190612f5a565b60405180910390f35b34801561030c57600080fd5b5061032760048036038101906103229190612fb2565b610bcd565b6040516103349190613020565b60405180910390f35b61035760048036038101906103529190613067565b610c4c565b005b34801561036557600080fd5b5061036e610d90565b60405161037b91906130b6565b60405180910390f35b34801561039057600080fd5b506103ab60048036038101906103a69190612fb2565b610d96565b005b3480156103b957600080fd5b506103d460048036038101906103cf9190612fb2565b610da8565b005b3480156103e257600080fd5b506103eb610dba565b6040516103f891906130b6565b60405180910390f35b61041b600480360381019061041691906130d1565b610dd1565b005b34801561042957600080fd5b50610432610fb3565b60405161043f9190612ea6565b60405180910390f35b34801561045457600080fd5b5061046f600480360381019061046a919061315a565b610fc6565b005b34801561047d57600080fd5b50610486610fd8565b005b6104a2600480360381019061049d91906130d1565b611029565b005b3480156104b057600080fd5b506104b961120b565b6040516104c69190613196565b60405180910390f35b3480156104db57600080fd5b506104e4611211565b6040516104f19190612ea6565b60405180910390f35b34801561050657600080fd5b5061050f611224565b60405161051c9190612f5a565b60405180910390f35b34801561053157600080fd5b5061053a6112b2565b6040516105479190612f5a565b60405180910390f35b34801561055c57600080fd5b5061057760048036038101906105729190612fb2565b611340565b6040516105849190613020565b60405180910390f35b34801561059957600080fd5b506105b460048036038101906105af91906132f9565b611352565b6040516105c19190612ea6565b60405180910390f35b3480156105d657600080fd5b506105f160048036038101906105ec9190612fb2565b611369565b005b3480156105ff57600080fd5b5061061a60048036038101906106159190613355565b61137b565b60405161062791906130b6565b60405180910390f35b34801561063c57600080fd5b50610645611433565b005b34801561065357600080fd5b5061065c611447565b60405161066991906130b6565b60405180910390f35b34801561067e57600080fd5b50610699600480360381019061069491906133ae565b61144d565b005b3480156106a757600080fd5b506106b0611472565b6040516106bd91906130b6565b60405180910390f35b3480156106d257600080fd5b506106ed60048036038101906106e89190613067565b611478565b005b3480156106fb57600080fd5b506107046114e5565b6040516107119190613020565b60405180910390f35b34801561072657600080fd5b50610741600480360381019061073c9190613490565b61150e565b005b34801561074f57600080fd5b5061076a60048036038101906107659190612fb2565b611530565b005b34801561077857600080fd5b50610781611542565b60405161078e9190612f5a565b60405180910390f35b3480156107a357600080fd5b506107ac6115d4565b6040516107b99190612f5a565b60405180910390f35b3480156107ce57600080fd5b506107d7611662565b6040516107e49190613196565b60405180910390f35b3480156107f957600080fd5b50610802611668565b60405161080f91906130b6565b60405180910390f35b34801561082457600080fd5b5061083f600480360381019061083a9190613490565b61166e565b005b34801561084d57600080fd5b50610868600480360381019061086391906134d9565b611690565b005b34801561087657600080fd5b50610891600480360381019061088c91906132f9565b61179b565b60405161089e9190612ea6565b60405180910390f35b3480156108b357600080fd5b506108bc6117b2565b6040516108c991906130b6565b60405180910390f35b6108ec60048036038101906108e791906135ba565b6117b8565b005b6109086004803603810190610903919061363d565b61199d565b005b34801561091657600080fd5b50610931600480360381019061092c919061315a565b611c4e565b005b34801561093f57600080fd5b50610948611c60565b6040516109559190612f5a565b60405180910390f35b34801561096a57600080fd5b5061098560048036038101906109809190612fb2565b611cee565b6040516109929190612f5a565b60405180910390f35b3480156109a757600080fd5b506109b0611e3f565b6040516109bd9190612ea6565b60405180910390f35b3480156109d257600080fd5b506109db611e52565b6040516109e89190612f5a565b60405180910390f35b3480156109fd57600080fd5b50610a186004803603810190610a1391906133ae565b611e61565b005b348015610a2657600080fd5b50610a416004803603810190610a3c9190613699565b611e86565b604051610a4e9190612ea6565b60405180910390f35b348015610a6357600080fd5b50610a7e6004803603810190610a799190613355565b611f1a565b005b348015610a8c57600080fd5b50610aa76004803603810190610aa291906133ae565b611f9d565b005b60006301ffc9a760e01b827bffffffffffffffffffffffffffffffffffffffffffffffffffffffff19161480610b0457506380ac58cd60e01b827bffffffffffffffffffffffffffffffffffffffffffffffffffffffff1916145b80610b345750635b5e139f60e01b827bffffffffffffffffffffffffffffffffffffffffffffffffffffffff1916145b9050919050565b606060038054610b4a90613708565b80601f0160208091040260200160405190810160405280929190818152602001828054610b7690613708565b8015610bc35780601f10610b9857610100808354040283529160200191610bc3565b820191906000526020600020905b815481529060010190602001808311610ba657829003601f168201915b5050505050905090565b6000610bd882611fc2565b610c0e576040517fcf4700e400000000000000000000000000000000000000000000000000000000815260040160405180910390fd5b6007600083815260200190815260200160002060000160009054906101000a900473ffffffffffffffffffffffffffffffffffffffff169050919050565b6000610c5782611340565b90508073ffffffffffffffffffffffffffffffffffffffff16610c78612021565b73ffffffffffffffffffffffffffffffffffffffff1614610cdb57610ca481610c9f612021565b611e86565b610cda576040517fcfb3b94200000000000000000000000000000000000000000000000000000000815260040160405180910390fd5b5b826007600084815260200190815260200160002060000160006101000a81548173ffffffffffffffffffffffffffffffffffffffff021916908373ffffffffffffffffffffffffffffffffffffffff160217905550818373ffffffffffffffffffffffffffffffffffffffff168273ffffffffffffffffffffffffffffffffffffffff167f8c5be1e5ebec7d5bd14f71427d1e84f3dd0314c0f7b2291e5b200ac8c7c3b92560405160405180910390a4505050565b600f5481565b610d9e612029565b8060118190555050565b610db0612029565b80600e8190555050565b6000610dc46120a7565b6002546001540303905090565b8260006daaeb6d7670e522a718067333cd4e73ffffffffffffffffffffffffffffffffffffffff163b1115610fa1573373ffffffffffffffffffffffffffffffffffffffff168173ffffffffffffffffffffffffffffffffffffffff1603610e4357610e3e8484846120b1565b610fad565b6daaeb6d7670e522a718067333cd4e73ffffffffffffffffffffffffffffffffffffffff1663c617113430336040518363ffffffff1660e01b8152600401610e8c929190613739565b602060405180830381865afa158015610ea9573d6000803e3d6000fd5b505050506040513d601f19601f82011682018060405250810190610ecd9190613777565b8015610f5f57506daaeb6d7670e522a718067333cd4e73ffffffffffffffffffffffffffffffffffffffff1663c617113430836040518363ffffffff1660e01b8152600401610f1d929190613739565b602060405180830381865afa158015610f3a573d6000803e3d6000fd5b505050506040513d601f19601f82011682018060405250810190610f5e9190613777565b5b610fa057336040517fede71dcc000000000000000000000000000000000000000000000000000000008152600401610f979190613020565b60405180910390fd5b5b610fac8484846120b1565b5b50505050565b601460009054906101000a900460ff1681565b610fce612029565b8060138190555050565b610fe0612029565b3373ffffffffffffffffffffffffffffffffffffffff166108fc479081150290604051600060405180830381858888f19350505050158015611026573d6000803e3d6000fd5b50565b8260006daaeb6d7670e522a718067333cd4e73ffffffffffffffffffffffffffffffffffffffff163b11156111f9573373ffffffffffffffffffffffffffffffffffffffff168173ffffffffffffffffffffffffffffffffffffffff160361109b576110968484846123d3565b611205565b6daaeb6d7670e522a718067333cd4e73ffffffffffffffffffffffffffffffffffffffff1663c617113430336040518363ffffffff1660e01b81526004016110e4929190613739565b602060405180830381865afa158015611101573d6000803e3d6000fd5b505050506040513d601f19601f820116820180604052508101906111259190613777565b80156111b757506daaeb6d7670e522a718067333cd4e73ffffffffffffffffffffffffffffffffffffffff1663c617113430836040518363ffffffff1660e01b8152600401611175929190613739565b602060405180830381865afa158015611192573d6000803e3d6000fd5b505050506040513d601f19601f820116820180604052508101906111b69190613777565b5b6111f857336040517fede71dcc0000000000000000000000000000000000000000000000000000000081526004016111ef9190613020565b60405180910390fd5b5b6112048484846123d3565b5b50505050565b60135481565b601460029054906101000a900460ff1681565b600a805461123190613708565b80601f016020809104026020016040519081016040528092919081815260200182805461125d90613708565b80156112aa5780601f1061127f576101008083540402835291602001916112aa565b820191906000526020600020905b81548152906001019060200180831161128d57829003601f168201915b505050505081565b600980546112bf90613708565b80601f01602080910402602001604051908101604052809291908181526020018280546112eb90613708565b80156113385780601f1061130d57610100808354040283529160200191611338565b820191906000526020600020905b81548152906001019060200180831161131b57829003601f168201915b505050505081565b600061134b826123f3565b9050919050565b600061136183601254846124bf565b905092915050565b611371612029565b80600d8190555050565b60008073ffffffffffffffffffffffffffffffffffffffff168273ffffffffffffffffffffffffffffffffffffffff16036113e2576040517f8f4eb60400000000000000000000000000000000000000000000000000000000815260040160405180910390fd5b67ffffffffffffffff600660008473ffffffffffffffffffffffffffffffffffffffff1673ffffffffffffffffffffffffffffffffffffffff16815260200190815260200160002054169050919050565b61143b612029565b61144560006124d6565b565b60115481565b611455612029565b80601460006101000a81548160ff02191690831515021790555050565b600d5481565b611480612029565b600d548161148c610dba565b61149691906137d3565b11156114d7576040517f08c379a00000000000000000000000000000000000000000000000000000000081526004016114ce9061389b565b60405180910390fd5b6114e1828261259a565b5050565b60008060009054906101000a900473ffffffffffffffffffffffffffffffffffffffff16905090565b611516612029565b80600c908051906020019061152c929190612d4f565b5050565b611538612029565b8060108190555050565b60606004805461155190613708565b80601f016020809104026020016040519081016040528092919081815260200182805461157d90613708565b80156115ca5780601f1061159f576101008083540402835291602001916115ca565b820191906000526020600020905b8154815290600101906020018083116115ad57829003601f168201915b5050505050905090565b600b80546115e190613708565b80601f016020809104026020016040519081016040528092919081815260200182805461160d90613708565b801561165a5780601f1061162f5761010080835404028352916020019161165a565b820191906000526020600020905b81548152906001019060200180831161163d57829003601f168201915b505050505081565b60125481565b60105481565b611676612029565b80600b908051906020019061168c929190612d4f565b5050565b806008600061169d612021565b73ffffffffffffffffffffffffffffffffffffffff1673ffffffffffffffffffffffffffffffffffffffff16815260200190815260200160002060008473ffffffffffffffffffffffffffffffffffffffff1673ffffffffffffffffffffffffffffffffffffffff16815260200190815260200160002060006101000a81548160ff0219169083151502179055508173ffffffffffffffffffffffffffffffffffffffff1661174a612021565b73ffffffffffffffffffffffffffffffffffffffff167f17307eab39ab6107e8899845ad3d59bd9653f200f220920489ca2b5937696c318360405161178f9190612ea6565b60405180910390a35050565b60006117aa83601354846124bf565b905092915050565b600e5481565b8360006daaeb6d7670e522a718067333cd4e73ffffffffffffffffffffffffffffffffffffffff163b1115611989573373ffffffffffffffffffffffffffffffffffffffff168173ffffffffffffffffffffffffffffffffffffffff160361182b5761182685858585612756565b611996565b6daaeb6d7670e522a718067333cd4e73ffffffffffffffffffffffffffffffffffffffff1663c617113430336040518363ffffffff1660e01b8152600401611874929190613739565b602060405180830381865afa158015611891573d6000803e3d6000fd5b505050506040513d601f19601f820116820180604052508101906118b59190613777565b801561194757506daaeb6d7670e522a718067333cd4e73ffffffffffffffffffffffffffffffffffffffff1663c617113430836040518363ffffffff1660e01b8152600401611905929190613739565b602060405180830381865afa158015611922573d6000803e3d6000fd5b505050506040513d601f19601f820116820180604052508101906119469190613777565b5b61198857336040517fede71dcc00000000000000000000000000000000000000000000000000000000815260040161197f9190613020565b60405180910390fd5b5b61199585858585612756565b5b5050505050565b601460019054906101000a900460ff166119ec576040517f08c379a00000000000000000000000000000000000000000000000000000000081526004016119e390613907565b60405180910390fd5b600d54826119f8610dba565b611a0291906137d3565b1115611a43576040517f08c379a0000000000000000000000000000000000000000000000000000000008152600401611a3a9061389b565b60405180910390fd5b6000611a758233604051602001611a5a919061396f565b60405160208183030381529060405280519060200120611352565b90506000611aa98333604051602001611a8e919061396f565b6040516020818303038152906040528051906020012061179b565b9050601460009054906101000a900460ff1680611ac35750815b80611acb5750805b611b0a576040517f08c379a0000000000000000000000000000000000000000000000000000000008152600401611b01906139d6565b60405180910390fd5b600e5484611b173361137b565b611b2191906137d3565b111580611b4c5750808015611b4b5750600f5484611b3e3361137b565b611b4891906137d3565b11155b5b611b8b576040517f08c379a0000000000000000000000000000000000000000000000000000000008152600401611b8290613a68565b60405180910390fd5b83601054611b999190613a88565b34101580611bbd5750808015611bbc575083601154611bb89190613a88565b3410155b5b611bfc576040517f08c379a0000000000000000000000000000000000000000000000000000000008152600401611bf390613b54565b60405180910390fd5b611c06338561259a565b7fd487c6ad16ac879a595219f386dd2a72a90cb14c9dec17eec7756e51cfd2172333611c30610dba565b86604051611c4093929190613b74565b60405180910390a150505050565b611c56612029565b8060128190555050565b600c8054611c6d90613708565b80601f0160208091040260200160405190810160405280929190818152602001828054611c9990613708565b8015611ce65780601f10611cbb57610100808354040283529160200191611ce6565b820191906000526020600020905b815481529060010190602001808311611cc957829003601f168201915b505050505081565b6060611cf982611fc2565b611d38576040517f08c379a0000000000000000000000000000000000000000000000000000000008152600401611d2f90613c1d565b60405180910390fd5b601460029054906101000a900460ff16611dde57600c8054611d5990613708565b80601f0160208091040260200160405190810160405280929190818152602001828054611d8590613708565b8015611dd25780601f10611da757610100808354040283529160200191611dd2565b820191906000526020600020905b815481529060010190602001808311611db557829003601f168201915b50505050509050611e3a565b6000611de86127c9565b90506000815111611e085760405180602001604052806000815250611e36565b80611e128461285b565b600a604051602001611e2693929190613d0d565b6040516020818303038152906040525b9150505b919050565b601460019054906101000a900460ff1681565b6060611e5c6127c9565b905090565b611e69612029565b80601460026101000a81548160ff02191690831515021790555050565b6000600860008473ffffffffffffffffffffffffffffffffffffffff1673ffffffffffffffffffffffffffffffffffffffff16815260200190815260200160002060008373ffffffffffffffffffffffffffffffffffffffff1673ffffffffffffffffffffffffffffffffffffffff16815260200190815260200160002060009054906101000a900460ff16905092915050565b611f22612029565b600073ffffffffffffffffffffffffffffffffffffffff168173ffffffffffffffffffffffffffffffffffffffff1603611f91576040517f08c379a0000000000000000000000000000000000000000000000000000000008152600401611f8890613db0565b60405180910390fd5b611f9a816124d6565b50565b611fa5612029565b80601460016101000a81548160ff02191690831515021790555050565b600081611fcd6120a7565b11158015611fdc575060015482105b801561201a575060007c0100000000000000000000000000000000000000000000000000000000600560008581526020019081526020016000205416145b9050919050565b600033905090565b612031612929565b73ffffffffffffffffffffffffffffffffffffffff1661204f6114e5565b73ffffffffffffffffffffffffffffffffffffffff16146120a5576040517f08c379a000000000000000000000000000000000000000000000000000000000815260040161209c90613e1c565b60405180910390fd5b565b60006101f5905090565b60006120bc826123f3565b90508373ffffffffffffffffffffffffffffffffffffffff168173ffffffffffffffffffffffffffffffffffffffff1614612123576040517fa114810000000000000000000000000000000000000000000000000000000000815260040160405180910390fd5b60008061212f84612931565b915091506121458187612140612021565b612958565b6121915761215a86612155612021565b611e86565b612190576040517f59c896be00000000000000000000000000000000000000000000000000000000815260040160405180910390fd5b5b600073ffffffffffffffffffffffffffffffffffffffff168573ffffffffffffffffffffffffffffffffffffffff16036121f7576040517fea553b3400000000000000000000000000000000000000000000000000000000815260040160405180910390fd5b612204868686600161299c565b801561220f57600082555b600660008773ffffffffffffffffffffffffffffffffffffffff1673ffffffffffffffffffffffffffffffffffffffff168152602001908152602001600020600081546001900391905081905550600660008673ffffffffffffffffffffffffffffffffffffffff1673ffffffffffffffffffffffffffffffffffffffff16815260200190815260200160002060008154600101919050819055506122dd856122b98888876129a2565b7c0200000000000000000000000000000000000000000000000000000000176129ca565b600560008681526020019081526020016000208190555060007c02000000000000000000000000000000000000000000000000000000008416036123635760006001850190506000600560008381526020019081526020016000205403612361576001548114612360578360056000838152602001908152602001600020819055505b5b505b838573ffffffffffffffffffffffffffffffffffffffff168773ffffffffffffffffffffffffffffffffffffffff167fddf252ad1be2c89b69c2b068fc378daa952ba7f163c4a11628f55a4df523b3ef60405160405180910390a46123cb86868660016129f5565b505050505050565b6123ee838383604051806020016040528060008152506117b8565b505050565b600080829050806124026120a7565b11612488576001548110156124875760006005600083815260200190815260200160002054905060007c0100000000000000000000000000000000000000000000000000000000821603612485575b6000810361247b576005600083600190039350838152602001908152602001600020549050612451565b80925050506124ba565b505b5b6040517fdf2d9b4200000000000000000000000000000000000000000000000000000000815260040160405180910390fd5b919050565b6000826124cc85846129fb565b1490509392505050565b60008060009054906101000a900473ffffffffffffffffffffffffffffffffffffffff169050816000806101000a81548173ffffffffffffffffffffffffffffffffffffffff021916908373ffffffffffffffffffffffffffffffffffffffff1602179055508173ffffffffffffffffffffffffffffffffffffffff168173ffffffffffffffffffffffffffffffffffffffff167f8be0079c531659141344cd1fd0a4f28419497f9722a3daafe3b4186f6b6457e060405160405180910390a35050565b60006001549050600082036125db576040517fb562e8dd00000000000000000000000000000000000000000000000000000000815260040160405180910390fd5b6125e8600084838561299c565b600160406001901b178202600660008573ffffffffffffffffffffffffffffffffffffffff1673ffffffffffffffffffffffffffffffffffffffff1681526020019081526020016000206000828254019250508190555061265f8361265060008660006129a2565b61265985612a51565b176129ca565b6005600083815260200190815260200160002081905550600080838301905073ffffffffffffffffffffffffffffffffffffffff85169150828260007fddf252ad1be2c89b69c2b068fc378daa952ba7f163c4a11628f55a4df523b3ef600080a4600183015b81811461270057808360007fddf252ad1be2c89b69c2b068fc378daa952ba7f163c4a11628f55a4df523b3ef600080a46001810190506126c5565b506000820361273b576040517f2e07630000000000000000000000000000000000000000000000000000000000815260040160405180910390fd5b80600181905550505061275160008483856129f5565b505050565b612761848484610dd1565b60008373ffffffffffffffffffffffffffffffffffffffff163b146127c35761278c84848484612a61565b6127c2576040517fd1a57ed600000000000000000000000000000000000000000000000000000000815260040160405180910390fd5b5b50505050565b6060600b80546127d890613708565b80601f016020809104026020016040519081016040528092919081815260200182805461280490613708565b80156128515780601f1061282657610100808354040283529160200191612851565b820191906000526020600020905b81548152906001019060200180831161283457829003601f168201915b5050505050905090565b60606000600161286a84612bb1565b01905060008167ffffffffffffffff811115612889576128886131b6565b5b6040519080825280601f01601f1916602001820160405280156128bb5781602001600182028036833780820191505090505b509050600082602001820190505b60011561291e578080600190039150507f3031323334353637383961626364656600000000000000000000000000000000600a86061a8153600a858161291257612911613e3c565b5b049450600085036128c9575b819350505050919050565b600033905090565b60008060006007600085815260200190815260200160002090508092508254915050915091565b600073ffffffffffffffffffffffffffffffffffffffff8316925073ffffffffffffffffffffffffffffffffffffffff821691508382148383141790509392505050565b50505050565b60008060e883901c905060e86129b9868684612d04565b62ffffff16901b9150509392505050565b600073ffffffffffffffffffffffffffffffffffffffff83169250814260a01b178317905092915050565b50505050565b60008082905060005b8451811015612a4657612a3182868381518110612a2457612a23613e6b565b5b6020026020010151612d0d565b91508080612a3e90613e9a565b915050612a04565b508091505092915050565b60006001821460e11b9050919050565b60008373ffffffffffffffffffffffffffffffffffffffff1663150b7a02612a87612021565b8786866040518563ffffffff1660e01b8152600401612aa99493929190613f37565b6020604051808303816000875af1925050508015612ae557506040513d601f19601f82011682018060405250810190612ae29190613f98565b60015b612b5e573d8060008114612b15576040519150601f19603f3d011682016040523d82523d6000602084013e612b1a565b606091505b506000815103612b56576040517fd1a57ed600000000000000000000000000000000000000000000000000000000815260040160405180910390fd5b805181602001fd5b63150b7a0260e01b7bffffffffffffffffffffffffffffffffffffffffffffffffffffffff1916817bffffffffffffffffffffffffffffffffffffffffffffffffffffffff191614915050949350505050565b600080600090507a184f03e93ff9f4daa797ed6e38ed64bf6a1f0100000000000000008310612c0f577a184f03e93ff9f4daa797ed6e38ed64bf6a1f0100000000000000008381612c0557612c04613e3c565b5b0492506040810190505b6d04ee2d6d415b85acef81000000008310612c4c576d04ee2d6d415b85acef81000000008381612c4257612c41613e3c565b5b0492506020810190505b662386f26fc100008310612c7b57662386f26fc100008381612c7157612c70613e3c565b5b0492506010810190505b6305f5e1008310612ca4576305f5e1008381612c9a57612c99613e3c565b5b0492506008810190505b6127108310612cc9576127108381612cbf57612cbe613e3c565b5b0492506004810190505b60648310612cec5760648381612ce257612ce1613e3c565b5b0492506002810190505b600a8310612cfb576001810190505b80915050919050565b60009392505050565b6000818310612d2557612d208284612d38565b612d30565b612d2f8383612d38565b5b905092915050565b600082600052816020526040600020905092915050565b828054612d5b90613708565b90600052602060002090601f016020900481019282612d7d5760008555612dc4565b82601f10612d9657805160ff1916838001178555612dc4565b82800160010185558215612dc4579182015b82811115612dc3578251825591602001919060010190612da8565b5b509050612dd19190612dd5565b5090565b5b80821115612dee576000816000905550600101612dd6565b5090565b6000604051905090565b600080fd5b600080fd5b60007fffffffff0000000000000000000000000000000000000000000000000000000082169050919050565b612e3b81612e06565b8114612e4657600080fd5b50565b600081359050612e5881612e32565b92915050565b600060208284031215612e7457612e73612dfc565b5b6000612e8284828501612e49565b91505092915050565b60008115159050919050565b612ea081612e8b565b82525050565b6000602082019050612ebb6000830184612e97565b92915050565b600081519050919050565b600082825260208201905092915050565b60005b83811015612efb578082015181840152602081019050612ee0565b83811115612f0a576000848401525b50505050565b6000601f19601f8301169050919050565b6000612f2c82612ec1565b612f368185612ecc565b9350612f46818560208601612edd565b612f4f81612f10565b840191505092915050565b60006020820190508181036000830152612f748184612f21565b905092915050565b6000819050919050565b612f8f81612f7c565b8114612f9a57600080fd5b50565b600081359050612fac81612f86565b92915050565b600060208284031215612fc857612fc7612dfc565b5b6000612fd684828501612f9d565b91505092915050565b600073ffffffffffffffffffffffffffffffffffffffff82169050919050565b600061300a82612fdf565b9050919050565b61301a81612fff565b82525050565b60006020820190506130356000830184613011565b92915050565b61304481612fff565b811461304f57600080fd5b50565b6000813590506130618161303b565b92915050565b6000806040838503121561307e5761307d612dfc565b5b600061308c85828601613052565b925050602061309d85828601612f9d565b9150509250929050565b6130b081612f7c565b82525050565b60006020820190506130cb60008301846130a7565b92915050565b6000806000606084860312156130ea576130e9612dfc565b5b60006130f886828701613052565b935050602061310986828701613052565b925050604061311a86828701612f9d565b9150509250925092565b6000819050919050565b61313781613124565b811461314257600080fd5b50565b6000813590506131548161312e565b92915050565b6000602082840312156131705761316f612dfc565b5b600061317e84828501613145565b91505092915050565b61319081613124565b82525050565b60006020820190506131ab6000830184613187565b92915050565b600080fd5b7f4e487b7100000000000000000000000000000000000000000000000000000000600052604160045260246000fd5b6131ee82612f10565b810181811067ffffffffffffffff8211171561320d5761320c6131b6565b5b80604052505050565b6000613220612df2565b905061322c82826131e5565b919050565b600067ffffffffffffffff82111561324c5761324b6131b6565b5b602082029050602081019050919050565b600080fd5b600061327561327084613231565b613216565b905080838252602082019050602084028301858111156132985761329761325d565b5b835b818110156132c157806132ad8882613145565b84526020840193505060208101905061329a565b5050509392505050565b600082601f8301126132e0576132df6131b1565b5b81356132f0848260208601613262565b91505092915050565b600080604083850312156133105761330f612dfc565b5b600083013567ffffffffffffffff81111561332e5761332d612e01565b5b61333a858286016132cb565b925050602061334b85828601613145565b9150509250929050565b60006020828403121561336b5761336a612dfc565b5b600061337984828501613052565b91505092915050565b61338b81612e8b565b811461339657600080fd5b50565b6000813590506133a881613382565b92915050565b6000602082840312156133c4576133c3612dfc565b5b60006133d284828501613399565b91505092915050565b600080fd5b600067ffffffffffffffff8211156133fb576133fa6131b6565b5b61340482612f10565b9050602081019050919050565b82818337600083830152505050565b600061343361342e846133e0565b613216565b90508281526020810184848401111561344f5761344e6133db565b5b61345a848285613411565b509392505050565b600082601f830112613477576134766131b1565b5b8135613487848260208601613420565b91505092915050565b6000602082840312156134a6576134a5612dfc565b5b600082013567ffffffffffffffff8111156134c4576134c3612e01565b5b6134d084828501613462565b91505092915050565b600080604083850312156134f0576134ef612dfc565b5b60006134fe85828601613052565b925050602061350f85828601613399565b9150509250929050565b600067ffffffffffffffff821115613534576135336131b6565b5b61353d82612f10565b9050602081019050919050565b600061355d61355884613519565b613216565b905082815260208101848484011115613579576135786133db565b5b613584848285613411565b509392505050565b600082601f8301126135a1576135a06131b1565b5b81356135b184826020860161354a565b91505092915050565b600080600080608085870312156135d4576135d3612dfc565b5b60006135e287828801613052565b94505060206135f387828801613052565b935050604061360487828801612f9d565b925050606085013567ffffffffffffffff81111561362557613624612e01565b5b6136318782880161358c565b91505092959194509250565b6000806040838503121561365457613653612dfc565b5b600061366285828601612f9d565b925050602083013567ffffffffffffffff81111561368357613682612e01565b5b61368f858286016132cb565b9150509250929050565b600080604083850312156136b0576136af612dfc565b5b60006136be85828601613052565b92505060206136cf85828601613052565b9150509250929050565b7f4e487b7100000000000000000000000000000000000000000000000000000000600052602260045260246000fd5b6000600282049050600182168061372057607f821691505b602082108103613733576137326136d9565b5b50919050565b600060408201905061374e6000830185613011565b61375b6020830184613011565b9392505050565b60008151905061377181613382565b92915050565b60006020828403121561378d5761378c612dfc565b5b600061379b84828501613762565b91505092915050565b7f4e487b7100000000000000000000000000000000000000000000000000000000600052601160045260246000fd5b60006137de82612f7c565b91506137e983612f7c565b9250827fffffffffffffffffffffffffffffffffffffffffffffffffffffffffffffffff0382111561381e5761381d6137a4565b5b828201905092915050565b7f43616e2774206d696e74206d6f7265207468616e20746f74616c20737570706c60008201527f7900000000000000000000000000000000000000000000000000000000000000602082015250565b6000613885602183612ecc565b915061389082613829565b604082019050919050565b600060208201905081810360008301526138b481613878565b9050919050565b7f4d696e74696e67206973206e6f7420656e61626c656400000000000000000000600082015250565b60006138f1601683612ecc565b91506138fc826138bb565b602082019050919050565b60006020820190508181036000830152613920816138e4565b9050919050565b60008160601b9050919050565b600061393f82613927565b9050919050565b600061395182613934565b9050919050565b61396961396482612fff565b613946565b82525050565b600061397b8284613958565b60148201915081905092915050565b7f596f7520617265206e6f742077686974656c6973746564000000000000000000600082015250565b60006139c0601783612ecc565b91506139cb8261398a565b602082019050919050565b600060208201905081810360008301526139ef816139b3565b9050919050565b7f456163682061646472657373206d6179206f6e6c79206d696e742078204e465460008201527f7321000000000000000000000000000000000000000000000000000000000000602082015250565b6000613a52602283612ecc565b9150613a5d826139f6565b604082019050919050565b60006020820190508181036000830152613a8181613a45565b9050919050565b6000613a9382612f7c565b9150613a9e83612f7c565b9250817fffffffffffffffffffffffffffffffffffffffffffffffffffffffffffffffff0483118215151615613ad757613ad66137a4565b5b828202905092915050565b7f4e6f7420656e6f756768204554482073656e743b20636865636b20707269636560008201527f2100000000000000000000000000000000000000000000000000000000000000602082015250565b6000613b3e602183612ecc565b9150613b4982613ae2565b604082019050919050565b60006020820190508181036000830152613b6d81613b31565b9050919050565b6000606082019050613b896000830186613011565b613b9660208301856130a7565b613ba360408301846130a7565b949350505050565b7f4552433732314d657461646174613a2055524920717565727920666f72206e6f60008201527f6e6578697374656e7420746f6b656e0000000000000000000000000000000000602082015250565b6000613c07602f83612ecc565b9150613c1282613bab565b604082019050919050565b60006020820190508181036000830152613c3681613bfa565b9050919050565b600081905092915050565b6000613c5382612ec1565b613c5d8185613c3d565b9350613c6d818560208601612edd565b80840191505092915050565b60008190508160005260206000209050919050565b60008154613c9b81613708565b613ca58186613c3d565b94506001821660008114613cc05760018114613cd157613d04565b60ff19831686528186019350613d04565b613cda85613c79565b60005b83811015613cfc57815481890152600182019150602081019050613cdd565b838801955050505b50505092915050565b6000613d198286613c48565b9150613d258285613c48565b9150613d318284613c8e565b9150819050949350505050565b7f4f776e61626c653a206e6577206f776e657220697320746865207a65726f206160008201527f6464726573730000000000000000000000000000000000000000000000000000602082015250565b6000613d9a602683612ecc565b9150613da582613d3e565b604082019050919050565b60006020820190508181036000830152613dc981613d8d565b9050919050565b7f4f776e61626c653a2063616c6c6572206973206e6f7420746865206f776e6572600082015250565b6000613e06602083612ecc565b9150613e1182613dd0565b602082019050919050565b60006020820190508181036000830152613e3581613df9565b9050919050565b7f4e487b7100000000000000000000000000000000000000000000000000000000600052601260045260246000fd5b7f4e487b7100000000000000000000000000000000000000000000000000000000600052603260045260246000fd5b6000613ea582612f7c565b91507fffffffffffffffffffffffffffffffffffffffffffffffffffffffffffffffff8203613ed757613ed66137a4565b5b600182019050919050565b600081519050919050565b600082825260208201905092915050565b6000613f0982613ee2565b613f138185613eed565b9350613f23818560208601612edd565b613f2c81612f10565b840191505092915050565b6000608082019050613f4c6000830187613011565b613f596020830186613011565b613f6660408301856130a7565b8181036060830152613f788184613efe565b905095945050505050565b600081519050613f9281612e32565b92915050565b600060208284031215613fae57613fad612dfc565b5b6000613fbc84828501613f83565b9150509291505056fea2646970667358221220ae16ad2afbbdeb1a12ed710933f9dfd2ec28a0c0f1c77035e0dd4755ca9278b564736f6c634300080d0033697066733a2f2f626166796265696365786d78677271626d67766b337074346d6935343437736b676136786834323463696479776766376963326a36736b69326479",
  "linkReferences": {},
  "deployedLinkReferences": {}
}