{
  "_format": "hh-sol-artifact-1",
  "contractName": "NFT",
  "sourceName": "src/backend/contracts/NFT.sol",
  "abi": [
    {
      "inputs": [
        {
          "internalType": "address",
          "name": "_ownerAddress",
          "type": "address"
        },
        {
          "internalType": "bytes32",
          "name": "_whitelistRoot",
          "type": "bytes32"
        },
        {
          "internalType": "address[]",
          "name": "_minterAddresses",
          "type": "address[]"
        },
        {
          "internalType": "uint256[]",
          "name": "_tokenAmount",
          "type": "uint256[]"
        }
      ],
      "stateMutability": "nonpayable",
      "type": "constructor"
    },
    {
      "inputs": [],
      "name": "ApprovalCallerNotOwnerNorApproved",
      "type": "error"
    },
    {
      "inputs": [],
      "name": "ApprovalQueryForNonexistentToken",
      "type": "error"
    },
    {
      "inputs": [],
      "name": "BalanceQueryForZeroAddress",
      "type": "error"
    },
    {
      "inputs": [],
      "name": "MintERC2309QuantityExceedsLimit",
      "type": "error"
    },
    {
      "inputs": [],
      "name": "MintToZeroAddress",
      "type": "error"
    },
    {
      "inputs": [],
      "name": "MintZeroQuantity",
      "type": "error"
    },
    {
      "inputs": [
        {
          "internalType": "address",
          "name": "operator",
          "type": "address"
        }
      ],
      "name": "OperatorNotAllowed",
      "type": "error"
    },
    {
      "inputs": [],
      "name": "OwnerQueryForNonexistentToken",
      "type": "error"
    },
    {
      "inputs": [],
      "name": "OwnershipNotInitializedForExtraData",
      "type": "error"
    },
    {
      "inputs": [],
      "name": "TransferCallerNotOwnerNorApproved",
      "type": "error"
    },
    {
      "inputs": [],
      "name": "TransferFromIncorrectOwner",
      "type": "error"
    },
    {
      "inputs": [],
      "name": "TransferToNonERC721ReceiverImplementer",
      "type": "error"
    },
    {
      "inputs": [],
      "name": "TransferToZeroAddress",
      "type": "error"
    },
    {
      "inputs": [],
      "name": "URIQueryForNonexistentToken",
      "type": "error"
    },
    {
      "anonymous": false,
      "inputs": [
        {
          "indexed": true,
          "internalType": "address",
          "name": "owner",
          "type": "address"
        },
        {
          "indexed": true,
          "internalType": "address",
          "name": "approved",
          "type": "address"
        },
        {
          "indexed": true,
          "internalType": "uint256",
          "name": "tokenId",
          "type": "uint256"
        }
      ],
      "name": "Approval",
      "type": "event"
    },
    {
      "anonymous": false,
      "inputs": [
        {
          "indexed": true,
          "internalType": "address",
          "name": "owner",
          "type": "address"
        },
        {
          "indexed": true,
          "internalType": "address",
          "name": "operator",
          "type": "address"
        },
        {
          "indexed": false,
          "internalType": "bool",
          "name": "approved",
          "type": "bool"
        }
      ],
      "name": "ApprovalForAll",
      "type": "event"
    },
    {
      "anonymous": false,
      "inputs": [
        {
          "indexed": true,
          "internalType": "uint256",
          "name": "fromTokenId",
          "type": "uint256"
        },
        {
          "indexed": false,
          "internalType": "uint256",
          "name": "toTokenId",
          "type": "uint256"
        },
        {
          "indexed": true,
          "internalType": "address",
          "name": "from",
          "type": "address"
        },
        {
          "indexed": true,
          "internalType": "address",
          "name": "to",
          "type": "address"
        }
      ],
      "name": "ConsecutiveTransfer",
      "type": "event"
    },
    {
      "anonymous": false,
      "inputs": [
        {
          "indexed": false,
          "internalType": "address",
          "name": "user",
          "type": "address"
        },
        {
          "indexed": false,
          "internalType": "uint256",
          "name": "_quantity",
          "type": "uint256"
        }
      ],
      "name": "MintSuccessful",
      "type": "event"
    },
    {
      "anonymous": false,
      "inputs": [
        {
          "indexed": true,
          "internalType": "address",
          "name": "previousOwner",
          "type": "address"
        },
        {
          "indexed": true,
          "internalType": "address",
          "name": "newOwner",
          "type": "address"
        }
      ],
      "name": "OwnershipTransferred",
      "type": "event"
    },
    {
      "anonymous": false,
      "inputs": [
        {
          "indexed": true,
          "internalType": "address",
          "name": "from",
          "type": "address"
        },
        {
          "indexed": true,
          "internalType": "address",
          "name": "to",
          "type": "address"
        },
        {
          "indexed": true,
          "internalType": "uint256",
          "name": "tokenId",
          "type": "uint256"
        }
      ],
      "name": "Transfer",
      "type": "event"
    },
    {
      "inputs": [
        {
          "internalType": "address",
          "name": "_user",
          "type": "address"
        },
        {
          "internalType": "uint256",
          "name": "_quantity",
          "type": "uint256"
        }
      ],
      "name": "airdrop",
      "outputs": [],
      "stateMutability": "nonpayable",
      "type": "function"
    },
    {
      "inputs": [],
      "name": "amountMintPerAccount",
      "outputs": [
        {
          "internalType": "uint256",
          "name": "",
          "type": "uint256"
        }
      ],
      "stateMutability": "view",
      "type": "function"
    },
    {
      "inputs": [
        {
          "internalType": "address",
          "name": "to",
          "type": "address"
        },
        {
          "internalType": "uint256",
          "name": "tokenId",
          "type": "uint256"
        }
      ],
      "name": "approve",
      "outputs": [],
      "stateMutability": "payable",
      "type": "function"
    },
    {
      "inputs": [
        {
          "internalType": "address",
          "name": "owner",
          "type": "address"
        }
      ],
      "name": "balanceOf",
      "outputs": [
        {
          "internalType": "uint256",
          "name": "",
          "type": "uint256"
        }
      ],
      "stateMutability": "view",
      "type": "function"
    },
    {
      "inputs": [],
      "name": "baseTokenURI",
      "outputs": [
        {
          "internalType": "string",
          "name": "",
          "type": "string"
        }
      ],
      "stateMutability": "pure",
      "type": "function"
    },
    {
      "inputs": [],
      "name": "contractURI",
      "outputs": [
        {
          "internalType": "string",
          "name": "",
          "type": "string"
        }
      ],
      "stateMutability": "pure",
      "type": "function"
    },
    {
      "inputs": [
        {
          "internalType": "uint256",
          "name": "tokenId",
          "type": "uint256"
        }
      ],
      "name": "getApproved",
      "outputs": [
        {
          "internalType": "address",
          "name": "",
          "type": "address"
        }
      ],
      "stateMutability": "view",
      "type": "function"
    },
    {
      "inputs": [
        {
          "internalType": "address",
          "name": "owner",
          "type": "address"
        },
        {
          "internalType": "address",
          "name": "operator",
          "type": "address"
        }
      ],
      "name": "isApprovedForAll",
      "outputs": [
        {
          "internalType": "bool",
          "name": "",
          "type": "bool"
        }
      ],
      "stateMutability": "view",
      "type": "function"
    },
    {
      "inputs": [
        {
          "internalType": "bytes32[]",
          "name": "_proof",
          "type": "bytes32[]"
        },
        {
          "internalType": "bytes32",
          "name": "_leaf",
          "type": "bytes32"
        }
      ],
      "name": "isValid",
      "outputs": [
        {
          "internalType": "bool",
          "name": "",
          "type": "bool"
        }
      ],
      "stateMutability": "view",
      "type": "function"
    },
    {
      "inputs": [],
      "name": "max_supply",
      "outputs": [
        {
          "internalType": "uint256",
          "name": "",
          "type": "uint256"
        }
      ],
      "stateMutability": "view",
      "type": "function"
    },
    {
      "inputs": [
        {
          "internalType": "uint256",
          "name": "_quantity",
          "type": "uint256"
        },
        {
          "internalType": "bytes32[]",
          "name": "_proof",
          "type": "bytes32[]"
        }
      ],
      "name": "mint",
      "outputs": [],
      "stateMutability": "payable",
      "type": "function"
    },
    {
      "inputs": [],
      "name": "name",
      "outputs": [
        {
          "internalType": "string",
          "name": "",
          "type": "string"
        }
      ],
      "stateMutability": "view",
      "type": "function"
    },
    {
      "inputs": [],
      "name": "owner",
      "outputs": [
        {
          "internalType": "address",
          "name": "",
          "type": "address"
        }
      ],
      "stateMutability": "view",
      "type": "function"
    },
    {
      "inputs": [
        {
          "internalType": "uint256",
          "name": "tokenId",
          "type": "uint256"
        }
      ],
      "name": "ownerOf",
      "outputs": [
        {
          "internalType": "address",
          "name": "",
          "type": "address"
        }
      ],
      "stateMutability": "view",
      "type": "function"
    },
    {
      "inputs": [],
      "name": "price",
      "outputs": [
        {
          "internalType": "uint256",
          "name": "",
          "type": "uint256"
        }
      ],
      "stateMutability": "view",
      "type": "function"
    },
    {
      "inputs": [],
      "name": "publicSaleEnabled",
      "outputs": [
        {
          "internalType": "bool",
          "name": "",
          "type": "bool"
        }
      ],
      "stateMutability": "view",
      "type": "function"
    },
    {
      "inputs": [],
      "name": "renounceOwnership",
      "outputs": [],
      "stateMutability": "nonpayable",
      "type": "function"
    },
    {
      "inputs": [
        {
          "internalType": "address",
          "name": "from",
          "type": "address"
        },
        {
          "internalType": "address",
          "name": "to",
          "type": "address"
        },
        {
          "internalType": "uint256",
          "name": "tokenId",
          "type": "uint256"
        }
      ],
      "name": "safeTransferFrom",
      "outputs": [],
      "stateMutability": "payable",
      "type": "function"
    },
    {
      "inputs": [
        {
          "internalType": "address",
          "name": "from",
          "type": "address"
        },
        {
          "internalType": "address",
          "name": "to",
          "type": "address"
        },
        {
          "internalType": "uint256",
          "name": "tokenId",
          "type": "uint256"
        },
        {
          "internalType": "bytes",
          "name": "data",
          "type": "bytes"
        }
      ],
      "name": "safeTransferFrom",
      "outputs": [],
      "stateMutability": "payable",
      "type": "function"
    },
    {
      "inputs": [
        {
          "internalType": "uint256",
          "name": "_amountMintPerAccount",
          "type": "uint256"
        }
      ],
      "name": "setAmountMintPerAccount",
      "outputs": [],
      "stateMutability": "nonpayable",
      "type": "function"
    },
    {
      "inputs": [
        {
          "internalType": "address",
          "name": "operator",
          "type": "address"
        },
        {
          "internalType": "bool",
          "name": "approved",
          "type": "bool"
        }
      ],
      "name": "setApprovalForAll",
      "outputs": [],
      "stateMutability": "nonpayable",
      "type": "function"
    },
    {
      "inputs": [
        {
          "internalType": "bool",
          "name": "_state",
          "type": "bool"
        }
      ],
      "name": "setPublicSaleEnabled",
      "outputs": [],
      "stateMutability": "nonpayable",
      "type": "function"
    },
    {
      "inputs": [
        {
          "internalType": "bytes32",
          "name": "_whitelistRoot",
          "type": "bytes32"
        }
      ],
      "name": "setWhitelistRoot",
      "outputs": [],
      "stateMutability": "nonpayable",
      "type": "function"
    },
    {
      "inputs": [
        {
          "internalType": "bytes4",
          "name": "interfaceId",
          "type": "bytes4"
        }
      ],
      "name": "supportsInterface",
      "outputs": [
        {
          "internalType": "bool",
          "name": "",
          "type": "bool"
        }
      ],
      "stateMutability": "view",
      "type": "function"
    },
    {
      "inputs": [],
      "name": "symbol",
      "outputs": [
        {
          "internalType": "string",
          "name": "",
          "type": "string"
        }
      ],
      "stateMutability": "view",
      "type": "function"
    },
    {
      "inputs": [
        {
          "internalType": "uint256",
          "name": "_tokenId",
          "type": "uint256"
        }
      ],
      "name": "tokenURI",
      "outputs": [
        {
          "internalType": "string",
          "name": "",
          "type": "string"
        }
      ],
      "stateMutability": "view",
      "type": "function"
    },
    {
      "inputs": [],
      "name": "totalSupply",
      "outputs": [
        {
          "internalType": "uint256",
          "name": "",
          "type": "uint256"
        }
      ],
      "stateMutability": "view",
      "type": "function"
    },
    {
      "inputs": [
        {
          "internalType": "address",
          "name": "from",
          "type": "address"
        },
        {
          "internalType": "address",
          "name": "to",
          "type": "address"
        },
        {
          "internalType": "uint256",
          "name": "tokenId",
          "type": "uint256"
        }
      ],
      "name": "transferFrom",
      "outputs": [],
      "stateMutability": "payable",
      "type": "function"
    },
    {
      "inputs": [
        {
          "internalType": "address",
          "name": "newOwner",
          "type": "address"
        }
      ],
      "name": "transferOwnership",
      "outputs": [],
      "stateMutability": "nonpayable",
      "type": "function"
    },
    {
      "inputs": [],
      "name": "uriPrefix",
      "outputs": [
        {
          "internalType": "string",
          "name": "",
          "type": "string"
        }
      ],
      "stateMutability": "view",
      "type": "function"
    },
    {
      "inputs": [],
      "name": "uriSuffix",
      "outputs": [
        {
          "internalType": "string",
          "name": "",
          "type": "string"
        }
      ],
      "stateMutability": "view",
      "type": "function"
    },
    {
      "inputs": [],
      "name": "whitelistRoot",
      "outputs": [
        {
          "internalType": "bytes32",
          "name": "",
          "type": "bytes32"
        }
      ],
      "stateMutability": "view",
      "type": "function"
    },
    {
      "inputs": [],
      "name": "withdraw",
      "outputs": [],
      "stateMutability": "nonpayable",
      "type": "function"
    }
  ],
  "bytecode": "0x608060405260405180602001604052806000815250600990805190602001906200002b929190620007be565b506040518060400160405280600581526020017f2e6a736f6e000000000000000000000000000000000000000000000000000000815250600a908051906020019062000079929190620007be565b506101f4600b556008600c5566470de4df820000600d553480156200009d57600080fd5b50604051620044f0380380620044f08339818101604052810190620000c3919062000ba8565b733cc6cdda760b79bafa08df41ecfa224f810dceb660016040518060400160405280600d81526020017f4d7973746963204d6f746f7273000000000000000000000000000000000000008152506040518060400160405280600681526020017f4d59535449430000000000000000000000000000000000000000000000000000815250620001666200015a6200048160201b60201c565b6200048960201b60201c565b81600390805190602001906200017e929190620007be565b50806004908051906020019062000197929190620007be565b50620001a86200054d60201b60201c565b600181905550505060006daaeb6d7670e522a718067333cd4e73ffffffffffffffffffffffffffffffffffffffff163b1115620003a55780156200026b576daaeb6d7670e522a718067333cd4e73ffffffffffffffffffffffffffffffffffffffff16637d3e3dbe30846040518363ffffffff1660e01b81526004016200023192919062000c69565b600060405180830381600087803b1580156200024c57600080fd5b505af115801562000261573d6000803e3d6000fd5b50505050620003a4565b600073ffffffffffffffffffffffffffffffffffffffff168273ffffffffffffffffffffffffffffffffffffffff161462000325576daaeb6d7670e522a718067333cd4e73ffffffffffffffffffffffffffffffffffffffff1663a0af290330846040518363ffffffff1660e01b8152600401620002eb92919062000c69565b600060405180830381600087803b1580156200030657600080fd5b505af11580156200031b573d6000803e3d6000fd5b50505050620003a3565b6daaeb6d7670e522a718067333cd4e73ffffffffffffffffffffffffffffffffffffffff16634420e486306040518263ffffffff1660e01b81526004016200036e919062000c96565b600060405180830381600087803b1580156200038957600080fd5b505af11580156200039e573d6000803e3d6000fd5b505050505b5b5b505082600e81905550620003bf846200048960201b60201c565b60008251905060008251905080821462000410576040517f08c379a0000000000000000000000000000000000000000000000000000000008152600401620004079062000d60565b60405180910390fd5b60005b8281101562000474576200046885828151811062000436576200043562000d82565b5b602002602001015185838151811062000454576200045362000d82565b5b60200260200101516200055660201b60201c565b80600101905062000413565b5050505050505062000e15565b600033905090565b60008060009054906101000a900473ffffffffffffffffffffffffffffffffffffffff169050816000806101000a81548173ffffffffffffffffffffffffffffffffffffffff021916908373ffffffffffffffffffffffffffffffffffffffff1602179055508173ffffffffffffffffffffffffffffffffffffffff168173ffffffffffffffffffffffffffffffffffffffff167f8be0079c531659141344cd1fd0a4f28419497f9722a3daafe3b4186f6b6457e060405160405180910390a35050565b60006001905090565b600060015490506000820362000598576040517fb562e8dd00000000000000000000000000000000000000000000000000000000815260040160405180910390fd5b620005ad60008483856200073e60201b60201c565b600160406001901b178202600660008573ffffffffffffffffffffffffffffffffffffffff1673ffffffffffffffffffffffffffffffffffffffff168152602001908152602001600020600082825401925050819055506200063c836200061e60008660006200074460201b60201c565b6200062f856200077460201b60201c565b176200078460201b60201c565b6005600083815260200190815260200160002081905550600080838301905073ffffffffffffffffffffffffffffffffffffffff85169150828260007fddf252ad1be2c89b69c2b068fc378daa952ba7f163c4a11628f55a4df523b3ef600080a4600183015b818114620006df57808360007fddf252ad1be2c89b69c2b068fc378daa952ba7f163c4a11628f55a4df523b3ef600080a4600181019050620006a2565b50600082036200071b576040517f2e07630000000000000000000000000000000000000000000000000000000000815260040160405180910390fd5b806001819055505050620007396000848385620007af60201b60201c565b505050565b50505050565b60008060e883901c905060e862000763868684620007b560201b60201c565b62ffffff16901b9150509392505050565b60006001821460e11b9050919050565b600073ffffffffffffffffffffffffffffffffffffffff83169250814260a01b178317905092915050565b50505050565b60009392505050565b828054620007cc9062000de0565b90600052602060002090601f016020900481019282620007f057600085556200083c565b82601f106200080b57805160ff19168380011785556200083c565b828001600101855582156200083c579182015b828111156200083b5782518255916020019190600101906200081e565b5b5090506200084b91906200084f565b5090565b5b808211156200086a57600081600090555060010162000850565b5090565b6000604051905090565b600080fd5b600080fd5b600073ffffffffffffffffffffffffffffffffffffffff82169050919050565b6000620008af8262000882565b9050919050565b620008c181620008a2565b8114620008cd57600080fd5b50565b600081519050620008e181620008b6565b92915050565b6000819050919050565b620008fc81620008e7565b81146200090857600080fd5b50565b6000815190506200091c81620008f1565b92915050565b600080fd5b6000601f19601f8301169050919050565b7f4e487b7100000000000000000000000000000000000000000000000000000000600052604160045260246000fd5b620009728262000927565b810181811067ffffffffffffffff8211171562000994576200099362000938565b5b80604052505050565b6000620009a96200086e565b9050620009b7828262000967565b919050565b600067ffffffffffffffff821115620009da57620009d962000938565b5b602082029050602081019050919050565b600080fd5b600062000a0762000a0184620009bc565b6200099d565b9050808382526020820190506020840283018581111562000a2d5762000a2c620009eb565b5b835b8181101562000a5a578062000a458882620008d0565b84526020840193505060208101905062000a2f565b5050509392505050565b600082601f83011262000a7c5762000a7b62000922565b5b815162000a8e848260208601620009f0565b91505092915050565b600067ffffffffffffffff82111562000ab55762000ab462000938565b5b602082029050602081019050919050565b6000819050919050565b62000adb8162000ac6565b811462000ae757600080fd5b50565b60008151905062000afb8162000ad0565b92915050565b600062000b1862000b128462000a97565b6200099d565b9050808382526020820190506020840283018581111562000b3e5762000b3d620009eb565b5b835b8181101562000b6b578062000b56888262000aea565b84526020840193505060208101905062000b40565b5050509392505050565b600082601f83011262000b8d5762000b8c62000922565b5b815162000b9f84826020860162000b01565b91505092915050565b6000806000806080858703121562000bc55762000bc462000878565b5b600062000bd587828801620008d0565b945050602062000be8878288016200090b565b935050604085015167ffffffffffffffff81111562000c0c5762000c0b6200087d565b5b62000c1a8782880162000a64565b925050606085015167ffffffffffffffff81111562000c3e5762000c3d6200087d565b5b62000c4c8782880162000b75565b91505092959194509250565b62000c6381620008a2565b82525050565b600060408201905062000c80600083018562000c58565b62000c8f602083018462000c58565b9392505050565b600060208201905062000cad600083018462000c58565b92915050565b600082825260208201905092915050565b7f4d696e7465722041646472657373657320616e6420546f6b656e20416d6f756e60008201527f7420617272617973206e65656420746f2068617665207468652073616d65207360208201527f697a652e00000000000000000000000000000000000000000000000000000000604082015250565b600062000d4860448362000cb3565b915062000d558262000cc4565b606082019050919050565b6000602082019050818103600083015262000d7b8162000d39565b9050919050565b7f4e487b7100000000000000000000000000000000000000000000000000000000600052603260045260246000fd5b7f4e487b7100000000000000000000000000000000000000000000000000000000600052602260045260246000fd5b6000600282049050600182168062000df957607f821691505b60208210810362000e0f5762000e0e62000db1565b5b50919050565b6136cb8062000e256000396000f3fe6080604052600436106101ee5760003560e01c80638720fbef1161010d578063b88d4fde116100a0578063d547cfb71161006f578063d547cfb714610698578063e8a3d485146106c3578063e985e9c5146106ee578063f2fde38b1461072b578063f5aa406d14610754576101ee565b8063b88d4fde146105e6578063b8a20ed014610602578063ba41b0c61461063f578063c87b56dd1461065b576101ee565b806395d89b41116100dc57806395d89b411461053c578063a035b1fe14610567578063a22cb46514610592578063a827b5ff146105bb576101ee565b80638720fbef146104945780638a333b50146104bd5780638ba4cc3c146104e85780638da5cb5b14610511576101ee565b8063386bfc981161018557806362b99ad41161015457806362b99ad4146103d85780636352211e1461040357806370a0823114610440578063715018a61461047d576101ee565b8063386bfc981461034f5780633ccfd60b1461037a57806342842e0e146103915780635503a0e8146103ad576101ee565b806311296660116101c157806311296660146102b457806318160ddd146102dd57806323b872dd146103085780632ab91bba14610324576101ee565b806301ffc9a7146101f357806306fdde0314610230578063081812fc1461025b578063095ea7b314610298575b600080fd5b3480156101ff57600080fd5b5061021a6004803603810190610215919061260c565b61077d565b6040516102279190612654565b60405180910390f35b34801561023c57600080fd5b5061024561080f565b6040516102529190612708565b60405180910390f35b34801561026757600080fd5b50610282600480360381019061027d9190612760565b6108a1565b60405161028f91906127ce565b60405180910390f35b6102b260048036038101906102ad9190612815565b610920565b005b3480156102c057600080fd5b506102db60048036038101906102d69190612760565b610a64565b005b3480156102e957600080fd5b506102f2610a76565b6040516102ff9190612864565b60405180910390f35b610322600480360381019061031d919061287f565b610a8d565b005b34801561033057600080fd5b50610339610c6f565b6040516103469190612654565b60405180910390f35b34801561035b57600080fd5b50610364610c82565b60405161037191906128eb565b60405180910390f35b34801561038657600080fd5b5061038f610c88565b005b6103ab60048036038101906103a6919061287f565b610cd9565b005b3480156103b957600080fd5b506103c2610ebb565b6040516103cf9190612708565b60405180910390f35b3480156103e457600080fd5b506103ed610f49565b6040516103fa9190612708565b60405180910390f35b34801561040f57600080fd5b5061042a60048036038101906104259190612760565b610fd7565b60405161043791906127ce565b60405180910390f35b34801561044c57600080fd5b5061046760048036038101906104629190612906565b610fe9565b6040516104749190612864565b60405180910390f35b34801561048957600080fd5b506104926110a1565b005b3480156104a057600080fd5b506104bb60048036038101906104b6919061295f565b6110b5565b005b3480156104c957600080fd5b506104d26110da565b6040516104df9190612864565b60405180910390f35b3480156104f457600080fd5b5061050f600480360381019061050a9190612815565b6110e0565b005b34801561051d57600080fd5b506105266110f6565b60405161053391906127ce565b60405180910390f35b34801561054857600080fd5b5061055161111f565b60405161055e9190612708565b60405180910390f35b34801561057357600080fd5b5061057c6111b1565b6040516105899190612864565b60405180910390f35b34801561059e57600080fd5b506105b960048036038101906105b4919061298c565b6111b7565b005b3480156105c757600080fd5b506105d06112c2565b6040516105dd9190612864565b60405180910390f35b61060060048036038101906105fb9190612b01565b6112c8565b005b34801561060e57600080fd5b5061062960048036038101906106249190612c78565b6114ad565b6040516106369190612654565b60405180910390f35b61065960048036038101906106549190612cd4565b6114c4565b005b34801561066757600080fd5b50610682600480360381019061067d9190612760565b611684565b60405161068f9190612708565b60405180910390f35b3480156106a457600080fd5b506106ad61172e565b6040516106ba9190612708565b60405180910390f35b3480156106cf57600080fd5b506106d861173d565b6040516106e59190612708565b60405180910390f35b3480156106fa57600080fd5b5061071560048036038101906107109190612d30565b61175d565b6040516107229190612654565b60405180910390f35b34801561073757600080fd5b50610752600480360381019061074d9190612906565b6117f1565b005b34801561076057600080fd5b5061077b60048036038101906107769190612d70565b611874565b005b60006301ffc9a760e01b827bffffffffffffffffffffffffffffffffffffffffffffffffffffffff191614806107d857506380ac58cd60e01b827bffffffffffffffffffffffffffffffffffffffffffffffffffffffff1916145b806108085750635b5e139f60e01b827bffffffffffffffffffffffffffffffffffffffffffffffffffffffff1916145b9050919050565b60606003805461081e90612dcc565b80601f016020809104026020016040519081016040528092919081815260200182805461084a90612dcc565b80156108975780601f1061086c57610100808354040283529160200191610897565b820191906000526020600020905b81548152906001019060200180831161087a57829003601f168201915b5050505050905090565b60006108ac82611886565b6108e2576040517fcf4700e400000000000000000000000000000000000000000000000000000000815260040160405180910390fd5b6007600083815260200190815260200160002060000160009054906101000a900473ffffffffffffffffffffffffffffffffffffffff169050919050565b600061092b82610fd7565b90508073ffffffffffffffffffffffffffffffffffffffff1661094c6118e5565b73ffffffffffffffffffffffffffffffffffffffff16146109af57610978816109736118e5565b61175d565b6109ae576040517fcfb3b94200000000000000000000000000000000000000000000000000000000815260040160405180910390fd5b5b826007600084815260200190815260200160002060000160006101000a81548173ffffffffffffffffffffffffffffffffffffffff021916908373ffffffffffffffffffffffffffffffffffffffff160217905550818373ffffffffffffffffffffffffffffffffffffffff168273ffffffffffffffffffffffffffffffffffffffff167f8c5be1e5ebec7d5bd14f71427d1e84f3dd0314c0f7b2291e5b200ac8c7c3b92560405160405180910390a4505050565b610a6c6118ed565b80600c8190555050565b6000610a8061196b565b6002546001540303905090565b8260006daaeb6d7670e522a718067333cd4e73ffffffffffffffffffffffffffffffffffffffff163b1115610c5d573373ffffffffffffffffffffffffffffffffffffffff168173ffffffffffffffffffffffffffffffffffffffff1603610aff57610afa848484611974565b610c69565b6daaeb6d7670e522a718067333cd4e73ffffffffffffffffffffffffffffffffffffffff1663c617113430336040518363ffffffff1660e01b8152600401610b48929190612dfd565b602060405180830381865afa158015610b65573d6000803e3d6000fd5b505050506040513d601f19601f82011682018060405250810190610b899190612e3b565b8015610c1b57506daaeb6d7670e522a718067333cd4e73ffffffffffffffffffffffffffffffffffffffff1663c617113430836040518363ffffffff1660e01b8152600401610bd9929190612dfd565b602060405180830381865afa158015610bf6573d6000803e3d6000fd5b505050506040513d601f19601f82011682018060405250810190610c1a9190612e3b565b5b610c5c57336040517fede71dcc000000000000000000000000000000000000000000000000000000008152600401610c5391906127ce565b60405180910390fd5b5b610c68848484611974565b5b50505050565b600f60009054906101000a900460ff1681565b600e5481565b610c906118ed565b3373ffffffffffffffffffffffffffffffffffffffff166108fc479081150290604051600060405180830381858888f19350505050158015610cd6573d6000803e3d6000fd5b50565b8260006daaeb6d7670e522a718067333cd4e73ffffffffffffffffffffffffffffffffffffffff163b1115610ea9573373ffffffffffffffffffffffffffffffffffffffff168173ffffffffffffffffffffffffffffffffffffffff1603610d4b57610d46848484611c96565b610eb5565b6daaeb6d7670e522a718067333cd4e73ffffffffffffffffffffffffffffffffffffffff1663c617113430336040518363ffffffff1660e01b8152600401610d94929190612dfd565b602060405180830381865afa158015610db1573d6000803e3d6000fd5b505050506040513d601f19601f82011682018060405250810190610dd59190612e3b565b8015610e6757506daaeb6d7670e522a718067333cd4e73ffffffffffffffffffffffffffffffffffffffff1663c617113430836040518363ffffffff1660e01b8152600401610e25929190612dfd565b602060405180830381865afa158015610e42573d6000803e3d6000fd5b505050506040513d601f19601f82011682018060405250810190610e669190612e3b565b5b610ea857336040517fede71dcc000000000000000000000000000000000000000000000000000000008152600401610e9f91906127ce565b60405180910390fd5b5b610eb4848484611c96565b5b50505050565b600a8054610ec890612dcc565b80601f0160208091040260200160405190810160405280929190818152602001828054610ef490612dcc565b8015610f415780601f10610f1657610100808354040283529160200191610f41565b820191906000526020600020905b815481529060010190602001808311610f2457829003601f168201915b505050505081565b60098054610f5690612dcc565b80601f0160208091040260200160405190810160405280929190818152602001828054610f8290612dcc565b8015610fcf5780601f10610fa457610100808354040283529160200191610fcf565b820191906000526020600020905b815481529060010190602001808311610fb257829003601f168201915b505050505081565b6000610fe282611cb6565b9050919050565b60008073ffffffffffffffffffffffffffffffffffffffff168273ffffffffffffffffffffffffffffffffffffffff1603611050576040517f8f4eb60400000000000000000000000000000000000000000000000000000000815260040160405180910390fd5b67ffffffffffffffff600660008473ffffffffffffffffffffffffffffffffffffffff1673ffffffffffffffffffffffffffffffffffffffff16815260200190815260200160002054169050919050565b6110a96118ed565b6110b36000611d82565b565b6110bd6118ed565b80600f60006101000a81548160ff02191690831515021790555050565b600b5481565b6110e86118ed565b6110f28282611e46565b5050565b60008060009054906101000a900473ffffffffffffffffffffffffffffffffffffffff16905090565b60606004805461112e90612dcc565b80601f016020809104026020016040519081016040528092919081815260200182805461115a90612dcc565b80156111a75780601f1061117c576101008083540402835291602001916111a7565b820191906000526020600020905b81548152906001019060200180831161118a57829003601f168201915b5050505050905090565b600d5481565b80600860006111c46118e5565b73ffffffffffffffffffffffffffffffffffffffff1673ffffffffffffffffffffffffffffffffffffffff16815260200190815260200160002060008473ffffffffffffffffffffffffffffffffffffffff1673ffffffffffffffffffffffffffffffffffffffff16815260200190815260200160002060006101000a81548160ff0219169083151502179055508173ffffffffffffffffffffffffffffffffffffffff166112716118e5565b73ffffffffffffffffffffffffffffffffffffffff167f17307eab39ab6107e8899845ad3d59bd9653f200f220920489ca2b5937696c31836040516112b69190612654565b60405180910390a35050565b600c5481565b8360006daaeb6d7670e522a718067333cd4e73ffffffffffffffffffffffffffffffffffffffff163b1115611499573373ffffffffffffffffffffffffffffffffffffffff168173ffffffffffffffffffffffffffffffffffffffff160361133b5761133685858585612002565b6114a6565b6daaeb6d7670e522a718067333cd4e73ffffffffffffffffffffffffffffffffffffffff1663c617113430336040518363ffffffff1660e01b8152600401611384929190612dfd565b602060405180830381865afa1580156113a1573d6000803e3d6000fd5b505050506040513d601f19601f820116820180604052508101906113c59190612e3b565b801561145757506daaeb6d7670e522a718067333cd4e73ffffffffffffffffffffffffffffffffffffffff1663c617113430836040518363ffffffff1660e01b8152600401611415929190612dfd565b602060405180830381865afa158015611432573d6000803e3d6000fd5b505050506040513d601f19601f820116820180604052508101906114569190612e3b565b5b61149857336040517fede71dcc00000000000000000000000000000000000000000000000000000000815260040161148f91906127ce565b60405180910390fd5b5b6114a585858585612002565b5b5050505050565b60006114bc83600e5484612075565b905092915050565b600c546114d033610fe9565b10611510576040517f08c379a000000000000000000000000000000000000000000000000000000000815260040161150790612eda565b60405180910390fd5b600b548261151c610a76565b6115269190612f29565b1115611567576040517f08c379a000000000000000000000000000000000000000000000000000000000815260040161155e90612ff1565b60405180910390fd5b600f60009054906101000a900460ff16806115ae57506115ad81336040516020016115929190613059565b604051602081830303815290604052805190602001206114ad565b5b6115ed576040517f08c379a00000000000000000000000000000000000000000000000000000000081526004016115e4906130c0565b60405180910390fd5b81600d546115fb91906130e0565b34101561163d576040517f08c379a0000000000000000000000000000000000000000000000000000000008152600401611634906131ac565b60405180910390fd5b6116473383611e46565b7f76020ece75bf679c701e656fcffc7e3df8354859b3b0eb7fee42b1378023bb3133836040516116789291906131cc565b60405180910390a15050565b606061168f82611886565b6116ce576040517f08c379a00000000000000000000000000000000000000000000000000000000081526004016116c590613267565b60405180910390fd5b60006116d861208c565b905060008151116116f85760405180602001604052806000815250611726565b80611702846120ac565b600a60405160200161171693929190613357565b6040516020818303038152906040525b915050919050565b606061173861208c565b905090565b606060405180608001604052806043815260200161365360439139905090565b6000600860008473ffffffffffffffffffffffffffffffffffffffff1673ffffffffffffffffffffffffffffffffffffffff16815260200190815260200160002060008373ffffffffffffffffffffffffffffffffffffffff1673ffffffffffffffffffffffffffffffffffffffff16815260200190815260200160002060009054906101000a900460ff16905092915050565b6117f96118ed565b600073ffffffffffffffffffffffffffffffffffffffff168173ffffffffffffffffffffffffffffffffffffffff1603611868576040517f08c379a000000000000000000000000000000000000000000000000000000000815260040161185f906133fa565b60405180910390fd5b61187181611d82565b50565b61187c6118ed565b80600e8190555050565b60008161189161196b565b111580156118a0575060015482105b80156118de575060007c0100000000000000000000000000000000000000000000000000000000600560008581526020019081526020016000205416145b9050919050565b600033905090565b6118f561217a565b73ffffffffffffffffffffffffffffffffffffffff166119136110f6565b73ffffffffffffffffffffffffffffffffffffffff1614611969576040517f08c379a000000000000000000000000000000000000000000000000000000000815260040161196090613466565b60405180910390fd5b565b60006001905090565b600061197f82611cb6565b90508373ffffffffffffffffffffffffffffffffffffffff168173ffffffffffffffffffffffffffffffffffffffff16146119e6576040517fa114810000000000000000000000000000000000000000000000000000000000815260040160405180910390fd5b6000806119f284612182565b91509150611a088187611a036118e5565b6121a9565b611a5457611a1d86611a186118e5565b61175d565b611a53576040517f59c896be00000000000000000000000000000000000000000000000000000000815260040160405180910390fd5b5b600073ffffffffffffffffffffffffffffffffffffffff168573ffffffffffffffffffffffffffffffffffffffff1603611aba576040517fea553b3400000000000000000000000000000000000000000000000000000000815260040160405180910390fd5b611ac786868660016121ed565b8015611ad257600082555b600660008773ffffffffffffffffffffffffffffffffffffffff1673ffffffffffffffffffffffffffffffffffffffff168152602001908152602001600020600081546001900391905081905550600660008673ffffffffffffffffffffffffffffffffffffffff1673ffffffffffffffffffffffffffffffffffffffff1681526020019081526020016000206000815460010191905081905550611ba085611b7c8888876121f3565b7c02000000000000000000000000000000000000000000000000000000001761221b565b600560008681526020019081526020016000208190555060007c0200000000000000000000000000000000000000000000000000000000841603611c265760006001850190506000600560008381526020019081526020016000205403611c24576001548114611c23578360056000838152602001908152602001600020819055505b5b505b838573ffffffffffffffffffffffffffffffffffffffff168773ffffffffffffffffffffffffffffffffffffffff167fddf252ad1be2c89b69c2b068fc378daa952ba7f163c4a11628f55a4df523b3ef60405160405180910390a4611c8e8686866001612246565b505050505050565b611cb1838383604051806020016040528060008152506112c8565b505050565b60008082905080611cc561196b565b11611d4b57600154811015611d4a5760006005600083815260200190815260200160002054905060007c0100000000000000000000000000000000000000000000000000000000821603611d48575b60008103611d3e576005600083600190039350838152602001908152602001600020549050611d14565b8092505050611d7d565b505b5b6040517fdf2d9b4200000000000000000000000000000000000000000000000000000000815260040160405180910390fd5b919050565b60008060009054906101000a900473ffffffffffffffffffffffffffffffffffffffff169050816000806101000a81548173ffffffffffffffffffffffffffffffffffffffff021916908373ffffffffffffffffffffffffffffffffffffffff1602179055508173ffffffffffffffffffffffffffffffffffffffff168173ffffffffffffffffffffffffffffffffffffffff167f8be0079c531659141344cd1fd0a4f28419497f9722a3daafe3b4186f6b6457e060405160405180910390a35050565b6000600154905060008203611e87576040517fb562e8dd00000000000000000000000000000000000000000000000000000000815260040160405180910390fd5b611e9460008483856121ed565b600160406001901b178202600660008573ffffffffffffffffffffffffffffffffffffffff1673ffffffffffffffffffffffffffffffffffffffff16815260200190815260200160002060008282540192505081905550611f0b83611efc60008660006121f3565b611f058561224c565b1761221b565b6005600083815260200190815260200160002081905550600080838301905073ffffffffffffffffffffffffffffffffffffffff85169150828260007fddf252ad1be2c89b69c2b068fc378daa952ba7f163c4a11628f55a4df523b3ef600080a4600183015b818114611fac57808360007fddf252ad1be2c89b69c2b068fc378daa952ba7f163c4a11628f55a4df523b3ef600080a4600181019050611f71565b5060008203611fe7576040517f2e07630000000000000000000000000000000000000000000000000000000000815260040160405180910390fd5b806001819055505050611ffd6000848385612246565b505050565b61200d848484610a8d565b60008373ffffffffffffffffffffffffffffffffffffffff163b1461206f576120388484848461225c565b61206e576040517fd1a57ed600000000000000000000000000000000000000000000000000000000815260040160405180910390fd5b5b50505050565b60008261208285846123ac565b1490509392505050565b606060405180608001604052806043815260200161361060439139905090565b6060600060016120bb84612402565b01905060008167ffffffffffffffff8111156120da576120d96129d6565b5b6040519080825280601f01601f19166020018201604052801561210c5781602001600182028036833780820191505090505b509050600082602001820190505b60011561216f578080600190039150507f3031323334353637383961626364656600000000000000000000000000000000600a86061a8153600a858161216357612162613486565b5b0494506000850361211a575b819350505050919050565b600033905090565b60008060006007600085815260200190815260200160002090508092508254915050915091565b600073ffffffffffffffffffffffffffffffffffffffff8316925073ffffffffffffffffffffffffffffffffffffffff821691508382148383141790509392505050565b50505050565b60008060e883901c905060e861220a868684612555565b62ffffff16901b9150509392505050565b600073ffffffffffffffffffffffffffffffffffffffff83169250814260a01b178317905092915050565b50505050565b60006001821460e11b9050919050565b60008373ffffffffffffffffffffffffffffffffffffffff1663150b7a026122826118e5565b8786866040518563ffffffff1660e01b81526004016122a4949392919061350a565b6020604051808303816000875af19250505080156122e057506040513d601f19601f820116820180604052508101906122dd919061356b565b60015b612359573d8060008114612310576040519150601f19603f3d011682016040523d82523d6000602084013e612315565b606091505b506000815103612351576040517fd1a57ed600000000000000000000000000000000000000000000000000000000815260040160405180910390fd5b805181602001fd5b63150b7a0260e01b7bffffffffffffffffffffffffffffffffffffffffffffffffffffffff1916817bffffffffffffffffffffffffffffffffffffffffffffffffffffffff191614915050949350505050565b60008082905060005b84518110156123f7576123e2828683815181106123d5576123d4613598565b5b602002602001015161255e565b915080806123ef906135c7565b9150506123b5565b508091505092915050565b600080600090507a184f03e93ff9f4daa797ed6e38ed64bf6a1f0100000000000000008310612460577a184f03e93ff9f4daa797ed6e38ed64bf6a1f010000000000000000838161245657612455613486565b5b0492506040810190505b6d04ee2d6d415b85acef8100000000831061249d576d04ee2d6d415b85acef8100000000838161249357612492613486565b5b0492506020810190505b662386f26fc1000083106124cc57662386f26fc1000083816124c2576124c1613486565b5b0492506010810190505b6305f5e10083106124f5576305f5e10083816124eb576124ea613486565b5b0492506008810190505b612710831061251a5761271083816125105761250f613486565b5b0492506004810190505b6064831061253d576064838161253357612532613486565b5b0492506002810190505b600a831061254c576001810190505b80915050919050565b60009392505050565b6000818310612576576125718284612589565b612581565b6125808383612589565b5b905092915050565b600082600052816020526040600020905092915050565b6000604051905090565b600080fd5b600080fd5b60007fffffffff0000000000000000000000000000000000000000000000000000000082169050919050565b6125e9816125b4565b81146125f457600080fd5b50565b600081359050612606816125e0565b92915050565b600060208284031215612622576126216125aa565b5b6000612630848285016125f7565b91505092915050565b60008115159050919050565b61264e81612639565b82525050565b60006020820190506126696000830184612645565b92915050565b600081519050919050565b600082825260208201905092915050565b60005b838110156126a957808201518184015260208101905061268e565b838111156126b8576000848401525b50505050565b6000601f19601f8301169050919050565b60006126da8261266f565b6126e4818561267a565b93506126f481856020860161268b565b6126fd816126be565b840191505092915050565b6000602082019050818103600083015261272281846126cf565b905092915050565b6000819050919050565b61273d8161272a565b811461274857600080fd5b50565b60008135905061275a81612734565b92915050565b600060208284031215612776576127756125aa565b5b60006127848482850161274b565b91505092915050565b600073ffffffffffffffffffffffffffffffffffffffff82169050919050565b60006127b88261278d565b9050919050565b6127c8816127ad565b82525050565b60006020820190506127e360008301846127bf565b92915050565b6127f2816127ad565b81146127fd57600080fd5b50565b60008135905061280f816127e9565b92915050565b6000806040838503121561282c5761282b6125aa565b5b600061283a85828601612800565b925050602061284b8582860161274b565b9150509250929050565b61285e8161272a565b82525050565b60006020820190506128796000830184612855565b92915050565b600080600060608486031215612898576128976125aa565b5b60006128a686828701612800565b93505060206128b786828701612800565b92505060406128c88682870161274b565b9150509250925092565b6000819050919050565b6128e5816128d2565b82525050565b600060208201905061290060008301846128dc565b92915050565b60006020828403121561291c5761291b6125aa565b5b600061292a84828501612800565b91505092915050565b61293c81612639565b811461294757600080fd5b50565b60008135905061295981612933565b92915050565b600060208284031215612975576129746125aa565b5b60006129838482850161294a565b91505092915050565b600080604083850312156129a3576129a26125aa565b5b60006129b185828601612800565b92505060206129c28582860161294a565b9150509250929050565b600080fd5b600080fd5b7f4e487b7100000000000000000000000000000000000000000000000000000000600052604160045260246000fd5b612a0e826126be565b810181811067ffffffffffffffff82111715612a2d57612a2c6129d6565b5b80604052505050565b6000612a406125a0565b9050612a4c8282612a05565b919050565b600067ffffffffffffffff821115612a6c57612a6b6129d6565b5b612a75826126be565b9050602081019050919050565b82818337600083830152505050565b6000612aa4612a9f84612a51565b612a36565b905082815260208101848484011115612ac057612abf6129d1565b5b612acb848285612a82565b509392505050565b600082601f830112612ae857612ae76129cc565b5b8135612af8848260208601612a91565b91505092915050565b60008060008060808587031215612b1b57612b1a6125aa565b5b6000612b2987828801612800565b9450506020612b3a87828801612800565b9350506040612b4b8782880161274b565b925050606085013567ffffffffffffffff811115612b6c57612b6b6125af565b5b612b7887828801612ad3565b91505092959194509250565b600067ffffffffffffffff821115612b9f57612b9e6129d6565b5b602082029050602081019050919050565b600080fd5b612bbe816128d2565b8114612bc957600080fd5b50565b600081359050612bdb81612bb5565b92915050565b6000612bf4612bef84612b84565b612a36565b90508083825260208201905060208402830185811115612c1757612c16612bb0565b5b835b81811015612c405780612c2c8882612bcc565b845260208401935050602081019050612c19565b5050509392505050565b600082601f830112612c5f57612c5e6129cc565b5b8135612c6f848260208601612be1565b91505092915050565b60008060408385031215612c8f57612c8e6125aa565b5b600083013567ffffffffffffffff811115612cad57612cac6125af565b5b612cb985828601612c4a565b9250506020612cca85828601612bcc565b9150509250929050565b60008060408385031215612ceb57612cea6125aa565b5b6000612cf98582860161274b565b925050602083013567ffffffffffffffff811115612d1a57612d196125af565b5b612d2685828601612c4a565b9150509250929050565b60008060408385031215612d4757612d466125aa565b5b6000612d5585828601612800565b9250506020612d6685828601612800565b9150509250929050565b600060208284031215612d8657612d856125aa565b5b6000612d9484828501612bcc565b91505092915050565b7f4e487b7100000000000000000000000000000000000000000000000000000000600052602260045260246000fd5b60006002820490506001821680612de457607f821691505b602082108103612df757612df6612d9d565b5b50919050565b6000604082019050612e1260008301856127bf565b612e1f60208301846127bf565b9392505050565b600081519050612e3581612933565b92915050565b600060208284031215612e5157612e506125aa565b5b6000612e5f84828501612e26565b91505092915050565b7f456163682061646472657373206d6179206f6e6c79206d696e742078204e465460008201527f7321000000000000000000000000000000000000000000000000000000000000602082015250565b6000612ec460228361267a565b9150612ecf82612e68565b604082019050919050565b60006020820190508181036000830152612ef381612eb7565b9050919050565b7f4e487b7100000000000000000000000000000000000000000000000000000000600052601160045260246000fd5b6000612f348261272a565b9150612f3f8361272a565b9250827fffffffffffffffffffffffffffffffffffffffffffffffffffffffffffffffff03821115612f7457612f73612efa565b5b828201905092915050565b7f43616e2774206d696e74206d6f7265207468616e20746f74616c20737570706c60008201527f7900000000000000000000000000000000000000000000000000000000000000602082015250565b6000612fdb60218361267a565b9150612fe682612f7f565b604082019050919050565b6000602082019050818103600083015261300a81612fce565b9050919050565b60008160601b9050919050565b600061302982613011565b9050919050565b600061303b8261301e565b9050919050565b61305361304e826127ad565b613030565b82525050565b60006130658284613042565b60148201915081905092915050565b7f596f7520617265206e6f742077686974656c6973746564000000000000000000600082015250565b60006130aa60178361267a565b91506130b582613074565b602082019050919050565b600060208201905081810360008301526130d98161309d565b9050919050565b60006130eb8261272a565b91506130f68361272a565b9250817fffffffffffffffffffffffffffffffffffffffffffffffffffffffffffffffff048311821515161561312f5761312e612efa565b5b828202905092915050565b7f4e6f7420656e6f756768204554482073656e743b20636865636b20707269636560008201527f2100000000000000000000000000000000000000000000000000000000000000602082015250565b600061319660218361267a565b91506131a18261313a565b604082019050919050565b600060208201905081810360008301526131c581613189565b9050919050565b60006040820190506131e160008301856127bf565b6131ee6020830184612855565b9392505050565b7f4552433732314d657461646174613a2055524920717565727920666f72206e6f60008201527f6e6578697374656e7420746f6b656e0000000000000000000000000000000000602082015250565b6000613251602f8361267a565b915061325c826131f5565b604082019050919050565b6000602082019050818103600083015261328081613244565b9050919050565b600081905092915050565b600061329d8261266f565b6132a78185613287565b93506132b781856020860161268b565b80840191505092915050565b60008190508160005260206000209050919050565b600081546132e581612dcc565b6132ef8186613287565b9450600182166000811461330a576001811461331b5761334e565b60ff1983168652818601935061334e565b613324856132c3565b60005b8381101561334657815481890152600182019150602081019050613327565b838801955050505b50505092915050565b60006133638286613292565b915061336f8285613292565b915061337b82846132d8565b9150819050949350505050565b7f4f776e61626c653a206e6577206f776e657220697320746865207a65726f206160008201527f6464726573730000000000000000000000000000000000000000000000000000602082015250565b60006133e460268361267a565b91506133ef82613388565b604082019050919050565b60006020820190508181036000830152613413816133d7565b9050919050565b7f4f776e61626c653a2063616c6c6572206973206e6f7420746865206f776e6572600082015250565b600061345060208361267a565b915061345b8261341a565b602082019050919050565b6000602082019050818103600083015261347f81613443565b9050919050565b7f4e487b7100000000000000000000000000000000000000000000000000000000600052601260045260246000fd5b600081519050919050565b600082825260208201905092915050565b60006134dc826134b5565b6134e681856134c0565b93506134f681856020860161268b565b6134ff816126be565b840191505092915050565b600060808201905061351f60008301876127bf565b61352c60208301866127bf565b6135396040830185612855565b818103606083015261354b81846134d1565b905095945050505050565b600081519050613565816125e0565b92915050565b600060208284031215613581576135806125aa565b5b600061358f84828501613556565b91505092915050565b7f4e487b7100000000000000000000000000000000000000000000000000000000600052603260045260246000fd5b60006135d28261272a565b91507fffffffffffffffffffffffffffffffffffffffffffffffffffffffffffffffff820361360457613603612efa565b5b60018201905091905056fe697066733a2f2f626166796265696168656b63656b71377a716e6674327763626b6e626b367973666d7336646a353775736b696c74676276613463666964656d63712f697066733a2f2f6261666b72656967723374346872716d6d6436376d356968356965696f3766697434786d33706835656f7071346f32337a336f356a6d7a697365652fa264697066735822122032ccd2f52ade5ba21eb46f0a9308f0b0747810e786da6ea1a9c5f4bf25cc582264736f6c634300080d0033",
  "linkReferences": {},
  "deployedLinkReferences": {}
}