{
  "_format": "hh-sol-artifact-1",
  "contractName": "NFT",
  "sourceName": "src/backend/contracts/NFT.sol",
  "abi": [
    {
      "inputs": [
        {
          "internalType": "address",
          "name": "_ownerAddress",
          "type": "address"
        },
        {
          "internalType": "bytes32",
          "name": "_whitelistRoot",
          "type": "bytes32"
        },
        {
          "internalType": "address[]",
          "name": "_minterAddresses",
          "type": "address[]"
        },
        {
          "internalType": "uint256[]",
          "name": "_tokenAmount",
          "type": "uint256[]"
        }
      ],
      "stateMutability": "nonpayable",
      "type": "constructor"
    },
    {
      "inputs": [],
      "name": "ApprovalCallerNotOwnerNorApproved",
      "type": "error"
    },
    {
      "inputs": [],
      "name": "ApprovalQueryForNonexistentToken",
      "type": "error"
    },
    {
      "inputs": [],
      "name": "BalanceQueryForZeroAddress",
      "type": "error"
    },
    {
      "inputs": [],
      "name": "MintERC2309QuantityExceedsLimit",
      "type": "error"
    },
    {
      "inputs": [],
      "name": "MintToZeroAddress",
      "type": "error"
    },
    {
      "inputs": [],
      "name": "MintZeroQuantity",
      "type": "error"
    },
    {
      "inputs": [
        {
          "internalType": "address",
          "name": "operator",
          "type": "address"
        }
      ],
      "name": "OperatorNotAllowed",
      "type": "error"
    },
    {
      "inputs": [],
      "name": "OwnerQueryForNonexistentToken",
      "type": "error"
    },
    {
      "inputs": [],
      "name": "OwnershipNotInitializedForExtraData",
      "type": "error"
    },
    {
      "inputs": [],
      "name": "TransferCallerNotOwnerNorApproved",
      "type": "error"
    },
    {
      "inputs": [],
      "name": "TransferFromIncorrectOwner",
      "type": "error"
    },
    {
      "inputs": [],
      "name": "TransferToNonERC721ReceiverImplementer",
      "type": "error"
    },
    {
      "inputs": [],
      "name": "TransferToZeroAddress",
      "type": "error"
    },
    {
      "inputs": [],
      "name": "URIQueryForNonexistentToken",
      "type": "error"
    },
    {
      "anonymous": false,
      "inputs": [
        {
          "indexed": true,
          "internalType": "address",
          "name": "owner",
          "type": "address"
        },
        {
          "indexed": true,
          "internalType": "address",
          "name": "approved",
          "type": "address"
        },
        {
          "indexed": true,
          "internalType": "uint256",
          "name": "tokenId",
          "type": "uint256"
        }
      ],
      "name": "Approval",
      "type": "event"
    },
    {
      "anonymous": false,
      "inputs": [
        {
          "indexed": true,
          "internalType": "address",
          "name": "owner",
          "type": "address"
        },
        {
          "indexed": true,
          "internalType": "address",
          "name": "operator",
          "type": "address"
        },
        {
          "indexed": false,
          "internalType": "bool",
          "name": "approved",
          "type": "bool"
        }
      ],
      "name": "ApprovalForAll",
      "type": "event"
    },
    {
      "anonymous": false,
      "inputs": [
        {
          "indexed": true,
          "internalType": "uint256",
          "name": "fromTokenId",
          "type": "uint256"
        },
        {
          "indexed": false,
          "internalType": "uint256",
          "name": "toTokenId",
          "type": "uint256"
        },
        {
          "indexed": true,
          "internalType": "address",
          "name": "from",
          "type": "address"
        },
        {
          "indexed": true,
          "internalType": "address",
          "name": "to",
          "type": "address"
        }
      ],
      "name": "ConsecutiveTransfer",
      "type": "event"
    },
    {
      "anonymous": false,
      "inputs": [
        {
          "indexed": false,
          "internalType": "address",
          "name": "user",
          "type": "address"
        },
        {
          "indexed": false,
          "internalType": "uint256",
          "name": "totalSupplyBeforeMint",
          "type": "uint256"
        },
        {
          "indexed": false,
          "internalType": "uint256",
          "name": "_quantity",
          "type": "uint256"
        }
      ],
      "name": "MintSuccessful",
      "type": "event"
    },
    {
      "anonymous": false,
      "inputs": [
        {
          "indexed": true,
          "internalType": "address",
          "name": "previousOwner",
          "type": "address"
        },
        {
          "indexed": true,
          "internalType": "address",
          "name": "newOwner",
          "type": "address"
        }
      ],
      "name": "OwnershipTransferred",
      "type": "event"
    },
    {
      "anonymous": false,
      "inputs": [
        {
          "indexed": true,
          "internalType": "address",
          "name": "from",
          "type": "address"
        },
        {
          "indexed": true,
          "internalType": "address",
          "name": "to",
          "type": "address"
        },
        {
          "indexed": true,
          "internalType": "uint256",
          "name": "tokenId",
          "type": "uint256"
        }
      ],
      "name": "Transfer",
      "type": "event"
    },
    {
      "inputs": [
        {
          "internalType": "address",
          "name": "_user",
          "type": "address"
        },
        {
          "internalType": "uint256",
          "name": "_quantity",
          "type": "uint256"
        }
      ],
      "name": "airdrop",
      "outputs": [],
      "stateMutability": "nonpayable",
      "type": "function"
    },
    {
      "inputs": [],
      "name": "amountMintPerAccount",
      "outputs": [
        {
          "internalType": "uint256",
          "name": "",
          "type": "uint256"
        }
      ],
      "stateMutability": "view",
      "type": "function"
    },
    {
      "inputs": [
        {
          "internalType": "address",
          "name": "to",
          "type": "address"
        },
        {
          "internalType": "uint256",
          "name": "tokenId",
          "type": "uint256"
        }
      ],
      "name": "approve",
      "outputs": [],
      "stateMutability": "payable",
      "type": "function"
    },
    {
      "inputs": [
        {
          "internalType": "address",
          "name": "owner",
          "type": "address"
        }
      ],
      "name": "balanceOf",
      "outputs": [
        {
          "internalType": "uint256",
          "name": "",
          "type": "uint256"
        }
      ],
      "stateMutability": "view",
      "type": "function"
    },
    {
      "inputs": [],
      "name": "baseTokenURI",
      "outputs": [
        {
          "internalType": "string",
          "name": "",
          "type": "string"
        }
      ],
      "stateMutability": "pure",
      "type": "function"
    },
    {
      "inputs": [],
      "name": "contractURI",
      "outputs": [
        {
          "internalType": "string",
          "name": "",
          "type": "string"
        }
      ],
      "stateMutability": "pure",
      "type": "function"
    },
    {
      "inputs": [
        {
          "internalType": "uint256",
          "name": "tokenId",
          "type": "uint256"
        }
      ],
      "name": "getApproved",
      "outputs": [
        {
          "internalType": "address",
          "name": "",
          "type": "address"
        }
      ],
      "stateMutability": "view",
      "type": "function"
    },
    {
      "inputs": [
        {
          "internalType": "address",
          "name": "owner",
          "type": "address"
        },
        {
          "internalType": "address",
          "name": "operator",
          "type": "address"
        }
      ],
      "name": "isApprovedForAll",
      "outputs": [
        {
          "internalType": "bool",
          "name": "",
          "type": "bool"
        }
      ],
      "stateMutability": "view",
      "type": "function"
    },
    {
      "inputs": [
        {
          "internalType": "bytes32[]",
          "name": "_proof",
          "type": "bytes32[]"
        },
        {
          "internalType": "bytes32",
          "name": "_leaf",
          "type": "bytes32"
        }
      ],
      "name": "isValid",
      "outputs": [
        {
          "internalType": "bool",
          "name": "",
          "type": "bool"
        }
      ],
      "stateMutability": "view",
      "type": "function"
    },
    {
      "inputs": [],
      "name": "max_supply",
      "outputs": [
        {
          "internalType": "uint256",
          "name": "",
          "type": "uint256"
        }
      ],
      "stateMutability": "view",
      "type": "function"
    },
    {
      "inputs": [
        {
          "internalType": "uint256",
          "name": "_quantity",
          "type": "uint256"
        },
        {
          "internalType": "bytes32[]",
          "name": "_proof",
          "type": "bytes32[]"
        }
      ],
      "name": "mint",
      "outputs": [],
      "stateMutability": "payable",
      "type": "function"
    },
    {
      "inputs": [],
      "name": "name",
      "outputs": [
        {
          "internalType": "string",
          "name": "",
          "type": "string"
        }
      ],
      "stateMutability": "view",
      "type": "function"
    },
    {
      "inputs": [],
      "name": "owner",
      "outputs": [
        {
          "internalType": "address",
          "name": "",
          "type": "address"
        }
      ],
      "stateMutability": "view",
      "type": "function"
    },
    {
      "inputs": [
        {
          "internalType": "uint256",
          "name": "tokenId",
          "type": "uint256"
        }
      ],
      "name": "ownerOf",
      "outputs": [
        {
          "internalType": "address",
          "name": "",
          "type": "address"
        }
      ],
      "stateMutability": "view",
      "type": "function"
    },
    {
      "inputs": [],
      "name": "price",
      "outputs": [
        {
          "internalType": "uint256",
          "name": "",
          "type": "uint256"
        }
      ],
      "stateMutability": "view",
      "type": "function"
    },
    {
      "inputs": [],
      "name": "publicSaleEnabled",
      "outputs": [
        {
          "internalType": "bool",
          "name": "",
          "type": "bool"
        }
      ],
      "stateMutability": "view",
      "type": "function"
    },
    {
      "inputs": [],
      "name": "renounceOwnership",
      "outputs": [],
      "stateMutability": "nonpayable",
      "type": "function"
    },
    {
      "inputs": [
        {
          "internalType": "address",
          "name": "from",
          "type": "address"
        },
        {
          "internalType": "address",
          "name": "to",
          "type": "address"
        },
        {
          "internalType": "uint256",
          "name": "tokenId",
          "type": "uint256"
        }
      ],
      "name": "safeTransferFrom",
      "outputs": [],
      "stateMutability": "payable",
      "type": "function"
    },
    {
      "inputs": [
        {
          "internalType": "address",
          "name": "from",
          "type": "address"
        },
        {
          "internalType": "address",
          "name": "to",
          "type": "address"
        },
        {
          "internalType": "uint256",
          "name": "tokenId",
          "type": "uint256"
        },
        {
          "internalType": "bytes",
          "name": "data",
          "type": "bytes"
        }
      ],
      "name": "safeTransferFrom",
      "outputs": [],
      "stateMutability": "payable",
      "type": "function"
    },
    {
      "inputs": [
        {
          "internalType": "uint256",
          "name": "_amountMintPerAccount",
          "type": "uint256"
        }
      ],
      "name": "setAmountMintPerAccount",
      "outputs": [],
      "stateMutability": "nonpayable",
      "type": "function"
    },
    {
      "inputs": [
        {
          "internalType": "address",
          "name": "operator",
          "type": "address"
        },
        {
          "internalType": "bool",
          "name": "approved",
          "type": "bool"
        }
      ],
      "name": "setApprovalForAll",
      "outputs": [],
      "stateMutability": "nonpayable",
      "type": "function"
    },
    {
      "inputs": [
        {
          "internalType": "bool",
          "name": "_state",
          "type": "bool"
        }
      ],
      "name": "setPublicSaleEnabled",
      "outputs": [],
      "stateMutability": "nonpayable",
      "type": "function"
    },
    {
      "inputs": [
        {
          "internalType": "bytes32",
          "name": "_whitelistRoot",
          "type": "bytes32"
        }
      ],
      "name": "setWhitelistRoot",
      "outputs": [],
      "stateMutability": "nonpayable",
      "type": "function"
    },
    {
      "inputs": [
        {
          "internalType": "bytes4",
          "name": "interfaceId",
          "type": "bytes4"
        }
      ],
      "name": "supportsInterface",
      "outputs": [
        {
          "internalType": "bool",
          "name": "",
          "type": "bool"
        }
      ],
      "stateMutability": "view",
      "type": "function"
    },
    {
      "inputs": [],
      "name": "symbol",
      "outputs": [
        {
          "internalType": "string",
          "name": "",
          "type": "string"
        }
      ],
      "stateMutability": "view",
      "type": "function"
    },
    {
      "inputs": [
        {
          "internalType": "uint256",
          "name": "_tokenId",
          "type": "uint256"
        }
      ],
      "name": "tokenURI",
      "outputs": [
        {
          "internalType": "string",
          "name": "",
          "type": "string"
        }
      ],
      "stateMutability": "view",
      "type": "function"
    },
    {
      "inputs": [],
      "name": "totalSupply",
      "outputs": [
        {
          "internalType": "uint256",
          "name": "",
          "type": "uint256"
        }
      ],
      "stateMutability": "view",
      "type": "function"
    },
    {
      "inputs": [
        {
          "internalType": "address",
          "name": "from",
          "type": "address"
        },
        {
          "internalType": "address",
          "name": "to",
          "type": "address"
        },
        {
          "internalType": "uint256",
          "name": "tokenId",
          "type": "uint256"
        }
      ],
      "name": "transferFrom",
      "outputs": [],
      "stateMutability": "payable",
      "type": "function"
    },
    {
      "inputs": [
        {
          "internalType": "address",
          "name": "newOwner",
          "type": "address"
        }
      ],
      "name": "transferOwnership",
      "outputs": [],
      "stateMutability": "nonpayable",
      "type": "function"
    },
    {
      "inputs": [],
      "name": "uriPrefix",
      "outputs": [
        {
          "internalType": "string",
          "name": "",
          "type": "string"
        }
      ],
      "stateMutability": "view",
      "type": "function"
    },
    {
      "inputs": [],
      "name": "uriSuffix",
      "outputs": [
        {
          "internalType": "string",
          "name": "",
          "type": "string"
        }
      ],
      "stateMutability": "view",
      "type": "function"
    },
    {
      "inputs": [],
      "name": "whitelistRoot",
      "outputs": [
        {
          "internalType": "bytes32",
          "name": "",
          "type": "bytes32"
        }
      ],
      "stateMutability": "view",
      "type": "function"
    },
    {
      "inputs": [],
      "name": "withdraw",
      "outputs": [],
      "stateMutability": "nonpayable",
      "type": "function"
    }
  ],
  "bytecode": "0x608060405260405180602001604052806000815250600990805190602001906200002b929190620007be565b506040518060400160405280600581526020017f2e6a736f6e000000000000000000000000000000000000000000000000000000815250600a908051906020019062000079929190620007be565b506101f4600b556008600c5566470de4df820000600d553480156200009d57600080fd5b5060405162004507380380620045078339818101604052810190620000c3919062000ba8565b733cc6cdda760b79bafa08df41ecfa224f810dceb660016040518060400160405280600d81526020017f4d7973746963204d6f746f7273000000000000000000000000000000000000008152506040518060400160405280600681526020017f4d59535449430000000000000000000000000000000000000000000000000000815250620001666200015a6200048160201b60201c565b6200048960201b60201c565b81600390805190602001906200017e929190620007be565b50806004908051906020019062000197929190620007be565b50620001a86200054d60201b60201c565b600181905550505060006daaeb6d7670e522a718067333cd4e73ffffffffffffffffffffffffffffffffffffffff163b1115620003a55780156200026b576daaeb6d7670e522a718067333cd4e73ffffffffffffffffffffffffffffffffffffffff16637d3e3dbe30846040518363ffffffff1660e01b81526004016200023192919062000c69565b600060405180830381600087803b1580156200024c57600080fd5b505af115801562000261573d6000803e3d6000fd5b50505050620003a4565b600073ffffffffffffffffffffffffffffffffffffffff168273ffffffffffffffffffffffffffffffffffffffff161462000325576daaeb6d7670e522a718067333cd4e73ffffffffffffffffffffffffffffffffffffffff1663a0af290330846040518363ffffffff1660e01b8152600401620002eb92919062000c69565b600060405180830381600087803b1580156200030657600080fd5b505af11580156200031b573d6000803e3d6000fd5b50505050620003a3565b6daaeb6d7670e522a718067333cd4e73ffffffffffffffffffffffffffffffffffffffff16634420e486306040518263ffffffff1660e01b81526004016200036e919062000c96565b600060405180830381600087803b1580156200038957600080fd5b505af11580156200039e573d6000803e3d6000fd5b505050505b5b5b505082600e81905550620003bf846200048960201b60201c565b60008251905060008251905080821462000410576040517f08c379a0000000000000000000000000000000000000000000000000000000008152600401620004079062000d60565b60405180910390fd5b60005b8281101562000474576200046885828151811062000436576200043562000d82565b5b602002602001015185838151811062000454576200045362000d82565b5b60200260200101516200055660201b60201c565b80600101905062000413565b5050505050505062000e15565b600033905090565b60008060009054906101000a900473ffffffffffffffffffffffffffffffffffffffff169050816000806101000a81548173ffffffffffffffffffffffffffffffffffffffff021916908373ffffffffffffffffffffffffffffffffffffffff1602179055508173ffffffffffffffffffffffffffffffffffffffff168173ffffffffffffffffffffffffffffffffffffffff167f8be0079c531659141344cd1fd0a4f28419497f9722a3daafe3b4186f6b6457e060405160405180910390a35050565b60006001905090565b600060015490506000820362000598576040517fb562e8dd00000000000000000000000000000000000000000000000000000000815260040160405180910390fd5b620005ad60008483856200073e60201b60201c565b600160406001901b178202600660008573ffffffffffffffffffffffffffffffffffffffff1673ffffffffffffffffffffffffffffffffffffffff168152602001908152602001600020600082825401925050819055506200063c836200061e60008660006200074460201b60201c565b6200062f856200077460201b60201c565b176200078460201b60201c565b6005600083815260200190815260200160002081905550600080838301905073ffffffffffffffffffffffffffffffffffffffff85169150828260007fddf252ad1be2c89b69c2b068fc378daa952ba7f163c4a11628f55a4df523b3ef600080a4600183015b818114620006df57808360007fddf252ad1be2c89b69c2b068fc378daa952ba7f163c4a11628f55a4df523b3ef600080a4600181019050620006a2565b50600082036200071b576040517f2e07630000000000000000000000000000000000000000000000000000000000815260040160405180910390fd5b806001819055505050620007396000848385620007af60201b60201c565b505050565b50505050565b60008060e883901c905060e862000763868684620007b560201b60201c565b62ffffff16901b9150509392505050565b60006001821460e11b9050919050565b600073ffffffffffffffffffffffffffffffffffffffff83169250814260a01b178317905092915050565b50505050565b60009392505050565b828054620007cc9062000de0565b90600052602060002090601f016020900481019282620007f057600085556200083c565b82601f106200080b57805160ff19168380011785556200083c565b828001600101855582156200083c579182015b828111156200083b5782518255916020019190600101906200081e565b5b5090506200084b91906200084f565b5090565b5b808211156200086a57600081600090555060010162000850565b5090565b6000604051905090565b600080fd5b600080fd5b600073ffffffffffffffffffffffffffffffffffffffff82169050919050565b6000620008af8262000882565b9050919050565b620008c181620008a2565b8114620008cd57600080fd5b50565b600081519050620008e181620008b6565b92915050565b6000819050919050565b620008fc81620008e7565b81146200090857600080fd5b50565b6000815190506200091c81620008f1565b92915050565b600080fd5b6000601f19601f8301169050919050565b7f4e487b7100000000000000000000000000000000000000000000000000000000600052604160045260246000fd5b620009728262000927565b810181811067ffffffffffffffff8211171562000994576200099362000938565b5b80604052505050565b6000620009a96200086e565b9050620009b7828262000967565b919050565b600067ffffffffffffffff821115620009da57620009d962000938565b5b602082029050602081019050919050565b600080fd5b600062000a0762000a0184620009bc565b6200099d565b9050808382526020820190506020840283018581111562000a2d5762000a2c620009eb565b5b835b8181101562000a5a578062000a458882620008d0565b84526020840193505060208101905062000a2f565b5050509392505050565b600082601f83011262000a7c5762000a7b62000922565b5b815162000a8e848260208601620009f0565b91505092915050565b600067ffffffffffffffff82111562000ab55762000ab462000938565b5b602082029050602081019050919050565b6000819050919050565b62000adb8162000ac6565b811462000ae757600080fd5b50565b60008151905062000afb8162000ad0565b92915050565b600062000b1862000b128462000a97565b6200099d565b9050808382526020820190506020840283018581111562000b3e5762000b3d620009eb565b5b835b8181101562000b6b578062000b56888262000aea565b84526020840193505060208101905062000b40565b5050509392505050565b600082601f83011262000b8d5762000b8c62000922565b5b815162000b9f84826020860162000b01565b91505092915050565b6000806000806080858703121562000bc55762000bc462000878565b5b600062000bd587828801620008d0565b945050602062000be8878288016200090b565b935050604085015167ffffffffffffffff81111562000c0c5762000c0b6200087d565b5b62000c1a8782880162000a64565b925050606085015167ffffffffffffffff81111562000c3e5762000c3d6200087d565b5b62000c4c8782880162000b75565b91505092959194509250565b62000c6381620008a2565b82525050565b600060408201905062000c80600083018562000c58565b62000c8f602083018462000c58565b9392505050565b600060208201905062000cad600083018462000c58565b92915050565b600082825260208201905092915050565b7f4d696e7465722041646472657373657320616e6420546f6b656e20416d6f756e60008201527f7420617272617973206e65656420746f2068617665207468652073616d65207360208201527f697a652e00000000000000000000000000000000000000000000000000000000604082015250565b600062000d4860448362000cb3565b915062000d558262000cc4565b606082019050919050565b6000602082019050818103600083015262000d7b8162000d39565b9050919050565b7f4e487b7100000000000000000000000000000000000000000000000000000000600052603260045260246000fd5b7f4e487b7100000000000000000000000000000000000000000000000000000000600052602260045260246000fd5b6000600282049050600182168062000df957607f821691505b60208210810362000e0f5762000e0e62000db1565b5b50919050565b6136e28062000e256000396000f3fe6080604052600436106101ee5760003560e01c80638720fbef1161010d578063b88d4fde116100a0578063d547cfb71161006f578063d547cfb714610698578063e8a3d485146106c3578063e985e9c5146106ee578063f2fde38b1461072b578063f5aa406d14610754576101ee565b8063b88d4fde146105e6578063b8a20ed014610602578063ba41b0c61461063f578063c87b56dd1461065b576101ee565b806395d89b41116100dc57806395d89b411461053c578063a035b1fe14610567578063a22cb46514610592578063a827b5ff146105bb576101ee565b80638720fbef146104945780638a333b50146104bd5780638ba4cc3c146104e85780638da5cb5b14610511576101ee565b8063386bfc981161018557806362b99ad41161015457806362b99ad4146103d85780636352211e1461040357806370a0823114610440578063715018a61461047d576101ee565b8063386bfc981461034f5780633ccfd60b1461037a57806342842e0e146103915780635503a0e8146103ad576101ee565b806311296660116101c157806311296660146102b457806318160ddd146102dd57806323b872dd146103085780632ab91bba14610324576101ee565b806301ffc9a7146101f357806306fdde0314610230578063081812fc1461025b578063095ea7b314610298575b600080fd5b3480156101ff57600080fd5b5061021a60048036038101906102159190612615565b61077d565b604051610227919061265d565b60405180910390f35b34801561023c57600080fd5b5061024561080f565b6040516102529190612711565b60405180910390f35b34801561026757600080fd5b50610282600480360381019061027d9190612769565b6108a1565b60405161028f91906127d7565b60405180910390f35b6102b260048036038101906102ad919061281e565b610920565b005b3480156102c057600080fd5b506102db60048036038101906102d69190612769565b610a64565b005b3480156102e957600080fd5b506102f2610a76565b6040516102ff919061286d565b60405180910390f35b610322600480360381019061031d9190612888565b610a8d565b005b34801561033057600080fd5b50610339610c6f565b604051610346919061265d565b60405180910390f35b34801561035b57600080fd5b50610364610c82565b60405161037191906128f4565b60405180910390f35b34801561038657600080fd5b5061038f610c88565b005b6103ab60048036038101906103a69190612888565b610cd9565b005b3480156103b957600080fd5b506103c2610ebb565b6040516103cf9190612711565b60405180910390f35b3480156103e457600080fd5b506103ed610f49565b6040516103fa9190612711565b60405180910390f35b34801561040f57600080fd5b5061042a60048036038101906104259190612769565b610fd7565b60405161043791906127d7565b60405180910390f35b34801561044c57600080fd5b506104676004803603810190610462919061290f565b610fe9565b604051610474919061286d565b60405180910390f35b34801561048957600080fd5b506104926110a1565b005b3480156104a057600080fd5b506104bb60048036038101906104b69190612968565b6110b5565b005b3480156104c957600080fd5b506104d26110da565b6040516104df919061286d565b60405180910390f35b3480156104f457600080fd5b5061050f600480360381019061050a919061281e565b6110e0565b005b34801561051d57600080fd5b506105266110f6565b60405161053391906127d7565b60405180910390f35b34801561054857600080fd5b5061055161111f565b60405161055e9190612711565b60405180910390f35b34801561057357600080fd5b5061057c6111b1565b604051610589919061286d565b60405180910390f35b34801561059e57600080fd5b506105b960048036038101906105b49190612995565b6111b7565b005b3480156105c757600080fd5b506105d06112c2565b6040516105dd919061286d565b60405180910390f35b61060060048036038101906105fb9190612b0a565b6112c8565b005b34801561060e57600080fd5b5061062960048036038101906106249190612c81565b6114ad565b604051610636919061265d565b60405180910390f35b61065960048036038101906106549190612cdd565b6114c4565b005b34801561066757600080fd5b50610682600480360381019061067d9190612769565b61168d565b60405161068f9190612711565b60405180910390f35b3480156106a457600080fd5b506106ad611737565b6040516106ba9190612711565b60405180910390f35b3480156106cf57600080fd5b506106d8611746565b6040516106e59190612711565b60405180910390f35b3480156106fa57600080fd5b5061071560048036038101906107109190612d39565b611766565b604051610722919061265d565b60405180910390f35b34801561073757600080fd5b50610752600480360381019061074d919061290f565b6117fa565b005b34801561076057600080fd5b5061077b60048036038101906107769190612d79565b61187d565b005b60006301ffc9a760e01b827bffffffffffffffffffffffffffffffffffffffffffffffffffffffff191614806107d857506380ac58cd60e01b827bffffffffffffffffffffffffffffffffffffffffffffffffffffffff1916145b806108085750635b5e139f60e01b827bffffffffffffffffffffffffffffffffffffffffffffffffffffffff1916145b9050919050565b60606003805461081e90612dd5565b80601f016020809104026020016040519081016040528092919081815260200182805461084a90612dd5565b80156108975780601f1061086c57610100808354040283529160200191610897565b820191906000526020600020905b81548152906001019060200180831161087a57829003601f168201915b5050505050905090565b60006108ac8261188f565b6108e2576040517fcf4700e400000000000000000000000000000000000000000000000000000000815260040160405180910390fd5b6007600083815260200190815260200160002060000160009054906101000a900473ffffffffffffffffffffffffffffffffffffffff169050919050565b600061092b82610fd7565b90508073ffffffffffffffffffffffffffffffffffffffff1661094c6118ee565b73ffffffffffffffffffffffffffffffffffffffff16146109af57610978816109736118ee565b611766565b6109ae576040517fcfb3b94200000000000000000000000000000000000000000000000000000000815260040160405180910390fd5b5b826007600084815260200190815260200160002060000160006101000a81548173ffffffffffffffffffffffffffffffffffffffff021916908373ffffffffffffffffffffffffffffffffffffffff160217905550818373ffffffffffffffffffffffffffffffffffffffff168273ffffffffffffffffffffffffffffffffffffffff167f8c5be1e5ebec7d5bd14f71427d1e84f3dd0314c0f7b2291e5b200ac8c7c3b92560405160405180910390a4505050565b610a6c6118f6565b80600c8190555050565b6000610a80611974565b6002546001540303905090565b8260006daaeb6d7670e522a718067333cd4e73ffffffffffffffffffffffffffffffffffffffff163b1115610c5d573373ffffffffffffffffffffffffffffffffffffffff168173ffffffffffffffffffffffffffffffffffffffff1603610aff57610afa84848461197d565b610c69565b6daaeb6d7670e522a718067333cd4e73ffffffffffffffffffffffffffffffffffffffff1663c617113430336040518363ffffffff1660e01b8152600401610b48929190612e06565b602060405180830381865afa158015610b65573d6000803e3d6000fd5b505050506040513d601f19601f82011682018060405250810190610b899190612e44565b8015610c1b57506daaeb6d7670e522a718067333cd4e73ffffffffffffffffffffffffffffffffffffffff1663c617113430836040518363ffffffff1660e01b8152600401610bd9929190612e06565b602060405180830381865afa158015610bf6573d6000803e3d6000fd5b505050506040513d601f19601f82011682018060405250810190610c1a9190612e44565b5b610c5c57336040517fede71dcc000000000000000000000000000000000000000000000000000000008152600401610c5391906127d7565b60405180910390fd5b5b610c6884848461197d565b5b50505050565b600f60009054906101000a900460ff1681565b600e5481565b610c906118f6565b3373ffffffffffffffffffffffffffffffffffffffff166108fc479081150290604051600060405180830381858888f19350505050158015610cd6573d6000803e3d6000fd5b50565b8260006daaeb6d7670e522a718067333cd4e73ffffffffffffffffffffffffffffffffffffffff163b1115610ea9573373ffffffffffffffffffffffffffffffffffffffff168173ffffffffffffffffffffffffffffffffffffffff1603610d4b57610d46848484611c9f565b610eb5565b6daaeb6d7670e522a718067333cd4e73ffffffffffffffffffffffffffffffffffffffff1663c617113430336040518363ffffffff1660e01b8152600401610d94929190612e06565b602060405180830381865afa158015610db1573d6000803e3d6000fd5b505050506040513d601f19601f82011682018060405250810190610dd59190612e44565b8015610e6757506daaeb6d7670e522a718067333cd4e73ffffffffffffffffffffffffffffffffffffffff1663c617113430836040518363ffffffff1660e01b8152600401610e25929190612e06565b602060405180830381865afa158015610e42573d6000803e3d6000fd5b505050506040513d601f19601f82011682018060405250810190610e669190612e44565b5b610ea857336040517fede71dcc000000000000000000000000000000000000000000000000000000008152600401610e9f91906127d7565b60405180910390fd5b5b610eb4848484611c9f565b5b50505050565b600a8054610ec890612dd5565b80601f0160208091040260200160405190810160405280929190818152602001828054610ef490612dd5565b8015610f415780601f10610f1657610100808354040283529160200191610f41565b820191906000526020600020905b815481529060010190602001808311610f2457829003601f168201915b505050505081565b60098054610f5690612dd5565b80601f0160208091040260200160405190810160405280929190818152602001828054610f8290612dd5565b8015610fcf5780601f10610fa457610100808354040283529160200191610fcf565b820191906000526020600020905b815481529060010190602001808311610fb257829003601f168201915b505050505081565b6000610fe282611cbf565b9050919050565b60008073ffffffffffffffffffffffffffffffffffffffff168273ffffffffffffffffffffffffffffffffffffffff1603611050576040517f8f4eb60400000000000000000000000000000000000000000000000000000000815260040160405180910390fd5b67ffffffffffffffff600660008473ffffffffffffffffffffffffffffffffffffffff1673ffffffffffffffffffffffffffffffffffffffff16815260200190815260200160002054169050919050565b6110a96118f6565b6110b36000611d8b565b565b6110bd6118f6565b80600f60006101000a81548160ff02191690831515021790555050565b600b5481565b6110e86118f6565b6110f28282611e4f565b5050565b60008060009054906101000a900473ffffffffffffffffffffffffffffffffffffffff16905090565b60606004805461112e90612dd5565b80601f016020809104026020016040519081016040528092919081815260200182805461115a90612dd5565b80156111a75780601f1061117c576101008083540402835291602001916111a7565b820191906000526020600020905b81548152906001019060200180831161118a57829003601f168201915b5050505050905090565b600d5481565b80600860006111c46118ee565b73ffffffffffffffffffffffffffffffffffffffff1673ffffffffffffffffffffffffffffffffffffffff16815260200190815260200160002060008473ffffffffffffffffffffffffffffffffffffffff1673ffffffffffffffffffffffffffffffffffffffff16815260200190815260200160002060006101000a81548160ff0219169083151502179055508173ffffffffffffffffffffffffffffffffffffffff166112716118ee565b73ffffffffffffffffffffffffffffffffffffffff167f17307eab39ab6107e8899845ad3d59bd9653f200f220920489ca2b5937696c31836040516112b6919061265d565b60405180910390a35050565b600c5481565b8360006daaeb6d7670e522a718067333cd4e73ffffffffffffffffffffffffffffffffffffffff163b1115611499573373ffffffffffffffffffffffffffffffffffffffff168173ffffffffffffffffffffffffffffffffffffffff160361133b576113368585858561200b565b6114a6565b6daaeb6d7670e522a718067333cd4e73ffffffffffffffffffffffffffffffffffffffff1663c617113430336040518363ffffffff1660e01b8152600401611384929190612e06565b602060405180830381865afa1580156113a1573d6000803e3d6000fd5b505050506040513d601f19601f820116820180604052508101906113c59190612e44565b801561145757506daaeb6d7670e522a718067333cd4e73ffffffffffffffffffffffffffffffffffffffff1663c617113430836040518363ffffffff1660e01b8152600401611415929190612e06565b602060405180830381865afa158015611432573d6000803e3d6000fd5b505050506040513d601f19601f820116820180604052508101906114569190612e44565b5b61149857336040517fede71dcc00000000000000000000000000000000000000000000000000000000815260040161148f91906127d7565b60405180910390fd5b5b6114a58585858561200b565b5b5050505050565b60006114bc83600e548461207e565b905092915050565b600c546114d033610fe9565b10611510576040517f08c379a000000000000000000000000000000000000000000000000000000000815260040161150790612ee3565b60405180910390fd5b600b548261151c610a76565b6115269190612f32565b1115611567576040517f08c379a000000000000000000000000000000000000000000000000000000000815260040161155e90612ffa565b60405180910390fd5b600f60009054906101000a900460ff16806115ae57506115ad81336040516020016115929190613062565b604051602081830303815290604052805190602001206114ad565b5b6115ed576040517f08c379a00000000000000000000000000000000000000000000000000000000081526004016115e4906130c9565b60405180910390fd5b81600d546115fb91906130e9565b34101561163d576040517f08c379a0000000000000000000000000000000000000000000000000000000008152600401611634906131b5565b60405180910390fd5b6116473383611e4f565b7fd487c6ad16ac879a595219f386dd2a72a90cb14c9dec17eec7756e51cfd2172333611671610a76565b84604051611681939291906131d5565b60405180910390a15050565b60606116988261188f565b6116d7576040517f08c379a00000000000000000000000000000000000000000000000000000000081526004016116ce9061327e565b60405180910390fd5b60006116e1612095565b90506000815111611701576040518060200160405280600081525061172f565b8061170b846120b5565b600a60405160200161171f9392919061336e565b6040516020818303038152906040525b915050919050565b6060611741612095565b905090565b606060405180608001604052806043815260200161366a60439139905090565b6000600860008473ffffffffffffffffffffffffffffffffffffffff1673ffffffffffffffffffffffffffffffffffffffff16815260200190815260200160002060008373ffffffffffffffffffffffffffffffffffffffff1673ffffffffffffffffffffffffffffffffffffffff16815260200190815260200160002060009054906101000a900460ff16905092915050565b6118026118f6565b600073ffffffffffffffffffffffffffffffffffffffff168173ffffffffffffffffffffffffffffffffffffffff1603611871576040517f08c379a000000000000000000000000000000000000000000000000000000000815260040161186890613411565b60405180910390fd5b61187a81611d8b565b50565b6118856118f6565b80600e8190555050565b60008161189a611974565b111580156118a9575060015482105b80156118e7575060007c0100000000000000000000000000000000000000000000000000000000600560008581526020019081526020016000205416145b9050919050565b600033905090565b6118fe612183565b73ffffffffffffffffffffffffffffffffffffffff1661191c6110f6565b73ffffffffffffffffffffffffffffffffffffffff1614611972576040517f08c379a00000000000000000000000000000000000000000000000000000000081526004016119699061347d565b60405180910390fd5b565b60006001905090565b600061198882611cbf565b90508373ffffffffffffffffffffffffffffffffffffffff168173ffffffffffffffffffffffffffffffffffffffff16146119ef576040517fa114810000000000000000000000000000000000000000000000000000000000815260040160405180910390fd5b6000806119fb8461218b565b91509150611a118187611a0c6118ee565b6121b2565b611a5d57611a2686611a216118ee565b611766565b611a5c576040517f59c896be00000000000000000000000000000000000000000000000000000000815260040160405180910390fd5b5b600073ffffffffffffffffffffffffffffffffffffffff168573ffffffffffffffffffffffffffffffffffffffff1603611ac3576040517fea553b3400000000000000000000000000000000000000000000000000000000815260040160405180910390fd5b611ad086868660016121f6565b8015611adb57600082555b600660008773ffffffffffffffffffffffffffffffffffffffff1673ffffffffffffffffffffffffffffffffffffffff168152602001908152602001600020600081546001900391905081905550600660008673ffffffffffffffffffffffffffffffffffffffff1673ffffffffffffffffffffffffffffffffffffffff1681526020019081526020016000206000815460010191905081905550611ba985611b858888876121fc565b7c020000000000000000000000000000000000000000000000000000000017612224565b600560008681526020019081526020016000208190555060007c0200000000000000000000000000000000000000000000000000000000841603611c2f5760006001850190506000600560008381526020019081526020016000205403611c2d576001548114611c2c578360056000838152602001908152602001600020819055505b5b505b838573ffffffffffffffffffffffffffffffffffffffff168773ffffffffffffffffffffffffffffffffffffffff167fddf252ad1be2c89b69c2b068fc378daa952ba7f163c4a11628f55a4df523b3ef60405160405180910390a4611c97868686600161224f565b505050505050565b611cba838383604051806020016040528060008152506112c8565b505050565b60008082905080611cce611974565b11611d5457600154811015611d535760006005600083815260200190815260200160002054905060007c0100000000000000000000000000000000000000000000000000000000821603611d51575b60008103611d47576005600083600190039350838152602001908152602001600020549050611d1d565b8092505050611d86565b505b5b6040517fdf2d9b4200000000000000000000000000000000000000000000000000000000815260040160405180910390fd5b919050565b60008060009054906101000a900473ffffffffffffffffffffffffffffffffffffffff169050816000806101000a81548173ffffffffffffffffffffffffffffffffffffffff021916908373ffffffffffffffffffffffffffffffffffffffff1602179055508173ffffffffffffffffffffffffffffffffffffffff168173ffffffffffffffffffffffffffffffffffffffff167f8be0079c531659141344cd1fd0a4f28419497f9722a3daafe3b4186f6b6457e060405160405180910390a35050565b6000600154905060008203611e90576040517fb562e8dd00000000000000000000000000000000000000000000000000000000815260040160405180910390fd5b611e9d60008483856121f6565b600160406001901b178202600660008573ffffffffffffffffffffffffffffffffffffffff1673ffffffffffffffffffffffffffffffffffffffff16815260200190815260200160002060008282540192505081905550611f1483611f0560008660006121fc565b611f0e85612255565b17612224565b6005600083815260200190815260200160002081905550600080838301905073ffffffffffffffffffffffffffffffffffffffff85169150828260007fddf252ad1be2c89b69c2b068fc378daa952ba7f163c4a11628f55a4df523b3ef600080a4600183015b818114611fb557808360007fddf252ad1be2c89b69c2b068fc378daa952ba7f163c4a11628f55a4df523b3ef600080a4600181019050611f7a565b5060008203611ff0576040517f2e07630000000000000000000000000000000000000000000000000000000000815260040160405180910390fd5b806001819055505050612006600084838561224f565b505050565b612016848484610a8d565b60008373ffffffffffffffffffffffffffffffffffffffff163b146120785761204184848484612265565b612077576040517fd1a57ed600000000000000000000000000000000000000000000000000000000815260040160405180910390fd5b5b50505050565b60008261208b85846123b5565b1490509392505050565b606060405180608001604052806043815260200161362760439139905090565b6060600060016120c48461240b565b01905060008167ffffffffffffffff8111156120e3576120e26129df565b5b6040519080825280601f01601f1916602001820160405280156121155781602001600182028036833780820191505090505b509050600082602001820190505b600115612178578080600190039150507f3031323334353637383961626364656600000000000000000000000000000000600a86061a8153600a858161216c5761216b61349d565b5b04945060008503612123575b819350505050919050565b600033905090565b60008060006007600085815260200190815260200160002090508092508254915050915091565b600073ffffffffffffffffffffffffffffffffffffffff8316925073ffffffffffffffffffffffffffffffffffffffff821691508382148383141790509392505050565b50505050565b60008060e883901c905060e861221386868461255e565b62ffffff16901b9150509392505050565b600073ffffffffffffffffffffffffffffffffffffffff83169250814260a01b178317905092915050565b50505050565b60006001821460e11b9050919050565b60008373ffffffffffffffffffffffffffffffffffffffff1663150b7a0261228b6118ee565b8786866040518563ffffffff1660e01b81526004016122ad9493929190613521565b6020604051808303816000875af19250505080156122e957506040513d601f19601f820116820180604052508101906122e69190613582565b60015b612362573d8060008114612319576040519150601f19603f3d011682016040523d82523d6000602084013e61231e565b606091505b50600081510361235a576040517fd1a57ed600000000000000000000000000000000000000000000000000000000815260040160405180910390fd5b805181602001fd5b63150b7a0260e01b7bffffffffffffffffffffffffffffffffffffffffffffffffffffffff1916817bffffffffffffffffffffffffffffffffffffffffffffffffffffffff191614915050949350505050565b60008082905060005b8451811015612400576123eb828683815181106123de576123dd6135af565b5b6020026020010151612567565b915080806123f8906135de565b9150506123be565b508091505092915050565b600080600090507a184f03e93ff9f4daa797ed6e38ed64bf6a1f0100000000000000008310612469577a184f03e93ff9f4daa797ed6e38ed64bf6a1f010000000000000000838161245f5761245e61349d565b5b0492506040810190505b6d04ee2d6d415b85acef810000000083106124a6576d04ee2d6d415b85acef8100000000838161249c5761249b61349d565b5b0492506020810190505b662386f26fc1000083106124d557662386f26fc1000083816124cb576124ca61349d565b5b0492506010810190505b6305f5e10083106124fe576305f5e10083816124f4576124f361349d565b5b0492506008810190505b61271083106125235761271083816125195761251861349d565b5b0492506004810190505b60648310612546576064838161253c5761253b61349d565b5b0492506002810190505b600a8310612555576001810190505b80915050919050565b60009392505050565b600081831061257f5761257a8284612592565b61258a565b6125898383612592565b5b905092915050565b600082600052816020526040600020905092915050565b6000604051905090565b600080fd5b600080fd5b60007fffffffff0000000000000000000000000000000000000000000000000000000082169050919050565b6125f2816125bd565b81146125fd57600080fd5b50565b60008135905061260f816125e9565b92915050565b60006020828403121561262b5761262a6125b3565b5b600061263984828501612600565b91505092915050565b60008115159050919050565b61265781612642565b82525050565b6000602082019050612672600083018461264e565b92915050565b600081519050919050565b600082825260208201905092915050565b60005b838110156126b2578082015181840152602081019050612697565b838111156126c1576000848401525b50505050565b6000601f19601f8301169050919050565b60006126e382612678565b6126ed8185612683565b93506126fd818560208601612694565b612706816126c7565b840191505092915050565b6000602082019050818103600083015261272b81846126d8565b905092915050565b6000819050919050565b61274681612733565b811461275157600080fd5b50565b6000813590506127638161273d565b92915050565b60006020828403121561277f5761277e6125b3565b5b600061278d84828501612754565b91505092915050565b600073ffffffffffffffffffffffffffffffffffffffff82169050919050565b60006127c182612796565b9050919050565b6127d1816127b6565b82525050565b60006020820190506127ec60008301846127c8565b92915050565b6127fb816127b6565b811461280657600080fd5b50565b600081359050612818816127f2565b92915050565b60008060408385031215612835576128346125b3565b5b600061284385828601612809565b925050602061285485828601612754565b9150509250929050565b61286781612733565b82525050565b6000602082019050612882600083018461285e565b92915050565b6000806000606084860312156128a1576128a06125b3565b5b60006128af86828701612809565b93505060206128c086828701612809565b92505060406128d186828701612754565b9150509250925092565b6000819050919050565b6128ee816128db565b82525050565b600060208201905061290960008301846128e5565b92915050565b600060208284031215612925576129246125b3565b5b600061293384828501612809565b91505092915050565b61294581612642565b811461295057600080fd5b50565b6000813590506129628161293c565b92915050565b60006020828403121561297e5761297d6125b3565b5b600061298c84828501612953565b91505092915050565b600080604083850312156129ac576129ab6125b3565b5b60006129ba85828601612809565b92505060206129cb85828601612953565b9150509250929050565b600080fd5b600080fd5b7f4e487b7100000000000000000000000000000000000000000000000000000000600052604160045260246000fd5b612a17826126c7565b810181811067ffffffffffffffff82111715612a3657612a356129df565b5b80604052505050565b6000612a496125a9565b9050612a558282612a0e565b919050565b600067ffffffffffffffff821115612a7557612a746129df565b5b612a7e826126c7565b9050602081019050919050565b82818337600083830152505050565b6000612aad612aa884612a5a565b612a3f565b905082815260208101848484011115612ac957612ac86129da565b5b612ad4848285612a8b565b509392505050565b600082601f830112612af157612af06129d5565b5b8135612b01848260208601612a9a565b91505092915050565b60008060008060808587031215612b2457612b236125b3565b5b6000612b3287828801612809565b9450506020612b4387828801612809565b9350506040612b5487828801612754565b925050606085013567ffffffffffffffff811115612b7557612b746125b8565b5b612b8187828801612adc565b91505092959194509250565b600067ffffffffffffffff821115612ba857612ba76129df565b5b602082029050602081019050919050565b600080fd5b612bc7816128db565b8114612bd257600080fd5b50565b600081359050612be481612bbe565b92915050565b6000612bfd612bf884612b8d565b612a3f565b90508083825260208201905060208402830185811115612c2057612c1f612bb9565b5b835b81811015612c495780612c358882612bd5565b845260208401935050602081019050612c22565b5050509392505050565b600082601f830112612c6857612c676129d5565b5b8135612c78848260208601612bea565b91505092915050565b60008060408385031215612c9857612c976125b3565b5b600083013567ffffffffffffffff811115612cb657612cb56125b8565b5b612cc285828601612c53565b9250506020612cd385828601612bd5565b9150509250929050565b60008060408385031215612cf457612cf36125b3565b5b6000612d0285828601612754565b925050602083013567ffffffffffffffff811115612d2357612d226125b8565b5b612d2f85828601612c53565b9150509250929050565b60008060408385031215612d5057612d4f6125b3565b5b6000612d5e85828601612809565b9250506020612d6f85828601612809565b9150509250929050565b600060208284031215612d8f57612d8e6125b3565b5b6000612d9d84828501612bd5565b91505092915050565b7f4e487b7100000000000000000000000000000000000000000000000000000000600052602260045260246000fd5b60006002820490506001821680612ded57607f821691505b602082108103612e0057612dff612da6565b5b50919050565b6000604082019050612e1b60008301856127c8565b612e2860208301846127c8565b9392505050565b600081519050612e3e8161293c565b92915050565b600060208284031215612e5a57612e596125b3565b5b6000612e6884828501612e2f565b91505092915050565b7f456163682061646472657373206d6179206f6e6c79206d696e742078204e465460008201527f7321000000000000000000000000000000000000000000000000000000000000602082015250565b6000612ecd602283612683565b9150612ed882612e71565b604082019050919050565b60006020820190508181036000830152612efc81612ec0565b9050919050565b7f4e487b7100000000000000000000000000000000000000000000000000000000600052601160045260246000fd5b6000612f3d82612733565b9150612f4883612733565b9250827fffffffffffffffffffffffffffffffffffffffffffffffffffffffffffffffff03821115612f7d57612f7c612f03565b5b828201905092915050565b7f43616e2774206d696e74206d6f7265207468616e20746f74616c20737570706c60008201527f7900000000000000000000000000000000000000000000000000000000000000602082015250565b6000612fe4602183612683565b9150612fef82612f88565b604082019050919050565b6000602082019050818103600083015261301381612fd7565b9050919050565b60008160601b9050919050565b60006130328261301a565b9050919050565b600061304482613027565b9050919050565b61305c613057826127b6565b613039565b82525050565b600061306e828461304b565b60148201915081905092915050565b7f596f7520617265206e6f742077686974656c6973746564000000000000000000600082015250565b60006130b3601783612683565b91506130be8261307d565b602082019050919050565b600060208201905081810360008301526130e2816130a6565b9050919050565b60006130f482612733565b91506130ff83612733565b9250817fffffffffffffffffffffffffffffffffffffffffffffffffffffffffffffffff048311821515161561313857613137612f03565b5b828202905092915050565b7f4e6f7420656e6f756768204554482073656e743b20636865636b20707269636560008201527f2100000000000000000000000000000000000000000000000000000000000000602082015250565b600061319f602183612683565b91506131aa82613143565b604082019050919050565b600060208201905081810360008301526131ce81613192565b9050919050565b60006060820190506131ea60008301866127c8565b6131f7602083018561285e565b613204604083018461285e565b949350505050565b7f4552433732314d657461646174613a2055524920717565727920666f72206e6f60008201527f6e6578697374656e7420746f6b656e0000000000000000000000000000000000602082015250565b6000613268602f83612683565b91506132738261320c565b604082019050919050565b600060208201905081810360008301526132978161325b565b9050919050565b600081905092915050565b60006132b482612678565b6132be818561329e565b93506132ce818560208601612694565b80840191505092915050565b60008190508160005260206000209050919050565b600081546132fc81612dd5565b613306818661329e565b94506001821660008114613321576001811461333257613365565b60ff19831686528186019350613365565b61333b856132da565b60005b8381101561335d5781548189015260018201915060208101905061333e565b838801955050505b50505092915050565b600061337a82866132a9565b915061338682856132a9565b915061339282846132ef565b9150819050949350505050565b7f4f776e61626c653a206e6577206f776e657220697320746865207a65726f206160008201527f6464726573730000000000000000000000000000000000000000000000000000602082015250565b60006133fb602683612683565b91506134068261339f565b604082019050919050565b6000602082019050818103600083015261342a816133ee565b9050919050565b7f4f776e61626c653a2063616c6c6572206973206e6f7420746865206f776e6572600082015250565b6000613467602083612683565b915061347282613431565b602082019050919050565b600060208201905081810360008301526134968161345a565b9050919050565b7f4e487b7100000000000000000000000000000000000000000000000000000000600052601260045260246000fd5b600081519050919050565b600082825260208201905092915050565b60006134f3826134cc565b6134fd81856134d7565b935061350d818560208601612694565b613516816126c7565b840191505092915050565b600060808201905061353660008301876127c8565b61354360208301866127c8565b613550604083018561285e565b818103606083015261356281846134e8565b905095945050505050565b60008151905061357c816125e9565b92915050565b600060208284031215613598576135976125b3565b5b60006135a68482850161356d565b91505092915050565b7f4e487b7100000000000000000000000000000000000000000000000000000000600052603260045260246000fd5b60006135e982612733565b91507fffffffffffffffffffffffffffffffffffffffffffffffffffffffffffffffff820361361b5761361a612f03565b5b60018201905091905056fe697066733a2f2f626166796265696168656b63656b71377a716e6674327763626b6e626b367973666d7336646a353775736b696c74676276613463666964656d63712f697066733a2f2f6261666b72656967723374346872716d6d6436376d356968356965696f3766697434786d33706835656f7071346f32337a336f356a6d7a697365652fa2646970667358221220ca4d4019905e816960da4b5126ecc143d7b1167e63464a563319be57e6ae048164736f6c634300080d0033",
  "linkReferences": {},
  "deployedLinkReferences": {}
}