{
  "_format": "hh-sol-artifact-1",
  "contractName": "NFT",
  "sourceName": "src/backend/contracts/NFT.sol",
  "abi": [
    {
      "inputs": [
        {
          "internalType": "address",
          "name": "_ownerAddress",
          "type": "address"
        },
        {
          "internalType": "bytes32",
          "name": "_whitelistRoot",
          "type": "bytes32"
        },
        {
          "internalType": "address[]",
          "name": "_minterAddresses",
          "type": "address[]"
        },
        {
          "internalType": "uint256[]",
          "name": "_tokenAmount",
          "type": "uint256[]"
        }
      ],
      "stateMutability": "nonpayable",
      "type": "constructor"
    },
    {
      "inputs": [],
      "name": "ApprovalCallerNotOwnerNorApproved",
      "type": "error"
    },
    {
      "inputs": [],
      "name": "ApprovalQueryForNonexistentToken",
      "type": "error"
    },
    {
      "inputs": [],
      "name": "BalanceQueryForZeroAddress",
      "type": "error"
    },
    {
      "inputs": [],
      "name": "MintERC2309QuantityExceedsLimit",
      "type": "error"
    },
    {
      "inputs": [],
      "name": "MintToZeroAddress",
      "type": "error"
    },
    {
      "inputs": [],
      "name": "MintZeroQuantity",
      "type": "error"
    },
    {
      "inputs": [
        {
          "internalType": "address",
          "name": "operator",
          "type": "address"
        }
      ],
      "name": "OperatorNotAllowed",
      "type": "error"
    },
    {
      "inputs": [],
      "name": "OwnerQueryForNonexistentToken",
      "type": "error"
    },
    {
      "inputs": [],
      "name": "OwnershipNotInitializedForExtraData",
      "type": "error"
    },
    {
      "inputs": [],
      "name": "TransferCallerNotOwnerNorApproved",
      "type": "error"
    },
    {
      "inputs": [],
      "name": "TransferFromIncorrectOwner",
      "type": "error"
    },
    {
      "inputs": [],
      "name": "TransferToNonERC721ReceiverImplementer",
      "type": "error"
    },
    {
      "inputs": [],
      "name": "TransferToZeroAddress",
      "type": "error"
    },
    {
      "inputs": [],
      "name": "URIQueryForNonexistentToken",
      "type": "error"
    },
    {
      "anonymous": false,
      "inputs": [
        {
          "indexed": true,
          "internalType": "address",
          "name": "owner",
          "type": "address"
        },
        {
          "indexed": true,
          "internalType": "address",
          "name": "approved",
          "type": "address"
        },
        {
          "indexed": true,
          "internalType": "uint256",
          "name": "tokenId",
          "type": "uint256"
        }
      ],
      "name": "Approval",
      "type": "event"
    },
    {
      "anonymous": false,
      "inputs": [
        {
          "indexed": true,
          "internalType": "address",
          "name": "owner",
          "type": "address"
        },
        {
          "indexed": true,
          "internalType": "address",
          "name": "operator",
          "type": "address"
        },
        {
          "indexed": false,
          "internalType": "bool",
          "name": "approved",
          "type": "bool"
        }
      ],
      "name": "ApprovalForAll",
      "type": "event"
    },
    {
      "anonymous": false,
      "inputs": [
        {
          "indexed": true,
          "internalType": "uint256",
          "name": "fromTokenId",
          "type": "uint256"
        },
        {
          "indexed": false,
          "internalType": "uint256",
          "name": "toTokenId",
          "type": "uint256"
        },
        {
          "indexed": true,
          "internalType": "address",
          "name": "from",
          "type": "address"
        },
        {
          "indexed": true,
          "internalType": "address",
          "name": "to",
          "type": "address"
        }
      ],
      "name": "ConsecutiveTransfer",
      "type": "event"
    },
    {
      "anonymous": false,
      "inputs": [
        {
          "indexed": false,
          "internalType": "address",
          "name": "user",
          "type": "address"
        },
        {
          "indexed": false,
          "internalType": "uint256",
          "name": "totalSupplyBeforeMint",
          "type": "uint256"
        },
        {
          "indexed": false,
          "internalType": "uint256",
          "name": "_quantity",
          "type": "uint256"
        }
      ],
      "name": "MintSuccessful",
      "type": "event"
    },
    {
      "anonymous": false,
      "inputs": [
        {
          "indexed": true,
          "internalType": "address",
          "name": "previousOwner",
          "type": "address"
        },
        {
          "indexed": true,
          "internalType": "address",
          "name": "newOwner",
          "type": "address"
        }
      ],
      "name": "OwnershipTransferred",
      "type": "event"
    },
    {
      "anonymous": false,
      "inputs": [
        {
          "indexed": true,
          "internalType": "address",
          "name": "from",
          "type": "address"
        },
        {
          "indexed": true,
          "internalType": "address",
          "name": "to",
          "type": "address"
        },
        {
          "indexed": true,
          "internalType": "uint256",
          "name": "tokenId",
          "type": "uint256"
        }
      ],
      "name": "Transfer",
      "type": "event"
    },
    {
      "inputs": [
        {
          "internalType": "address",
          "name": "_user",
          "type": "address"
        },
        {
          "internalType": "uint256",
          "name": "_quantity",
          "type": "uint256"
        }
      ],
      "name": "airdrop",
      "outputs": [],
      "stateMutability": "nonpayable",
      "type": "function"
    },
    {
      "inputs": [],
      "name": "amountMintPerAccount",
      "outputs": [
        {
          "internalType": "uint256",
          "name": "",
          "type": "uint256"
        }
      ],
      "stateMutability": "view",
      "type": "function"
    },
    {
      "inputs": [
        {
          "internalType": "address",
          "name": "to",
          "type": "address"
        },
        {
          "internalType": "uint256",
          "name": "tokenId",
          "type": "uint256"
        }
      ],
      "name": "approve",
      "outputs": [],
      "stateMutability": "payable",
      "type": "function"
    },
    {
      "inputs": [
        {
          "internalType": "address",
          "name": "owner",
          "type": "address"
        }
      ],
      "name": "balanceOf",
      "outputs": [
        {
          "internalType": "uint256",
          "name": "",
          "type": "uint256"
        }
      ],
      "stateMutability": "view",
      "type": "function"
    },
    {
      "inputs": [],
      "name": "baseTokenURI",
      "outputs": [
        {
          "internalType": "string",
          "name": "",
          "type": "string"
        }
      ],
      "stateMutability": "pure",
      "type": "function"
    },
    {
      "inputs": [],
      "name": "contractURI",
      "outputs": [
        {
          "internalType": "string",
          "name": "",
          "type": "string"
        }
      ],
      "stateMutability": "pure",
      "type": "function"
    },
    {
      "inputs": [
        {
          "internalType": "uint256",
          "name": "tokenId",
          "type": "uint256"
        }
      ],
      "name": "getApproved",
      "outputs": [
        {
          "internalType": "address",
          "name": "",
          "type": "address"
        }
      ],
      "stateMutability": "view",
      "type": "function"
    },
    {
      "inputs": [
        {
          "internalType": "address",
          "name": "owner",
          "type": "address"
        },
        {
          "internalType": "address",
          "name": "operator",
          "type": "address"
        }
      ],
      "name": "isApprovedForAll",
      "outputs": [
        {
          "internalType": "bool",
          "name": "",
          "type": "bool"
        }
      ],
      "stateMutability": "view",
      "type": "function"
    },
    {
      "inputs": [
        {
          "internalType": "bytes32[]",
          "name": "_proof",
          "type": "bytes32[]"
        },
        {
          "internalType": "bytes32",
          "name": "_leaf",
          "type": "bytes32"
        }
      ],
      "name": "isValid",
      "outputs": [
        {
          "internalType": "bool",
          "name": "",
          "type": "bool"
        }
      ],
      "stateMutability": "view",
      "type": "function"
    },
    {
      "inputs": [],
      "name": "max_supply",
      "outputs": [
        {
          "internalType": "uint256",
          "name": "",
          "type": "uint256"
        }
      ],
      "stateMutability": "view",
      "type": "function"
    },
    {
      "inputs": [
        {
          "internalType": "uint256",
          "name": "_quantity",
          "type": "uint256"
        },
        {
          "internalType": "bytes32[]",
          "name": "_proof",
          "type": "bytes32[]"
        }
      ],
      "name": "mint",
      "outputs": [],
      "stateMutability": "payable",
      "type": "function"
    },
    {
      "inputs": [],
      "name": "mintEnabled",
      "outputs": [
        {
          "internalType": "bool",
          "name": "",
          "type": "bool"
        }
      ],
      "stateMutability": "view",
      "type": "function"
    },
    {
      "inputs": [],
      "name": "name",
      "outputs": [
        {
          "internalType": "string",
          "name": "",
          "type": "string"
        }
      ],
      "stateMutability": "view",
      "type": "function"
    },
    {
      "inputs": [],
      "name": "owner",
      "outputs": [
        {
          "internalType": "address",
          "name": "",
          "type": "address"
        }
      ],
      "stateMutability": "view",
      "type": "function"
    },
    {
      "inputs": [
        {
          "internalType": "uint256",
          "name": "tokenId",
          "type": "uint256"
        }
      ],
      "name": "ownerOf",
      "outputs": [
        {
          "internalType": "address",
          "name": "",
          "type": "address"
        }
      ],
      "stateMutability": "view",
      "type": "function"
    },
    {
      "inputs": [],
      "name": "price",
      "outputs": [
        {
          "internalType": "uint256",
          "name": "",
          "type": "uint256"
        }
      ],
      "stateMutability": "view",
      "type": "function"
    },
    {
      "inputs": [],
      "name": "publicSaleEnabled",
      "outputs": [
        {
          "internalType": "bool",
          "name": "",
          "type": "bool"
        }
      ],
      "stateMutability": "view",
      "type": "function"
    },
    {
      "inputs": [],
      "name": "renounceOwnership",
      "outputs": [],
      "stateMutability": "nonpayable",
      "type": "function"
    },
    {
      "inputs": [
        {
          "internalType": "address",
          "name": "from",
          "type": "address"
        },
        {
          "internalType": "address",
          "name": "to",
          "type": "address"
        },
        {
          "internalType": "uint256",
          "name": "tokenId",
          "type": "uint256"
        }
      ],
      "name": "safeTransferFrom",
      "outputs": [],
      "stateMutability": "payable",
      "type": "function"
    },
    {
      "inputs": [
        {
          "internalType": "address",
          "name": "from",
          "type": "address"
        },
        {
          "internalType": "address",
          "name": "to",
          "type": "address"
        },
        {
          "internalType": "uint256",
          "name": "tokenId",
          "type": "uint256"
        },
        {
          "internalType": "bytes",
          "name": "data",
          "type": "bytes"
        }
      ],
      "name": "safeTransferFrom",
      "outputs": [],
      "stateMutability": "payable",
      "type": "function"
    },
    {
      "inputs": [
        {
          "internalType": "uint256",
          "name": "_amountMintPerAccount",
          "type": "uint256"
        }
      ],
      "name": "setAmountMintPerAccount",
      "outputs": [],
      "stateMutability": "nonpayable",
      "type": "function"
    },
    {
      "inputs": [
        {
          "internalType": "address",
          "name": "operator",
          "type": "address"
        },
        {
          "internalType": "bool",
          "name": "approved",
          "type": "bool"
        }
      ],
      "name": "setApprovalForAll",
      "outputs": [],
      "stateMutability": "nonpayable",
      "type": "function"
    },
    {
      "inputs": [
        {
          "internalType": "bool",
          "name": "_state",
          "type": "bool"
        }
      ],
      "name": "setMintEnabled",
      "outputs": [],
      "stateMutability": "nonpayable",
      "type": "function"
    },
    {
      "inputs": [
        {
          "internalType": "bool",
          "name": "_state",
          "type": "bool"
        }
      ],
      "name": "setPublicSaleEnabled",
      "outputs": [],
      "stateMutability": "nonpayable",
      "type": "function"
    },
    {
      "inputs": [
        {
          "internalType": "bytes32",
          "name": "_whitelistRoot",
          "type": "bytes32"
        }
      ],
      "name": "setWhitelistRoot",
      "outputs": [],
      "stateMutability": "nonpayable",
      "type": "function"
    },
    {
      "inputs": [
        {
          "internalType": "bytes4",
          "name": "interfaceId",
          "type": "bytes4"
        }
      ],
      "name": "supportsInterface",
      "outputs": [
        {
          "internalType": "bool",
          "name": "",
          "type": "bool"
        }
      ],
      "stateMutability": "view",
      "type": "function"
    },
    {
      "inputs": [],
      "name": "symbol",
      "outputs": [
        {
          "internalType": "string",
          "name": "",
          "type": "string"
        }
      ],
      "stateMutability": "view",
      "type": "function"
    },
    {
      "inputs": [
        {
          "internalType": "uint256",
          "name": "_tokenId",
          "type": "uint256"
        }
      ],
      "name": "tokenURI",
      "outputs": [
        {
          "internalType": "string",
          "name": "",
          "type": "string"
        }
      ],
      "stateMutability": "view",
      "type": "function"
    },
    {
      "inputs": [],
      "name": "totalSupply",
      "outputs": [
        {
          "internalType": "uint256",
          "name": "",
          "type": "uint256"
        }
      ],
      "stateMutability": "view",
      "type": "function"
    },
    {
      "inputs": [
        {
          "internalType": "address",
          "name": "from",
          "type": "address"
        },
        {
          "internalType": "address",
          "name": "to",
          "type": "address"
        },
        {
          "internalType": "uint256",
          "name": "tokenId",
          "type": "uint256"
        }
      ],
      "name": "transferFrom",
      "outputs": [],
      "stateMutability": "payable",
      "type": "function"
    },
    {
      "inputs": [
        {
          "internalType": "address",
          "name": "newOwner",
          "type": "address"
        }
      ],
      "name": "transferOwnership",
      "outputs": [],
      "stateMutability": "nonpayable",
      "type": "function"
    },
    {
      "inputs": [],
      "name": "uriPrefix",
      "outputs": [
        {
          "internalType": "string",
          "name": "",
          "type": "string"
        }
      ],
      "stateMutability": "view",
      "type": "function"
    },
    {
      "inputs": [],
      "name": "uriSuffix",
      "outputs": [
        {
          "internalType": "string",
          "name": "",
          "type": "string"
        }
      ],
      "stateMutability": "view",
      "type": "function"
    },
    {
      "inputs": [],
      "name": "whitelistRoot",
      "outputs": [
        {
          "internalType": "bytes32",
          "name": "",
          "type": "bytes32"
        }
      ],
      "stateMutability": "view",
      "type": "function"
    },
    {
      "inputs": [],
      "name": "withdraw",
      "outputs": [],
      "stateMutability": "nonpayable",
      "type": "function"
    }
  ],
  "bytecode": "0x608060405260405180602001604052806000815250600990805190602001906200002b929190620007be565b506040518060400160405280600581526020017f2e6a736f6e000000000000000000000000000000000000000000000000000000815250600a908051906020019062000079929190620007be565b506101f4600b556008600c5566470de4df820000600d553480156200009d57600080fd5b5060405162004664380380620046648339818101604052810190620000c3919062000ba8565b733cc6cdda760b79bafa08df41ecfa224f810dceb660016040518060400160405280600d81526020017f4d7973746963204d6f746f7273000000000000000000000000000000000000008152506040518060400160405280600681526020017f4d59535449430000000000000000000000000000000000000000000000000000815250620001666200015a6200048160201b60201c565b6200048960201b60201c565b81600390805190602001906200017e929190620007be565b50806004908051906020019062000197929190620007be565b50620001a86200054d60201b60201c565b600181905550505060006daaeb6d7670e522a718067333cd4e73ffffffffffffffffffffffffffffffffffffffff163b1115620003a55780156200026b576daaeb6d7670e522a718067333cd4e73ffffffffffffffffffffffffffffffffffffffff16637d3e3dbe30846040518363ffffffff1660e01b81526004016200023192919062000c69565b600060405180830381600087803b1580156200024c57600080fd5b505af115801562000261573d6000803e3d6000fd5b50505050620003a4565b600073ffffffffffffffffffffffffffffffffffffffff168273ffffffffffffffffffffffffffffffffffffffff161462000325576daaeb6d7670e522a718067333cd4e73ffffffffffffffffffffffffffffffffffffffff1663a0af290330846040518363ffffffff1660e01b8152600401620002eb92919062000c69565b600060405180830381600087803b1580156200030657600080fd5b505af11580156200031b573d6000803e3d6000fd5b50505050620003a3565b6daaeb6d7670e522a718067333cd4e73ffffffffffffffffffffffffffffffffffffffff16634420e486306040518263ffffffff1660e01b81526004016200036e919062000c96565b600060405180830381600087803b1580156200038957600080fd5b505af11580156200039e573d6000803e3d6000fd5b505050505b5b5b505082600e81905550620003bf846200048960201b60201c565b60008251905060008251905080821462000410576040517f08c379a0000000000000000000000000000000000000000000000000000000008152600401620004079062000d60565b60405180910390fd5b60005b8281101562000474576200046885828151811062000436576200043562000d82565b5b602002602001015185838151811062000454576200045362000d82565b5b60200260200101516200055660201b60201c565b80600101905062000413565b5050505050505062000e15565b600033905090565b60008060009054906101000a900473ffffffffffffffffffffffffffffffffffffffff169050816000806101000a81548173ffffffffffffffffffffffffffffffffffffffff021916908373ffffffffffffffffffffffffffffffffffffffff1602179055508173ffffffffffffffffffffffffffffffffffffffff168173ffffffffffffffffffffffffffffffffffffffff167f8be0079c531659141344cd1fd0a4f28419497f9722a3daafe3b4186f6b6457e060405160405180910390a35050565b60006001905090565b600060015490506000820362000598576040517fb562e8dd00000000000000000000000000000000000000000000000000000000815260040160405180910390fd5b620005ad60008483856200073e60201b60201c565b600160406001901b178202600660008573ffffffffffffffffffffffffffffffffffffffff1673ffffffffffffffffffffffffffffffffffffffff168152602001908152602001600020600082825401925050819055506200063c836200061e60008660006200074460201b60201c565b6200062f856200077460201b60201c565b176200078460201b60201c565b6005600083815260200190815260200160002081905550600080838301905073ffffffffffffffffffffffffffffffffffffffff85169150828260007fddf252ad1be2c89b69c2b068fc378daa952ba7f163c4a11628f55a4df523b3ef600080a4600183015b818114620006df57808360007fddf252ad1be2c89b69c2b068fc378daa952ba7f163c4a11628f55a4df523b3ef600080a4600181019050620006a2565b50600082036200071b576040517f2e07630000000000000000000000000000000000000000000000000000000000815260040160405180910390fd5b806001819055505050620007396000848385620007af60201b60201c565b505050565b50505050565b60008060e883901c905060e862000763868684620007b560201b60201c565b62ffffff16901b9150509392505050565b60006001821460e11b9050919050565b600073ffffffffffffffffffffffffffffffffffffffff83169250814260a01b178317905092915050565b50505050565b60009392505050565b828054620007cc9062000de0565b90600052602060002090601f016020900481019282620007f057600085556200083c565b82601f106200080b57805160ff19168380011785556200083c565b828001600101855582156200083c579182015b828111156200083b5782518255916020019190600101906200081e565b5b5090506200084b91906200084f565b5090565b5b808211156200086a57600081600090555060010162000850565b5090565b6000604051905090565b600080fd5b600080fd5b600073ffffffffffffffffffffffffffffffffffffffff82169050919050565b6000620008af8262000882565b9050919050565b620008c181620008a2565b8114620008cd57600080fd5b50565b600081519050620008e181620008b6565b92915050565b6000819050919050565b620008fc81620008e7565b81146200090857600080fd5b50565b6000815190506200091c81620008f1565b92915050565b600080fd5b6000601f19601f8301169050919050565b7f4e487b7100000000000000000000000000000000000000000000000000000000600052604160045260246000fd5b620009728262000927565b810181811067ffffffffffffffff8211171562000994576200099362000938565b5b80604052505050565b6000620009a96200086e565b9050620009b7828262000967565b919050565b600067ffffffffffffffff821115620009da57620009d962000938565b5b602082029050602081019050919050565b600080fd5b600062000a0762000a0184620009bc565b6200099d565b9050808382526020820190506020840283018581111562000a2d5762000a2c620009eb565b5b835b8181101562000a5a578062000a458882620008d0565b84526020840193505060208101905062000a2f565b5050509392505050565b600082601f83011262000a7c5762000a7b62000922565b5b815162000a8e848260208601620009f0565b91505092915050565b600067ffffffffffffffff82111562000ab55762000ab462000938565b5b602082029050602081019050919050565b6000819050919050565b62000adb8162000ac6565b811462000ae757600080fd5b50565b60008151905062000afb8162000ad0565b92915050565b600062000b1862000b128462000a97565b6200099d565b9050808382526020820190506020840283018581111562000b3e5762000b3d620009eb565b5b835b8181101562000b6b578062000b56888262000aea565b84526020840193505060208101905062000b40565b5050509392505050565b600082601f83011262000b8d5762000b8c62000922565b5b815162000b9f84826020860162000b01565b91505092915050565b6000806000806080858703121562000bc55762000bc462000878565b5b600062000bd587828801620008d0565b945050602062000be8878288016200090b565b935050604085015167ffffffffffffffff81111562000c0c5762000c0b6200087d565b5b62000c1a8782880162000a64565b925050606085015167ffffffffffffffff81111562000c3e5762000c3d6200087d565b5b62000c4c8782880162000b75565b91505092959194509250565b62000c6381620008a2565b82525050565b600060408201905062000c80600083018562000c58565b62000c8f602083018462000c58565b9392505050565b600060208201905062000cad600083018462000c58565b92915050565b600082825260208201905092915050565b7f4d696e7465722041646472657373657320616e6420546f6b656e20416d6f756e60008201527f7420617272617973206e65656420746f2068617665207468652073616d65207360208201527f697a652e00000000000000000000000000000000000000000000000000000000604082015250565b600062000d4860448362000cb3565b915062000d558262000cc4565b606082019050919050565b6000602082019050818103600083015262000d7b8162000d39565b9050919050565b7f4e487b7100000000000000000000000000000000000000000000000000000000600052603260045260246000fd5b7f4e487b7100000000000000000000000000000000000000000000000000000000600052602260045260246000fd5b6000600282049050600182168062000df957607f821691505b60208210810362000e0f5762000e0e62000db1565b5b50919050565b61383f8062000e256000396000f3fe6080604052600436106102045760003560e01c80638a333b5011610118578063ba41b0c6116100a0578063e8a3d4851161006f578063e8a3d48514610704578063e985e9c51461072f578063f2fde38b1461076c578063f46a04eb14610795578063f5aa406d146107be57610204565b8063ba41b0c614610655578063c87b56dd14610671578063d1239730146106ae578063d547cfb7146106d957610204565b8063a035b1fe116100e7578063a035b1fe1461057d578063a22cb465146105a8578063a827b5ff146105d1578063b88d4fde146105fc578063b8a20ed01461061857610204565b80638a333b50146104d35780638ba4cc3c146104fe5780638da5cb5b1461052757806395d89b411461055257610204565b8063386bfc981161019b57806362b99ad41161016a57806362b99ad4146103ee5780636352211e1461041957806370a0823114610456578063715018a6146104935780638720fbef146104aa57610204565b8063386bfc98146103655780633ccfd60b1461039057806342842e0e146103a75780635503a0e8146103c357610204565b806311296660116101d757806311296660146102ca57806318160ddd146102f357806323b872dd1461031e5780632ab91bba1461033a57610204565b806301ffc9a71461020957806306fdde0314610246578063081812fc14610271578063095ea7b3146102ae575b600080fd5b34801561021557600080fd5b50610230600480360381019061022b9190612706565b6107e7565b60405161023d919061274e565b60405180910390f35b34801561025257600080fd5b5061025b610879565b6040516102689190612802565b60405180910390f35b34801561027d57600080fd5b506102986004803603810190610293919061285a565b61090b565b6040516102a591906128c8565b60405180910390f35b6102c860048036038101906102c3919061290f565b61098a565b005b3480156102d657600080fd5b506102f160048036038101906102ec919061285a565b610ace565b005b3480156102ff57600080fd5b50610308610ae0565b604051610315919061295e565b60405180910390f35b61033860048036038101906103339190612979565b610af7565b005b34801561034657600080fd5b5061034f610cd9565b60405161035c919061274e565b60405180910390f35b34801561037157600080fd5b5061037a610cec565b60405161038791906129e5565b60405180910390f35b34801561039c57600080fd5b506103a5610cf2565b005b6103c160048036038101906103bc9190612979565b610d43565b005b3480156103cf57600080fd5b506103d8610f25565b6040516103e59190612802565b60405180910390f35b3480156103fa57600080fd5b50610403610fb3565b6040516104109190612802565b60405180910390f35b34801561042557600080fd5b50610440600480360381019061043b919061285a565b611041565b60405161044d91906128c8565b60405180910390f35b34801561046257600080fd5b5061047d60048036038101906104789190612a00565b611053565b60405161048a919061295e565b60405180910390f35b34801561049f57600080fd5b506104a861110b565b005b3480156104b657600080fd5b506104d160048036038101906104cc9190612a59565b61111f565b005b3480156104df57600080fd5b506104e8611144565b6040516104f5919061295e565b60405180910390f35b34801561050a57600080fd5b506105256004803603810190610520919061290f565b61114a565b005b34801561053357600080fd5b5061053c611160565b60405161054991906128c8565b60405180910390f35b34801561055e57600080fd5b50610567611189565b6040516105749190612802565b60405180910390f35b34801561058957600080fd5b5061059261121b565b60405161059f919061295e565b60405180910390f35b3480156105b457600080fd5b506105cf60048036038101906105ca9190612a86565b611221565b005b3480156105dd57600080fd5b506105e661132c565b6040516105f3919061295e565b60405180910390f35b61061660048036038101906106119190612bfb565b611332565b005b34801561062457600080fd5b5061063f600480360381019061063a9190612d72565b611517565b60405161064c919061274e565b60405180910390f35b61066f600480360381019061066a9190612dce565b61152e565b005b34801561067d57600080fd5b506106986004803603810190610693919061285a565b611746565b6040516106a59190612802565b60405180910390f35b3480156106ba57600080fd5b506106c36117f0565b6040516106d0919061274e565b60405180910390f35b3480156106e557600080fd5b506106ee611803565b6040516106fb9190612802565b60405180910390f35b34801561071057600080fd5b50610719611812565b6040516107269190612802565b60405180910390f35b34801561073b57600080fd5b5061075660048036038101906107519190612e2a565b611832565b604051610763919061274e565b60405180910390f35b34801561077857600080fd5b50610793600480360381019061078e9190612a00565b6118c6565b005b3480156107a157600080fd5b506107bc60048036038101906107b79190612a59565b611949565b005b3480156107ca57600080fd5b506107e560048036038101906107e09190612e6a565b61196e565b005b60006301ffc9a760e01b827bffffffffffffffffffffffffffffffffffffffffffffffffffffffff1916148061084257506380ac58cd60e01b827bffffffffffffffffffffffffffffffffffffffffffffffffffffffff1916145b806108725750635b5e139f60e01b827bffffffffffffffffffffffffffffffffffffffffffffffffffffffff1916145b9050919050565b60606003805461088890612ec6565b80601f01602080910402602001604051908101604052809291908181526020018280546108b490612ec6565b80156109015780601f106108d657610100808354040283529160200191610901565b820191906000526020600020905b8154815290600101906020018083116108e457829003601f168201915b5050505050905090565b600061091682611980565b61094c576040517fcf4700e400000000000000000000000000000000000000000000000000000000815260040160405180910390fd5b6007600083815260200190815260200160002060000160009054906101000a900473ffffffffffffffffffffffffffffffffffffffff169050919050565b600061099582611041565b90508073ffffffffffffffffffffffffffffffffffffffff166109b66119df565b73ffffffffffffffffffffffffffffffffffffffff1614610a19576109e2816109dd6119df565b611832565b610a18576040517fcfb3b94200000000000000000000000000000000000000000000000000000000815260040160405180910390fd5b5b826007600084815260200190815260200160002060000160006101000a81548173ffffffffffffffffffffffffffffffffffffffff021916908373ffffffffffffffffffffffffffffffffffffffff160217905550818373ffffffffffffffffffffffffffffffffffffffff168273ffffffffffffffffffffffffffffffffffffffff167f8c5be1e5ebec7d5bd14f71427d1e84f3dd0314c0f7b2291e5b200ac8c7c3b92560405160405180910390a4505050565b610ad66119e7565b80600c8190555050565b6000610aea611a65565b6002546001540303905090565b8260006daaeb6d7670e522a718067333cd4e73ffffffffffffffffffffffffffffffffffffffff163b1115610cc7573373ffffffffffffffffffffffffffffffffffffffff168173ffffffffffffffffffffffffffffffffffffffff1603610b6957610b64848484611a6e565b610cd3565b6daaeb6d7670e522a718067333cd4e73ffffffffffffffffffffffffffffffffffffffff1663c617113430336040518363ffffffff1660e01b8152600401610bb2929190612ef7565b602060405180830381865afa158015610bcf573d6000803e3d6000fd5b505050506040513d601f19601f82011682018060405250810190610bf39190612f35565b8015610c8557506daaeb6d7670e522a718067333cd4e73ffffffffffffffffffffffffffffffffffffffff1663c617113430836040518363ffffffff1660e01b8152600401610c43929190612ef7565b602060405180830381865afa158015610c60573d6000803e3d6000fd5b505050506040513d601f19601f82011682018060405250810190610c849190612f35565b5b610cc657336040517fede71dcc000000000000000000000000000000000000000000000000000000008152600401610cbd91906128c8565b60405180910390fd5b5b610cd2848484611a6e565b5b50505050565b600f60009054906101000a900460ff1681565b600e5481565b610cfa6119e7565b3373ffffffffffffffffffffffffffffffffffffffff166108fc479081150290604051600060405180830381858888f19350505050158015610d40573d6000803e3d6000fd5b50565b8260006daaeb6d7670e522a718067333cd4e73ffffffffffffffffffffffffffffffffffffffff163b1115610f13573373ffffffffffffffffffffffffffffffffffffffff168173ffffffffffffffffffffffffffffffffffffffff1603610db557610db0848484611d90565b610f1f565b6daaeb6d7670e522a718067333cd4e73ffffffffffffffffffffffffffffffffffffffff1663c617113430336040518363ffffffff1660e01b8152600401610dfe929190612ef7565b602060405180830381865afa158015610e1b573d6000803e3d6000fd5b505050506040513d601f19601f82011682018060405250810190610e3f9190612f35565b8015610ed157506daaeb6d7670e522a718067333cd4e73ffffffffffffffffffffffffffffffffffffffff1663c617113430836040518363ffffffff1660e01b8152600401610e8f929190612ef7565b602060405180830381865afa158015610eac573d6000803e3d6000fd5b505050506040513d601f19601f82011682018060405250810190610ed09190612f35565b5b610f1257336040517fede71dcc000000000000000000000000000000000000000000000000000000008152600401610f0991906128c8565b60405180910390fd5b5b610f1e848484611d90565b5b50505050565b600a8054610f3290612ec6565b80601f0160208091040260200160405190810160405280929190818152602001828054610f5e90612ec6565b8015610fab5780601f10610f8057610100808354040283529160200191610fab565b820191906000526020600020905b815481529060010190602001808311610f8e57829003601f168201915b505050505081565b60098054610fc090612ec6565b80601f0160208091040260200160405190810160405280929190818152602001828054610fec90612ec6565b80156110395780601f1061100e57610100808354040283529160200191611039565b820191906000526020600020905b81548152906001019060200180831161101c57829003601f168201915b505050505081565b600061104c82611db0565b9050919050565b60008073ffffffffffffffffffffffffffffffffffffffff168273ffffffffffffffffffffffffffffffffffffffff16036110ba576040517f8f4eb60400000000000000000000000000000000000000000000000000000000815260040160405180910390fd5b67ffffffffffffffff600660008473ffffffffffffffffffffffffffffffffffffffff1673ffffffffffffffffffffffffffffffffffffffff16815260200190815260200160002054169050919050565b6111136119e7565b61111d6000611e7c565b565b6111276119e7565b80600f60006101000a81548160ff02191690831515021790555050565b600b5481565b6111526119e7565b61115c8282611f40565b5050565b60008060009054906101000a900473ffffffffffffffffffffffffffffffffffffffff16905090565b60606004805461119890612ec6565b80601f01602080910402602001604051908101604052809291908181526020018280546111c490612ec6565b80156112115780601f106111e657610100808354040283529160200191611211565b820191906000526020600020905b8154815290600101906020018083116111f457829003601f168201915b5050505050905090565b600d5481565b806008600061122e6119df565b73ffffffffffffffffffffffffffffffffffffffff1673ffffffffffffffffffffffffffffffffffffffff16815260200190815260200160002060008473ffffffffffffffffffffffffffffffffffffffff1673ffffffffffffffffffffffffffffffffffffffff16815260200190815260200160002060006101000a81548160ff0219169083151502179055508173ffffffffffffffffffffffffffffffffffffffff166112db6119df565b73ffffffffffffffffffffffffffffffffffffffff167f17307eab39ab6107e8899845ad3d59bd9653f200f220920489ca2b5937696c3183604051611320919061274e565b60405180910390a35050565b600c5481565b8360006daaeb6d7670e522a718067333cd4e73ffffffffffffffffffffffffffffffffffffffff163b1115611503573373ffffffffffffffffffffffffffffffffffffffff168173ffffffffffffffffffffffffffffffffffffffff16036113a5576113a0858585856120fc565b611510565b6daaeb6d7670e522a718067333cd4e73ffffffffffffffffffffffffffffffffffffffff1663c617113430336040518363ffffffff1660e01b81526004016113ee929190612ef7565b602060405180830381865afa15801561140b573d6000803e3d6000fd5b505050506040513d601f19601f8201168201806040525081019061142f9190612f35565b80156114c157506daaeb6d7670e522a718067333cd4e73ffffffffffffffffffffffffffffffffffffffff1663c617113430836040518363ffffffff1660e01b815260040161147f929190612ef7565b602060405180830381865afa15801561149c573d6000803e3d6000fd5b505050506040513d601f19601f820116820180604052508101906114c09190612f35565b5b61150257336040517fede71dcc0000000000000000000000000000000000000000000000000000000081526004016114f991906128c8565b60405180910390fd5b5b61150f858585856120fc565b5b5050505050565b600061152683600e548461216f565b905092915050565b600f60019054906101000a900460ff1661157d576040517f08c379a000000000000000000000000000000000000000000000000000000000815260040161157490612fae565b60405180910390fd5b600c5461158933611053565b106115c9576040517f08c379a00000000000000000000000000000000000000000000000000000000081526004016115c090613040565b60405180910390fd5b600b54826115d5610ae0565b6115df919061308f565b1115611620576040517f08c379a000000000000000000000000000000000000000000000000000000000815260040161161790613157565b60405180910390fd5b600f60009054906101000a900460ff16806116675750611666813360405160200161164b91906131bf565b60405160208183030381529060405280519060200120611517565b5b6116a6576040517f08c379a000000000000000000000000000000000000000000000000000000000815260040161169d90613226565b60405180910390fd5b81600d546116b49190613246565b3410156116f6576040517f08c379a00000000000000000000000000000000000000000000000000000000081526004016116ed90613312565b60405180910390fd5b6117003383611f40565b7fd487c6ad16ac879a595219f386dd2a72a90cb14c9dec17eec7756e51cfd217233361172a610ae0565b8460405161173a93929190613332565b60405180910390a15050565b606061175182611980565b611790576040517f08c379a0000000000000000000000000000000000000000000000000000000008152600401611787906133db565b60405180910390fd5b600061179a612186565b905060008151116117ba57604051806020016040528060008152506117e8565b806117c4846121a6565b600a6040516020016117d8939291906134cb565b6040516020818303038152906040525b915050919050565b600f60019054906101000a900460ff1681565b606061180d612186565b905090565b60606040518060800160405280604381526020016137c760439139905090565b6000600860008473ffffffffffffffffffffffffffffffffffffffff1673ffffffffffffffffffffffffffffffffffffffff16815260200190815260200160002060008373ffffffffffffffffffffffffffffffffffffffff1673ffffffffffffffffffffffffffffffffffffffff16815260200190815260200160002060009054906101000a900460ff16905092915050565b6118ce6119e7565b600073ffffffffffffffffffffffffffffffffffffffff168173ffffffffffffffffffffffffffffffffffffffff160361193d576040517f08c379a00000000000000000000000000000000000000000000000000000000081526004016119349061356e565b60405180910390fd5b61194681611e7c565b50565b6119516119e7565b80600f60016101000a81548160ff02191690831515021790555050565b6119766119e7565b80600e8190555050565b60008161198b611a65565b1115801561199a575060015482105b80156119d8575060007c0100000000000000000000000000000000000000000000000000000000600560008581526020019081526020016000205416145b9050919050565b600033905090565b6119ef612274565b73ffffffffffffffffffffffffffffffffffffffff16611a0d611160565b73ffffffffffffffffffffffffffffffffffffffff1614611a63576040517f08c379a0000000000000000000000000000000000000000000000000000000008152600401611a5a906135da565b60405180910390fd5b565b60006001905090565b6000611a7982611db0565b90508373ffffffffffffffffffffffffffffffffffffffff168173ffffffffffffffffffffffffffffffffffffffff1614611ae0576040517fa114810000000000000000000000000000000000000000000000000000000000815260040160405180910390fd5b600080611aec8461227c565b91509150611b028187611afd6119df565b6122a3565b611b4e57611b1786611b126119df565b611832565b611b4d576040517f59c896be00000000000000000000000000000000000000000000000000000000815260040160405180910390fd5b5b600073ffffffffffffffffffffffffffffffffffffffff168573ffffffffffffffffffffffffffffffffffffffff1603611bb4576040517fea553b3400000000000000000000000000000000000000000000000000000000815260040160405180910390fd5b611bc186868660016122e7565b8015611bcc57600082555b600660008773ffffffffffffffffffffffffffffffffffffffff1673ffffffffffffffffffffffffffffffffffffffff168152602001908152602001600020600081546001900391905081905550600660008673ffffffffffffffffffffffffffffffffffffffff1673ffffffffffffffffffffffffffffffffffffffff1681526020019081526020016000206000815460010191905081905550611c9a85611c768888876122ed565b7c020000000000000000000000000000000000000000000000000000000017612315565b600560008681526020019081526020016000208190555060007c0200000000000000000000000000000000000000000000000000000000841603611d205760006001850190506000600560008381526020019081526020016000205403611d1e576001548114611d1d578360056000838152602001908152602001600020819055505b5b505b838573ffffffffffffffffffffffffffffffffffffffff168773ffffffffffffffffffffffffffffffffffffffff167fddf252ad1be2c89b69c2b068fc378daa952ba7f163c4a11628f55a4df523b3ef60405160405180910390a4611d888686866001612340565b505050505050565b611dab83838360405180602001604052806000815250611332565b505050565b60008082905080611dbf611a65565b11611e4557600154811015611e445760006005600083815260200190815260200160002054905060007c0100000000000000000000000000000000000000000000000000000000821603611e42575b60008103611e38576005600083600190039350838152602001908152602001600020549050611e0e565b8092505050611e77565b505b5b6040517fdf2d9b4200000000000000000000000000000000000000000000000000000000815260040160405180910390fd5b919050565b60008060009054906101000a900473ffffffffffffffffffffffffffffffffffffffff169050816000806101000a81548173ffffffffffffffffffffffffffffffffffffffff021916908373ffffffffffffffffffffffffffffffffffffffff1602179055508173ffffffffffffffffffffffffffffffffffffffff168173ffffffffffffffffffffffffffffffffffffffff167f8be0079c531659141344cd1fd0a4f28419497f9722a3daafe3b4186f6b6457e060405160405180910390a35050565b6000600154905060008203611f81576040517fb562e8dd00000000000000000000000000000000000000000000000000000000815260040160405180910390fd5b611f8e60008483856122e7565b600160406001901b178202600660008573ffffffffffffffffffffffffffffffffffffffff1673ffffffffffffffffffffffffffffffffffffffff1681526020019081526020016000206000828254019250508190555061200583611ff660008660006122ed565b611fff85612346565b17612315565b6005600083815260200190815260200160002081905550600080838301905073ffffffffffffffffffffffffffffffffffffffff85169150828260007fddf252ad1be2c89b69c2b068fc378daa952ba7f163c4a11628f55a4df523b3ef600080a4600183015b8181146120a657808360007fddf252ad1be2c89b69c2b068fc378daa952ba7f163c4a11628f55a4df523b3ef600080a460018101905061206b565b50600082036120e1576040517f2e07630000000000000000000000000000000000000000000000000000000000815260040160405180910390fd5b8060018190555050506120f76000848385612340565b505050565b612107848484610af7565b60008373ffffffffffffffffffffffffffffffffffffffff163b146121695761213284848484612356565b612168576040517fd1a57ed600000000000000000000000000000000000000000000000000000000815260040160405180910390fd5b5b50505050565b60008261217c85846124a6565b1490509392505050565b606060405180608001604052806043815260200161378460439139905090565b6060600060016121b5846124fc565b01905060008167ffffffffffffffff8111156121d4576121d3612ad0565b5b6040519080825280601f01601f1916602001820160405280156122065781602001600182028036833780820191505090505b509050600082602001820190505b600115612269578080600190039150507f3031323334353637383961626364656600000000000000000000000000000000600a86061a8153600a858161225d5761225c6135fa565b5b04945060008503612214575b819350505050919050565b600033905090565b60008060006007600085815260200190815260200160002090508092508254915050915091565b600073ffffffffffffffffffffffffffffffffffffffff8316925073ffffffffffffffffffffffffffffffffffffffff821691508382148383141790509392505050565b50505050565b60008060e883901c905060e861230486868461264f565b62ffffff16901b9150509392505050565b600073ffffffffffffffffffffffffffffffffffffffff83169250814260a01b178317905092915050565b50505050565b60006001821460e11b9050919050565b60008373ffffffffffffffffffffffffffffffffffffffff1663150b7a0261237c6119df565b8786866040518563ffffffff1660e01b815260040161239e949392919061367e565b6020604051808303816000875af19250505080156123da57506040513d601f19601f820116820180604052508101906123d791906136df565b60015b612453573d806000811461240a576040519150601f19603f3d011682016040523d82523d6000602084013e61240f565b606091505b50600081510361244b576040517fd1a57ed600000000000000000000000000000000000000000000000000000000815260040160405180910390fd5b805181602001fd5b63150b7a0260e01b7bffffffffffffffffffffffffffffffffffffffffffffffffffffffff1916817bffffffffffffffffffffffffffffffffffffffffffffffffffffffff191614915050949350505050565b60008082905060005b84518110156124f1576124dc828683815181106124cf576124ce61370c565b5b6020026020010151612658565b915080806124e99061373b565b9150506124af565b508091505092915050565b600080600090507a184f03e93ff9f4daa797ed6e38ed64bf6a1f010000000000000000831061255a577a184f03e93ff9f4daa797ed6e38ed64bf6a1f01000000000000000083816125505761254f6135fa565b5b0492506040810190505b6d04ee2d6d415b85acef81000000008310612597576d04ee2d6d415b85acef8100000000838161258d5761258c6135fa565b5b0492506020810190505b662386f26fc1000083106125c657662386f26fc1000083816125bc576125bb6135fa565b5b0492506010810190505b6305f5e10083106125ef576305f5e10083816125e5576125e46135fa565b5b0492506008810190505b612710831061261457612710838161260a576126096135fa565b5b0492506004810190505b60648310612637576064838161262d5761262c6135fa565b5b0492506002810190505b600a8310612646576001810190505b80915050919050565b60009392505050565b60008183106126705761266b8284612683565b61267b565b61267a8383612683565b5b905092915050565b600082600052816020526040600020905092915050565b6000604051905090565b600080fd5b600080fd5b60007fffffffff0000000000000000000000000000000000000000000000000000000082169050919050565b6126e3816126ae565b81146126ee57600080fd5b50565b600081359050612700816126da565b92915050565b60006020828403121561271c5761271b6126a4565b5b600061272a848285016126f1565b91505092915050565b60008115159050919050565b61274881612733565b82525050565b6000602082019050612763600083018461273f565b92915050565b600081519050919050565b600082825260208201905092915050565b60005b838110156127a3578082015181840152602081019050612788565b838111156127b2576000848401525b50505050565b6000601f19601f8301169050919050565b60006127d482612769565b6127de8185612774565b93506127ee818560208601612785565b6127f7816127b8565b840191505092915050565b6000602082019050818103600083015261281c81846127c9565b905092915050565b6000819050919050565b61283781612824565b811461284257600080fd5b50565b6000813590506128548161282e565b92915050565b6000602082840312156128705761286f6126a4565b5b600061287e84828501612845565b91505092915050565b600073ffffffffffffffffffffffffffffffffffffffff82169050919050565b60006128b282612887565b9050919050565b6128c2816128a7565b82525050565b60006020820190506128dd60008301846128b9565b92915050565b6128ec816128a7565b81146128f757600080fd5b50565b600081359050612909816128e3565b92915050565b60008060408385031215612926576129256126a4565b5b6000612934858286016128fa565b925050602061294585828601612845565b9150509250929050565b61295881612824565b82525050565b6000602082019050612973600083018461294f565b92915050565b600080600060608486031215612992576129916126a4565b5b60006129a0868287016128fa565b93505060206129b1868287016128fa565b92505060406129c286828701612845565b9150509250925092565b6000819050919050565b6129df816129cc565b82525050565b60006020820190506129fa60008301846129d6565b92915050565b600060208284031215612a1657612a156126a4565b5b6000612a24848285016128fa565b91505092915050565b612a3681612733565b8114612a4157600080fd5b50565b600081359050612a5381612a2d565b92915050565b600060208284031215612a6f57612a6e6126a4565b5b6000612a7d84828501612a44565b91505092915050565b60008060408385031215612a9d57612a9c6126a4565b5b6000612aab858286016128fa565b9250506020612abc85828601612a44565b9150509250929050565b600080fd5b600080fd5b7f4e487b7100000000000000000000000000000000000000000000000000000000600052604160045260246000fd5b612b08826127b8565b810181811067ffffffffffffffff82111715612b2757612b26612ad0565b5b80604052505050565b6000612b3a61269a565b9050612b468282612aff565b919050565b600067ffffffffffffffff821115612b6657612b65612ad0565b5b612b6f826127b8565b9050602081019050919050565b82818337600083830152505050565b6000612b9e612b9984612b4b565b612b30565b905082815260208101848484011115612bba57612bb9612acb565b5b612bc5848285612b7c565b509392505050565b600082601f830112612be257612be1612ac6565b5b8135612bf2848260208601612b8b565b91505092915050565b60008060008060808587031215612c1557612c146126a4565b5b6000612c23878288016128fa565b9450506020612c34878288016128fa565b9350506040612c4587828801612845565b925050606085013567ffffffffffffffff811115612c6657612c656126a9565b5b612c7287828801612bcd565b91505092959194509250565b600067ffffffffffffffff821115612c9957612c98612ad0565b5b602082029050602081019050919050565b600080fd5b612cb8816129cc565b8114612cc357600080fd5b50565b600081359050612cd581612caf565b92915050565b6000612cee612ce984612c7e565b612b30565b90508083825260208201905060208402830185811115612d1157612d10612caa565b5b835b81811015612d3a5780612d268882612cc6565b845260208401935050602081019050612d13565b5050509392505050565b600082601f830112612d5957612d58612ac6565b5b8135612d69848260208601612cdb565b91505092915050565b60008060408385031215612d8957612d886126a4565b5b600083013567ffffffffffffffff811115612da757612da66126a9565b5b612db385828601612d44565b9250506020612dc485828601612cc6565b9150509250929050565b60008060408385031215612de557612de46126a4565b5b6000612df385828601612845565b925050602083013567ffffffffffffffff811115612e1457612e136126a9565b5b612e2085828601612d44565b9150509250929050565b60008060408385031215612e4157612e406126a4565b5b6000612e4f858286016128fa565b9250506020612e60858286016128fa565b9150509250929050565b600060208284031215612e8057612e7f6126a4565b5b6000612e8e84828501612cc6565b91505092915050565b7f4e487b7100000000000000000000000000000000000000000000000000000000600052602260045260246000fd5b60006002820490506001821680612ede57607f821691505b602082108103612ef157612ef0612e97565b5b50919050565b6000604082019050612f0c60008301856128b9565b612f1960208301846128b9565b9392505050565b600081519050612f2f81612a2d565b92915050565b600060208284031215612f4b57612f4a6126a4565b5b6000612f5984828501612f20565b91505092915050565b7f4d696e74696e67206973206e6f7420656e61626c656400000000000000000000600082015250565b6000612f98601683612774565b9150612fa382612f62565b602082019050919050565b60006020820190508181036000830152612fc781612f8b565b9050919050565b7f456163682061646472657373206d6179206f6e6c79206d696e742078204e465460008201527f7321000000000000000000000000000000000000000000000000000000000000602082015250565b600061302a602283612774565b915061303582612fce565b604082019050919050565b600060208201905081810360008301526130598161301d565b9050919050565b7f4e487b7100000000000000000000000000000000000000000000000000000000600052601160045260246000fd5b600061309a82612824565b91506130a583612824565b9250827fffffffffffffffffffffffffffffffffffffffffffffffffffffffffffffffff038211156130da576130d9613060565b5b828201905092915050565b7f43616e2774206d696e74206d6f7265207468616e20746f74616c20737570706c60008201527f7900000000000000000000000000000000000000000000000000000000000000602082015250565b6000613141602183612774565b915061314c826130e5565b604082019050919050565b6000602082019050818103600083015261317081613134565b9050919050565b60008160601b9050919050565b600061318f82613177565b9050919050565b60006131a182613184565b9050919050565b6131b96131b4826128a7565b613196565b82525050565b60006131cb82846131a8565b60148201915081905092915050565b7f596f7520617265206e6f742077686974656c6973746564000000000000000000600082015250565b6000613210601783612774565b915061321b826131da565b602082019050919050565b6000602082019050818103600083015261323f81613203565b9050919050565b600061325182612824565b915061325c83612824565b9250817fffffffffffffffffffffffffffffffffffffffffffffffffffffffffffffffff048311821515161561329557613294613060565b5b828202905092915050565b7f4e6f7420656e6f756768204554482073656e743b20636865636b20707269636560008201527f2100000000000000000000000000000000000000000000000000000000000000602082015250565b60006132fc602183612774565b9150613307826132a0565b604082019050919050565b6000602082019050818103600083015261332b816132ef565b9050919050565b600060608201905061334760008301866128b9565b613354602083018561294f565b613361604083018461294f565b949350505050565b7f4552433732314d657461646174613a2055524920717565727920666f72206e6f60008201527f6e6578697374656e7420746f6b656e0000000000000000000000000000000000602082015250565b60006133c5602f83612774565b91506133d082613369565b604082019050919050565b600060208201905081810360008301526133f4816133b8565b9050919050565b600081905092915050565b600061341182612769565b61341b81856133fb565b935061342b818560208601612785565b80840191505092915050565b60008190508160005260206000209050919050565b6000815461345981612ec6565b61346381866133fb565b9450600182166000811461347e576001811461348f576134c2565b60ff198316865281860193506134c2565b61349885613437565b60005b838110156134ba5781548189015260018201915060208101905061349b565b838801955050505b50505092915050565b60006134d78286613406565b91506134e38285613406565b91506134ef828461344c565b9150819050949350505050565b7f4f776e61626c653a206e6577206f776e657220697320746865207a65726f206160008201527f6464726573730000000000000000000000000000000000000000000000000000602082015250565b6000613558602683612774565b9150613563826134fc565b604082019050919050565b600060208201905081810360008301526135878161354b565b9050919050565b7f4f776e61626c653a2063616c6c6572206973206e6f7420746865206f776e6572600082015250565b60006135c4602083612774565b91506135cf8261358e565b602082019050919050565b600060208201905081810360008301526135f3816135b7565b9050919050565b7f4e487b7100000000000000000000000000000000000000000000000000000000600052601260045260246000fd5b600081519050919050565b600082825260208201905092915050565b600061365082613629565b61365a8185613634565b935061366a818560208601612785565b613673816127b8565b840191505092915050565b600060808201905061369360008301876128b9565b6136a060208301866128b9565b6136ad604083018561294f565b81810360608301526136bf8184613645565b905095945050505050565b6000815190506136d9816126da565b92915050565b6000602082840312156136f5576136f46126a4565b5b6000613703848285016136ca565b91505092915050565b7f4e487b7100000000000000000000000000000000000000000000000000000000600052603260045260246000fd5b600061374682612824565b91507fffffffffffffffffffffffffffffffffffffffffffffffffffffffffffffffff820361377857613777613060565b5b60018201905091905056fe697066733a2f2f626166796265696168656b63656b71377a716e6674327763626b6e626b367973666d7336646a353775736b696c74676276613463666964656d63712f697066733a2f2f6261666b72656967723374346872716d6d6436376d356968356965696f3766697434786d33706835656f7071346f32337a336f356a6d7a697365652fa2646970667358221220b75e1086c60b560e3d56bbe57089480eeea9c98754d0180d74c56c71fea39ff164736f6c634300080d0033",
  "linkReferences": {},
  "deployedLinkReferences": {}
}